:020000040800F2
:1000000030BC0024A5030008538E00085B8700085D
:10001000518E0008E108000869C2000800000000D5
:10002000000000000000000000000000E5020008E1
:10003000111600080000000041030008C1930008E9
:10004000BF030008BF030008BF030008BF03000888
:10005000BF030008BF030008BF030008BF03000878
:10006000BF030008BF030008BF030008FD1000081D
:100070000911000815110008211100082D110008B0
:10008000BF030008BF030008BF030008B91600083B
:1000900025170008BF030008BF030008BF030008BE
:1000A000BF030008BF030008BF030008BF03000828
:1000B00049950008BF030008BF030008BF030008FC
:1000C000BF030008BF030008BF030008BF03000808
:1000D000B992000849A30008BF030008BF03000845
:1000E000BF030008BF03000800000000BF030008B2
:1000F000BF030008BF030008BF030008BF030008D8
:10010000BF030008BF030008BF030008BF030008C7
:10011000BF030008BF030008BF030008BF030008B7
:10012000BF030008BF030008BF030008BF030008A7
:10013000BF030008BF030008BF030008BF03000897
:1001400000000000000000000000000000000000AF
:10015000BF030008BF030008BF030008BF03000877
:10016000BF030008BF030008BF030008BF03000867
:10017000BF030008558E0008BF0300080000000000
:10018000BF030008BF030008BF030008BF03000847
:10019000BF030008BF030008BF030008BF03000837
:1001A000BF030008BF030008BF03000800000000F1
:1001B000BF030008BF030008BF030008BF03000817
:1001C000BF030008BF03000800000000000000009B
:1001D0000000000000000000BF0300080000000055
:1001E000000000000000000000000000000000000F
:1001F0000000000000000000BF030008BF0300086B
:10020000BF030008BF03000800000000BF03000890
:10021000BF030008BF030008BF030008BF030008B6
:10022000BF03000800000000BF030008000000003A
:10023000BF030008BF03000800000000BF03000860
:10024000BF030008BF030008BF030008BF03000886
:10025000BF030008BF030008BF030008BF03000876
:10026000BF030008BF030008BF030008BF03000866
:10027000BF030008BF030008BF0300080000000020
:10028000BF030008BF030008BF030008BF03000846
:1002900000000000BF030008BF03000800000000CA
:1002A00000000000BF030008BF030008BF030008F0
:1002B000BF030008BF030008BF0300083117000890
:1002C000BF030008BF030008BF030008DFF810D019
:1002D00000F0EEF800480047D5CD0008AFF30080ED
:1002E00030BC00242C4B19680868B0E8F04F80F34C
:1002F0000988BFF36F8F4FF0000080F311887047BB
:100300000000000008480068006880F308884FF08B
:10031000000080F3148862B661B6BFF34F8FBFF35D
:100320006F8F00DF00BF00BF08ED00E0DFF80C00BA
:10033000016841F470010160704700BF88ED00E082
:10034000EFF30980BFF36F8F134B1A681EF0100F85
:1003500008BF20ED108A20E9F04F106009B44FF07B
:10036000500080F31188BFF34F8FBFF36F8F0DF0F4
:1003700021FA4FF0000080F3118809BC1968086861
:10038000B0E8F04F1EF0100F08BFB0EC108A80F3F9
:100390000988BFF36F8F704734000024EFF30580A6
:1003A000704700000648804706480047FEE7FEE722
:1003B000FEE7FEE7FEE7FEE7FEE7FEE7FEE7FEE715
:1003C00089940008CD0200082DE9F05F0546002061
:1003D00092469B4688460646814640241BE02846B6
:1003E00041464746224600F053F853465A46C01A43
:1003F000914110D311461846224600F03AF82D1AC2
:1004000067EB01084F4622460120002100F031F839
:1004100017EB00094E41201EA4F10104DFDC484621
:1004200031462A464346BDE8F09F40EA01039B0758
:1004300003D009E008C9121F08C0042AFAD203E059
:1004400011F8013B00F8013B521EF9D27047D2B2BD
:1004500001E000F8012B491EFBD270470022F6E7AD
:1004600010B513460A4604461946FFF7F0FF20462A
:1004700010BD202A04DB203A00FA02F10020704768
:100480009140C2F1200320FA03F3194390407047D2
:10049000202A04DB203A21FA02F00021704721FAD9
:1004A00002F3D040C2F12002914008431946704740
:1004B000064C074D06E0E06840F0010394E80700B1
:1004C00098471034AC42F6D3FFF704FFB8DC0008BD
:1004D000D8DC000870B58C1810F8015B15F0070324
:1004E00001D110F8013B2A1106D110F8012B03E0CD
:1004F00010F8016B01F8016B5B1EF9D12B0705D4D5
:100500000023521E0DD401F8013BFAE710F8013B1D
:10051000CB1A921C03E013F8015B01F8015B521E39
:10052000F9D5A142D8D3002070BD000010B5044613
:1005300036492068884202D0354A904205D1D1F828
:10054000080310F4403F05D117E03248006810F46A
:10055000403F12D006F0BCFB6168B1F5803F06D089
:10056000B1F5003F03D0B1F5403F28D103E0090CBD
:10057000B0FBF1F023E0800821E000214FF40020DF
:1005800005F0CEFA61688A03920B18D18A140C2AFE
:1005900015D2DFE802F0140606060606060B0D0F5C
:1005A0001113890C4900B0FBF1F008E0000906E0E6
:1005B000400904E0800902E0C00900E0000A4008A8
:1005C0001549884205D82068816821F4407181600E
:1005D00010BD1249884207D82068816821F4407113
:1005E00041F48071816010BD0D49884207D82068B0
:1005F000816821F4407141F40071816010BD206870
:10060000816841F44071816010BD0000002002400B
:100610000021024008630258105E5F0020BCBE004B
:1006200040787D0110B5846B216E11F0500F06D01B
:10063000216EC90630D5204601F07EFD10BD206E2A
:1006400040F40070206620680168090712D508F0A0
:10065000B8F8E8B12068C068800419D4206E20F48E
:1006600080702066206EC00412D4206E40F001001D
:1006700020660DE0C06880070AD1206E20F48070EB
:100680002066206EC00403D4206E40F00100206676
:10069000204601F04FFD10BDA16DC96CBDE81040B2
:1006A000084710B5806B016E41F040010166416E54
:1006B00041F00401416601F03FFD10BD10B5806BB3
:1006C00001F039FD10BD000070B504462068816856
:1006D000C1F3400508F069F878B375BB20688168FC
:1006E00001F00D01012909D0206E40F010002066B4
:1006F000606E40F001006066012070BD8168124AA2
:100700001140891C816021680320086004F03EF9D3
:10071000054613E004F03AF9401B02280ED9206880
:100720008068C0070AD0206E40F010002066606E1E
:1007300040F001006066012070BD03E02068806821
:10074000C007E7D10020F7E7C0FFFF7F70B5044680
:10075000206808F02AF850BB20688168264A1142B8
:1007600009D0206E40F010002066606E40F001005D
:100770006066012070BD81681F4E7F3E3140491C7C
:10078000816004F003F905461C4920681C4B88422F
:1007900001D0984201D11B4A00E01B4A926802F046
:1007A0001F02984200D0014681421DD0E2B120E0F4
:1007B00007F0FBFF20B9206881683140491C816047
:1007C00004F0E4F8401B02280ED920680068C043FA
:1007D000C00709D0206E40F010002066606E40F027
:1007E00001006066012070BD20680168C943C90727
:1007F000DED1002070BD00003F00008000200240DC
:1008000000210240002302400063025800F002F879
:10081000FCE700002DED028B40F6B8300CF007FC31
:1008200028480CF07DF8284D294C9FED288AE86C6B
:1008300060B195F8401C012908D1217831B9012116
:100840002170244991EDC70A84ED050A18B195F885
:10085000400C012813D000202070B0EE480A1E483A
:100860000921B0EE402AD4ED021AB0EE401AF0EEA3
:10087000400A0CF053FBA069012816D01DE0144972
:100880009FED160A1431081F0CF036FEF0EE480AF0
:1008900011480921B0EE602AD4ED021A94ED031A32
:1008A00094ED050A0CF03AFBE5E70B48002209211C
:1008B0000CF008FE60680CF0BAFB60680CF0B7FB47
:1008C000B5E70000248E0024E08100240000000031
:1008D000D000002424920024700400246F12833A74
:1008E000FEE704284FF0000070470020704700002A
:1008F00010B505490022054809F042FF04490348A4
:1009000009F030FF002010BD28A500244C980024D9
:10091000289D002470B506460A68002A02D0307867
:10092000522810D0514C00250B2A1DD0256065603F
:100930002581A57231464E4809F014FF4C4809F054
:10094000E5FE002070BD322003F0BAF872B6BFF3A6
:100950004F8F48480168484A01F4E0611143016043
:10096000BFF34F8F00BFFDE740483146FFF75DFD05
:1009700020787B2804D0256065602581A572D9E7A1
:100980003A490A2000F076FBA17A884268D1627861
:10099000F2B1012A21D0022A25D0032A28D0042A24
:1009A0002CD0052A2FD0062A33D0072A36D0082A81
:1009B0003AD0092A3DD00A2A41D00B2A44D00C2A29
:1009C00048D00D2AB6D129492C480CF0DDF8B1E702
:1009D00026492B480CF0D8F8ACE729482349E030E9
:1009E0000CF0D2F8A6E7214926480CF0CDF8A1E793
:1009F00024481E49E0300CF0C7F89BE71B49224809
:100A00000CF0C2F896E720481849E0300CF0BCF82A
:100A100090E716491D480CF0B7F88BE71B481349BF
:100A2000E0300CF0B1F885E7104919480CF0ACF84B
:100A300080E717480D49E0300CF0A6F87AE70B493B
:100A400014480CF0A1F875E712480849E0300CF0A2
:100A50009BF86FE709480549E0380CF095F869E71D
:100A6000256065602581A57264E700003E9800243A
:100A70004C9800240CED00E00400FA05408D0024A1
:100A8000E0810024A08300246085002420870024C6
:100A9000E0880024A08A0024002070470A4610B590
:100AA0000849D1F8BC12D1F81412002901D0012054
:100AB00010BD0146034809F063FEBDE8104001483F
:100AC00009F0F4BE4C98002400F0E0FAFCE700F0D6
:100AD0008FF8FCE770B504460022204601210CF097
:100AE00076F90022022104F1E0000CF070F90022F6
:100AF000032104F5E0700CF06AF90022042104F5EA
:100B000028700CF064F90022052104F560700CF0E7
:100B10005EF90022062104F58C600CF058F90022E1
:100B2000072104F5A8600CF052F900252288A1885D
:100B30002E480CF015F914200CF079FA6D1C0A2DD2
:100B4000F4DB0025B4F8E020B4F8E41027480CF0FA
:100B500007F914200CF06BFA6D1C0A2DF2DB00254E
:100B6000B4F8C021B4F8C41120480CF0F9F81420EE
:100B70000CF05DFA6D1C0A2DF2DB0025B4F8A02202
:100B8000B4F8A41219480CF0EBF814200CF04FFA4A
:100B90006D1C0A2DF2DB0025B4F88023B4F8841311
:100BA00012480CF0DDF814200CF041FA6D1C0A2DEF
:100BB000F2DB0025B4F86024B4F864140B480CF0A0
:100BC000CFF814200CF033FA6D1C0A2DF2DB00254F
:100BD000B4F84025B4F8441504480CF0C1F81420CA
:100BE0000CF025FA6D1C0A2DF2DB70BDD003002439
:100BF0002DED028B0120644D85F8400C4FF4FA6016
:100C00000CF015FA2846FFF765FF28460CF064F84B
:100C100005F1E00006460CF05FF805F5E0700746C8
:100C20000CF05AF805F5287080460BF071FF05F5B9
:100C3000607081460BF06CFF05F58C6082460BF00E
:100C400067FF05F5A86083460BF062FF4F4C95F8EF
:100C5000400C012867D09FED4E8A4E480121D4ED0B
:100C6000011AB0EE482A94ED031AD4ED020A94ED6D
:100C7000040A0CF0F5F847480221B0EE482AF0EEDD
:100C8000481AB0EE481AF0EE480AB0EE480A0CF0E6
:100C9000E7F840480321B0EE482AF0EE481AB0EEDB
:100CA000481AF0EE480AB0EE480A0CF0D9F8394874
:100CB0000421B0EE482AF0EE481AB0EE481AF0EEE1
:100CC000480AB0EE480A0CF0CBF832480521B0EEE5
:100CD000482AF0EE481AB0EE481AF0EE480AB0EE94
:100CE000480A0CF0BDF82B480621B0EE482AF0EE79
:100CF000481AB0EE481AF0EE480AB0EE480A0CF076
:100D0000AFF824480721B0EE482AF0EE481AB0EEBA
:100D1000481AF0EE480AB0EE480A0CF0A1F86069F3
:100D2000012824D02BE0184A01211A480CF058F968
:100D30001848022132460CF053F9164803213A466E
:100D40000CF04EF91348042142460CF049F91148C1
:100D500005214A460CF044F90E48062152460CF093
:100D60003FF90C4807215A460CF03AF9D7E70948F1
:100D7000002204210CF0A6FB20680CF058F9206832
:100D80000CF055F963E70000E08100249C0000248A
:100D900000000000D003002400F094F8FCE70000FD
:100DA00070B504460022012104F5C4600CF00FF870
:100DB0000022022104F5E0600CF009F800220A216B
:100DC00004F5FC600CF003F80022052104F50C602A
:100DD0000BF0FDFF0022072104F51A600BF0F7FF6E
:100DE0000022082104F528600BF0F1FF0022092100
:100DF00004F536600BF0EBFF0025B4F82026B4F8BC
:100E000024162F480BF0ACFF64200CF010F96D1C79
:100E10000A2DF2DB0025B4F80027B4F8041728489F
:100E20000BF09EFF64200CF002F96D1C0A2DF2DB22
:100E30000025B4F8E027B4F8E41721480BF090FF40
:100E400064200CF0F4F86D1C0A2DF2DB0025B4F8D8
:100E5000C028B4F8C4181A480BF082FF64200CF0C4
:100E6000E6F86D1C0A2DF2DB0025B4F8A029B4F8D1
:100E7000A41913480BF074FF64200CF0D8F86D1C13
:100E80000A2DF2DB0025B4F8802AB4F8841A0C4845
:100E90000BF066FF64200CF0CAF86D1C0A2DF2DB23
:100EA0000025B4F8602BB4F8641B05480BF058FF1C
:100EB00064200CF0BCF86D1C0A2DF2DB70BD000044
:100EC000300300242DED028B82B0664D012485F89D
:100ED000404C4FF4FA600CF0AAF82846FFF760FF88
:100EE00005F5C46001900BF0F7FE05F5E0600646DD
:100EF0000BF0F2FE05F5FC6007460BF0EDFE05F584
:100F00000C6080460BF004FE05F51A6081460BF07C
:100F1000FFFD05F5286082460BF0FAFD05F5366009
:100F200083460BF0F5FD85F8404C4F4C95F8400C8E
:100F3000012867D04E4801219FED4C8A94ED052A87
:100F4000F0EE481AB0EE481AF0EE480AB0EE480A41
:100F50000BF086FF46480221B0EE482AF0EE481A10
:100F6000B0EE481AF0EE480AB0EE480A0BF078FFEF
:100F70003F480A21B0EE482AF0EE481AB0EE481A6F
:100F8000F0EE480AB0EE480A0BF06AFF3848052137
:100F9000B0EE482AF0EE481AB0EE481AF0EE480AD1
:100FA000B0EE480A0BF05CFF31480721B0EE482A4A
:100FB000D4ED011A94ED031AD4ED020A94ED040A5B
:100FC0000BF04EFF2A480821B0EE482AD4ED011A52
:100FD00094ED031AD4ED020A94ED040A0BF040FFDD
:100FE00023480921B0EE482AD4ED011A94ED031AE2
:100FF000D4ED020A94ED040A0BF032FFA069012837
:1010000024D02BE01A480121019A0BF0E9FF18487F
:10101000022132460BF0E4FF15480A213A460BF054
:10102000DFFF1348052142460BF0DAFF1048072185
:101030004A460BF0D5FF0E48082152460BF0D0FF70
:101040000B4809215A460BF0CBFFD7E7084800228E
:1010500004210CF037FA20680BF0E9FF20680BF050
:10106000E6FF63E7E0810024B400002400000000F4
:1010700030030024034610B50020002203E08C5CFE
:101080006040521CD2B29A42F9D310BD184C7B2654
:10109000184D2AE0C0EBC00100EB800205EB4111C6
:1010A00022440B891F0A577093708B891F09D770D0
:1010B0000F8A1B0143EA272313710B79897903F007
:1010C0000F0363F31F115171401C0E28E2DB084926
:1010D0004720FFF7CFFF84F8470048210448FFF777
:1010E000DDFC054800680BF0A2FF26700020D1E768
:1010F000E8970024E0810024EC000024014801F07E
:101100009DBD000098050024014801F097BD000036
:1011100010060024014801F091BD0000B40700242E
:10112000014801F08BBD00002C080024014801F0AB
:1011300085BD0000B802002410B52C4A0168914218
:101140003AD02A4A1832914236D0284A3032914257
:1011500032D0264A483291422ED0244A60329142FF
:101160002AD0224A7832914226D0204A90329142A7
:1011700022D01E4AA83291421ED01D4A91421BD055
:101180001B4A1832914217D0194A3032914213D07B
:10119000174A483291420FD0154A603291420BD023
:1011A000134A7832914207D0114A9032914203D0CB
:1011B0000F4AA832914214D1CAB2103A1823B2FB96
:1011C000F3F20C4C02F00703E35CC365032A04D975
:1011D0006FF30901091D816506E06FF3090181655F
:1011E00002E021F0FF018165806D10BD100002401A
:1011F000100402407CDB000810B501680123224C7A
:10120000CAB2A1421BD0204C1434A14217D01E4CAC
:101210002834A14213D01C4C3C34A1420FD01A4CAC
:101220005034A1420BD0184C6434A14207D0164C64
:101230007834A14203D0144C8C34A1420FD1083A27
:101240001421B2FBF1F1114A02EB810202660F4A4E
:101250008032426601F01F018B40836610BD103A58
:101260001824B2FBF4F20A4C2144A82900D8083211
:10127000084901EB8201016606498031416602F0AE
:101280001F018B40836610BD085402580058025855
:10129000F0FBFDBF000802400279521E072A31D838
:1012A000194B016899421BD0174B1433994217D040
:1012B000154B2833994213D0134B3C3399420FD02E
:1012C000114B503399420BD00F4B6433994207D0E6
:1012D0000D4B7833994203D00B4B8C33994207D195
:1012E0000A4901EB8201C16608494031016706E005
:1012F000074901EB8201C1660549403101670121BF
:101300009140416770470000085402580059025844
:1013100000090240014610B500208B694FF0C074EF
:101320008A6A002B0ED0B3F5005F1AD062B3012A8F
:101330002AD0022A28D0032A03D1C96AC90100D5BC
:10134000012010BD1AB1012A06D0022AF9D1C96ABA
:10135000C901F6D5012010BDC96AA142FBD1012007
:1013600010BD52B1012A0AD0022A06D0032AF7D1B1
:10137000C96AA142F4D1012010BD012010BDC96A83
:10138000C901FBD5012010BD012010BD2DE9F04F92
:10139000856D8A4E894FDFF824C2A836DFF81C829B
:1013A000DFF818920CF1180CDFF810A208F13008E1
:1013B000DFF808B209F1480904680AF1600A0BF184
:1013C000780BBC426DD064456BD0444569D04C4528
:1013D00067D0544565D05C4563D0DFF8E0E10EF19D
:1013E000900E74455DD0B4425BD0DFF8D4E1744513
:1013F00057D0DFF8CCE10EF1180E744551D0DFF86C
:10140000C0E10EF1300E74454BD0DFF8B4E10EF1BF
:10141000480E744545D0DFF8A8E10EF1600E744522
:101420003FD0DFF89CE10EF1780E744539D0DFF83B
:1014300090E10EF1900E744533D0DFF884E10EF1A7
:10144000A80E74452DD0DFF87CE1744529D0DFF873
:1014500074E10EF1140E744523D0DFF868E10EF14B
:10146000280E74451DD0DFF85CE10EF13C0E74458A
:1014700017D0DFF850E10EF1500E744511D0DFF8AF
:1014800044E10EF1640E74450BD0DFF838E10EF143
:10149000780E744505D0DFF82CE10EF18C0E744502
:1014A00009D1D0E919E4CEF80440C46E1CB1D0E9EA
:1014B0001CE4CEF804400468BC422ED064452CD015
:1014C00044452AD04C4528D0544526D05C4524D0EC
:1014D0003A4F9037BC4220D0B4421ED0384EB4426E
:1014E0001BD0374E1836B44217D0354E3036B44282
:1014F00013D0334E4836B4420FD0314E6036B4422A
:101500000BD02F4E7836B44207D02D4E9036B442D1
:1015100003D02B4EA836B4421BD190F85C4004F0A7
:101520001F063F24B440AC600468256825F480257C
:101530002560046863608368402B05D00368996068
:101540000068C260BDE8F08F03689A600068C160FF
:10155000F8E71C4EB4421BD01A4E1436B44217D0D2
:10156000184E2836B44213D0164E3C36B4420FD033
:10157000144E5036B4420BD0124E6436B44207D0EB
:10158000104E7836B44203D00E4E8C36B442D9D1C8
:1015900090F85C4004F01F060124B4406C600468BD
:1015A00063608368402B04D0036899600068C26060
:1015B000C8E703689A600068C160C3E71000024092
:1015C00010040240085402580D490A6842F0807223
:1015D0000A600C4900224A600B6843F001030B606B
:1015E00009494843094908604FF47A73B0FBF3F3A3
:1015F0004B60054BB0FBF3F08860CA607047000099
:10160000FCED00E0001000E040420F00000100246B
:10161000704772B6FEE7000010B58AB0002402944D
:10162000039402200490012005900694079402A9D7
:101630001F4802F0D0FA08B1FFF7EBFF02221C4866
:1016400000231146009402F00AFB08B1FFF7E1FF06
:10165000174803F067F808B1FFF7DBFF14480022D2
:10166000012102F03FFA08B1FFF7D3FF114802A9A8
:1016700002F0B1FA08B1FFF7CCFF02220D480023B7
:101680001146009402F0EBFA08B1FFF7C2FF0948D7
:101690000022012102F026FA08B1FFF7BAFF05483F
:1016A00003F040F8002801D0FFF7B3FF0AB010BDE7
:1016B0003003002470040024014802F0C1BB000084
:1016C0003003002410B58AB0002402940120039056
:1016D0000220049005900694079402A9104802F095
:1016E0007AFA08B1FFF795FF02220D480023114650
:1016F000009402F0B4FA08B1FFF78BFF084800220B
:10170000102102F0EFF908B1FFF783FF044803F05E
:1017100009F8002801D0FFF77CFF0AB010BD0000D7
:10172000D0030024014802F08BBB0000D00300244A
:10173000014802F085BB00007004002430B5426B04
:10174000036853F8844F4FF6FC718C4344EA8204DB
:101750001C60036853F8844F058F24F47F0444EA27
:1017600005441C60836B1A44036853F8884F8C430C
:1017700044EA82041C60036853F8884F858F24F480
:10178000FE0444EA05441C60C36B02EB4302036899
:1017900053F8A04F8C4344EA82041C60036853F85A
:1017A000A04FB0F8405024F4FE0444EA05441C6005
:1017B000D0E9103403FB0422036853F8B04F8C4384
:1017C00044EA82041C60036853F8B04FB0F84850F4
:1017D00024F4FE0444EA05441C60D0E9123403FBFF
:1017E0000422036853F8AC4F8C4344EA82041C6023
:1017F000D0E9143403FB0422036853F8F04F8C4300
:1018000044EA82041C60036853F8F04FB0F8585063
:1018100024F47C1444EA05441C60836D02EB43030A
:10182000026852F8C04F8C4344EA8301116001689A
:1018300051F8C02FB0F85C3022F47C1242EA034227
:101840000A60016851F8C02F90F8603022F07C5295
:1018500042EA03620A60416B224A02EB8101C166DF
:10186000826B01EB82020267C36B02EBC302426729
:10187000D0E91034634302EB83028267D0E912346B
:10188000634302EB8302C267D0E91434634302EB83
:101890008302C0F88020836D02EBC302C0F884206D
:1018A000C46D836E5C4302EB8402C0F88820046E32
:1018B0005C4302EB8402C0F890200B4B9A4208D99B
:1018C0009830416841F020014160032101700120FE
:1018D00030BD002200E004C1D0F890308B42FAD82D
:1018E000002030BD00AC0040FCD30040F0B5D1E991
:1018F00001650C692C430D68002E1AD045F0804517
:101900002C4391F82070D1E9066535434E6946EACB
:10191000076635438E8945EA0645D0F88460806EB7
:10192000584306EB80031C605D60083300200B4EBB
:101930000FE044EA8544E4E71418155CE77845EACB
:101940000765A77864783F0447EA0424254320C349
:10195000001DCC68345D8442EED8F0BD84DB000805
:1019600010B50B480168001D0468001D006808449C
:1019700000280BD00749082206F0F0FE0549042292
:101980002046BDE81040103106F0E8BE10BD000052
:1019900000E8F11F86010024F8B504460E461746FC
:1019A0000025009594F85C00012810D0012084F8EF
:1019B0005C002046FEF788FE0346180009D0206E22
:1019C00040F01000206684F85C501846F8BD0220F4
:1019D000F8BD206E20F4885040F002002066206898
:1019E00006F4803107F0804211438268114E324084
:1019F000114341F0004181600F4920680FE0009AD7
:101A0000521C0092009A8A4209D3206E20F00200F4
:101A100040F01000206684F85C500120F8BD826818
:101A2000D20F002AEBD1206E20F0020040F001001E
:101A30002066C8E7C0FFFE3F00F8C3252DE9F04748
:101A40009CB004460D464FF0000894F85C00012855
:101A50000DD0012084F85C00002718971997DFF853
:101A6000F09020683B4E484505D1009604E00220E6
:101A70001CB0BDE8F0870097009840B1009806F0D0
:101A80009CFE8246206806F098FE40B10AE0206E77
:101A900040F02000206684F85C700120E8E7BAF18D
:101AA000000F09D0206E40F0200020664FF00108A2
:101AB00084F85C704046DBE72068484501D0B042BE
:101AC00001D1254800E0254840F61F72244B2968C3
:101AD00011B38168D5F804C021F4404141EA0C01FA
:101AE00081602168494501D0B14208D1D9F8081078
:101AF000C1F30001B368C3F30003194302E099681E
:101B0000C1F300010029D3D1AB6829681943836868
:101B1000934319438160CBE7816821F440418160A0
:101B20002168494501D0B14208D1D9F80810C1F364
:101B30000001B368C3F30003194302E09968C1F3DD
:101B400000010029B4D1816891438160B0E70000B1
:101B5000002002400021024000230240006302589E
:101B6000006002582DE9FC5F04460D464FF0000965
:101B700000200190F94FDFF8E8B3DFF8E8A3FA4E50
:101B800094F85C00012813D04FF0010884F85C80C1
:101B9000206806F00EFE68B1206E40F0200020663E
:101BA0004FF00109002084F85C004846BDE8FC9F26
:101BB0000220FBE7286800280FDB2168B9420CD01F
:101BC000CA69030329D090FAA0F0B0FA80F000F0BF
:101BD0001F0008FA00F00243CA61A88821682A6839
:101BE00000F4407301EB93110B6B00F01F004FF0FA
:101BF0001F0CC2F384620CFA00FC824023EA0C033F
:101C000013430B63206806F0D4FD0090206806F0B3
:101C1000C8FD0099014303D053E1C0F38460D6E7C7
:101C2000AA682968206806F0D4FD2068B84206D169
:101C30006A69C168C1F3C10149008A401BE0CB4910
:101C40000968B8EB117F06D16A69C168C1F38201E6
:101C500049008A400FE0C168C90606D46A69C168B4
:101C6000C1F3820149008A4005E06A69C16801F058
:101C7000100149088A402969042957D02B6800EBD4
:101C800081016031B84207D1086803F0F840104381
:101C900040F00040086007E0086803F0F843134391
:101CA00000F00040184308602068B8421CD12A693F
:101CB000E96900EB8200026E22F080720A4302663C
:101CC00095F8201020682A6901290AD00021B8421D
:101CD000A2D100EB8200026E22F000720A4302667B
:101CE000EFE04FF00071F2E795F821102A69012921
:101CF00016D0002100EB8200026E22F000420A435F
:101D00000266297E20682A6901290CD00021036916
:101D100002F01F0223F4F04391400B430361D0E033
:101D20004FF00041E6E74FF40061F0E7B8426FD1B1
:101D3000002106F030FD00036CD02068002106F081
:101D40002AFD90FAA0F0B0FA80F12868020368D06A
:101D500090FAA0F0B0FA80F0814204D1002220680D
:101D6000114606F045FD2068012106F014FD000330
:101D70005AD02068012106F00EFD90FAA0F0B0FACA
:101D800080F12868020356D090FAA0F0B0FA80F0F3
:101D9000814204D120680022012106F029FD20683B
:101DA000022106F0F8FC000348D02068022106F06A
:101DB000F2FC90FAA0F0B0FA80F12868020344D057
:101DC00090FAA0F0B0FA80F0814204D1206800229D
:101DD000022106F00DFD2068032106F0DCFC000363
:101DE00036D02068032106F0D6FC90FAA0F0B0FAB5
:101DF00080F12868020332D090FAA0F0B0FA80F0A7
:101E000081425ED120680022032106F0F1FC58E0F7
:101E100028E0FFE72068002106F0BDFCC0F38461E4
:101E200093E7C0F3846097E72068012106F0B3FCD4
:101E3000C0F38461A5E7C0F38460A9E720680221AC
:101E400006F0A9FCC0F38461B7E7C0F38460BBE788
:101E50002068032106F09FFCC0F38461C9E7C0F34A
:101E60008460CDE7016E2A7801F0F841B1EB826F12
:101E700003D1016E21F0004101662068416E2A788D
:101E800001F0F841B1EB826F03D1416E21F00041C6
:101E900041662068816E2A7801F0F841B1EB826FCB
:101EA00003D1816E21F0004181662068C16E2A78DD
:101EB00001F0F841B1EB826F03D1C16E21F0004116
:101EC000C166206806F071FC00287FF46BAE2068C4
:101ED000EA682968B842DFF898C00FD150F8B03FDF
:101EE00002F01802C1F3130E2CFA02FC23EA0E03CF
:101EF0000CEA010C43EA0C0303600EE050F8C03F0B
:101F000002F01802C1F3130E2CFA02FC23EA0E03AE
:101F10000CEA010C43EA0C030360E86858457CD1E5
:101F20002868010326D090FAA0F1B1FA81F1491C8A
:101F300001F01F0109293ED8010300291DD090FAA4
:101F4000A0F1B1FA81F101F1010101F01F0108FADC
:101F500001F815D1C0F3846116E00000006002585A
:101F60000000FF4700200240002102400010005CFA
:101F7000FFFF0F00C0F38461D9E7C0F38461E2E79B
:101F800090FAA0F1B1FA81F101F1010101F01F0114
:101F900048EA816102D1C0F3846003E090FAA0F0C6
:101FA000B0FA80F000F1010000F01F0000EB4000EB
:101FB00041EA005134E04FEA003100290DD090FA97
:101FC000A0F1B1FA81F101F1010101F01F0108FA5C
:101FD00001F805D1C0F3846106E0C0F38461F2E743
:101FE00090FAA0F1B1FA81F101F1010101F01F01B4
:101FF00048EA816102D1C0F3846003E090FAA0F066
:10200000B0FA80F000F1010000F01F00A0F10A001A
:1020100000EB400041EA005000E005E040F00071B4
:10202000AA68206806F0D5FB2A68002ABFF6BAAD78
:102030002068394BDFF8E4C0504501D0B04201D1EF
:10204000194600E06146896801F0E071504501D011
:10205000B0420AD1DAF80850C5F30005D6F8088076
:10206000C8F3000845EA080502E0BD68C5F30005AD
:1020700035B1206E40F0200020664FF0010991E557
:10208000274DAA421FD10D021DD4B842F7D15045A9
:1020900002D0B04200D0634641F40000996821F0BC
:1020A000E071014399601F481F490068B0FBF1F0DF
:1020B000401C4000019002E00198401E01900198F0
:1020C0000028F9D16EE5194DAA4210D1CD010ED4E8
:1020D000B842D4D1504502D0B04200D0634641F05E
:1020E0008070996821F0E071014399605AE5104DC4
:1020F000AA42C4D14A02C2D4B842C0D1504502D08B
:10210000B04200D0634641F48000996821F0E0714C
:102110000143996046E50000002302400063025835
:10212000000052C728000024400D0300000021C316
:10213000000084CB7047704770470000F8B5044634
:10214000002500260096002C02D0206E10B107E07A
:102150000120F8BD204600F045F9666684F85C6011
:1021600020688168C1F3407119B18168914A1140BA
:10217000816020688168C1F3007199B981688E4AD5
:10218000114041F0805181608C488D490068B0FB5E
:10219000F1F0401C009002E00098401E0090009872
:1021A0000028F9D120688168C1F3007141B9216E1E
:1021B00041F010012166616E41F001016166012567
:1021C00006F0F7FA216EC90600D430B1206E40F057
:1021D0001000206601252846F8BD206E20F480708E
:1021E00040F002002066206806F0DFFA754EF8B96C
:1021F000754A2068754B904201D0984207D191688A
:10220000C1F300019F68C7F30007394302E0B168DA
:10221000C1F3000161B9904201D0984201D16C48EC
:1022200000E06C486168826822F47C120A43826094
:102230002168B14220D1E26BE0680243607E430333
:10224000A068082810D00C2810D01C2810D01828FE
:1022500010D0002000F00C0043EA4000024394F844
:10226000200042EA004011E00020F3E70420F1E7FB
:102270000820EFE71C20EDE7A268E06B94F820301F
:102280001043627E520342EA0342104394F8202036
:10229000012A03D1A28C521E40EA4240A26A2AB10E
:1022A000E36A02F47872024343EA0200B1420CD1BD
:1022B000CA68494B1A400243CA6020680169626BD0
:1022C00021F040611143016104E0CA68434B1A40A8
:1022D0000243CA60206806F06CFA0746206806F0E0
:1022E00060FA074329D12068B04206D1217E94F8D4
:1022F0003820890341EA420103E0227E216B41EA52
:102300008231C26844F203039A430A43C26094F8DC
:102310004400012820D02068016921F001010161F9
:1023200020680169226C21F070411143016120682D
:10233000B04202D02046FEF7F9F82069012830D0DB
:102340002068016B21F00F010163206E20F0020074
:1023500040F0010020663EE72068B0420ED1D4E98B
:1023600012121143D4E914231A43114302691C4B7E
:102370001A40114341F001010161D1E7B4F848303E
:102380000127D4E913125B1E1143626D07EB03436F
:102390001A4311430269124B5B1E1A40114301613B
:1023A000BEE72068016BE26921F00F01521E114364
:1023B0000163CAE7C0FFFF5FC0FFFF7F2800002462
:1023C000400D03000060025800200240002102403E
:1023D00000230240006302580740F0FF03C0F0FFF3
:1023E0001FF800FC70B5B6B00646142130A8FEF701
:1023F00035F8B82102A8FEF731F833493068884231
:1024000060D100204FF40021CDE9021002200C9091
:1024100019210D910E9001200F9003241094A00219
:1024200011900025129513954FF480302A9002A840
:1024300003F018FE08B1FFF7ECF82448016841F0FA
:1024400020010160006800F0200001901F49083160
:10245000086840F001000860086800F00100019081
:10246000086840F004000860086800F0040001906B
:10247000202030903194329530A9154802F074F93B
:10248000102030903194329530A9124802F06CF946
:10249000124C1148206009206060A560E5604FF48F
:1024A00080602061400060618000A0614011E061B7
:1024B00025626562204600F095FF08B1FFF7A9F894
:1024C000B465A66336B070BD00200240D8440258FF
:1024D000000002580008025870000240B8020024B0
:1024E0002DE9F047044688469146404FDFF800A1A9
:1024F0002068B84201D0504501D13E4900E03E4934
:10250000896801F01F0506F054F910B10220BDE8FA
:10251000F08794F85C0001280BD0012084F85C005F
:10252000002645B1052D06D0092D04D084F85C6045
:10253000EDE70220EBE72046FEF708F910B184F83A
:102540005C60E4E7206E40F60161884340F48070EF
:1025500020662068504500D00746874200D01DB94C
:10256000206E20F480102066206EC00404D5606EBA
:1025700020F00600606600E06666A16D1F48C86333
:10258000A16D1F480864A16D1E48C8641C20216805
:10259000086084F85C602068416841F01001416087
:1025A0001949206888420DD194F838104900C26852
:1025B00022F003020A43C2602068C16841F00101B1
:1025C000C16005E0216BC26822F003020A43C260C9
:1025D00021684B46A06D4246403101F0FBF821686E
:1025E0008A680A4B1A40121D8A6090E70020024058
:1025F0000021024000230240006302582506000823
:10260000BD060008A306000800600258C0FFFF7F57
:102610002DE9F84F044602F0B9F900905CB194F846
:102620003500022809D080206065002084F834003D
:102630000120BDE8F88F0120FBE7D14ED04FD049F3
:102640001836DFF83C833037DFF83493DFF830A3F7
:1026500008F14808DFF828B309F1600920680AF199
:10266000780A0BF1900B88422ED0B0422CD0B842A1
:102670002AD0404528D0484526D0504524D058453A
:1026800022D0BF4AA83290421ED0BE4A90421BD0F0
:10269000BC4A1832904217D0BA4A3032904213D016
:1026A000B84A483290420FD0B64A603290420BD0BE
:1026B000B44A7832904207D0B24A9032904203D066
:1026C000B04AA83290420AD1026822F01E0202608B
:1026D0002068426922F080024261256804E00268B5
:1026E00022F00E0202602568206888424DD0B04278
:1026F0004BD0B84249D0404547D0484545D05045D9
:1027000043D0584541D09E4AA83290423DD09D4A80
:1027100090423AD09B4A1832904236D0994A303291
:10272000904232D0974A483290422ED0954A603239
:1027300090422AD0934A7832904226D0914A9032E1
:10274000904222D08F4AA83290421ED08E4A9042A8
:102750001BD08D4A1432904217D08B4A28329042B7
:1027600013D0894A3C3290420FD0874A503290426F
:102770000BD0854A6432904207D0834A7832904227
:1027800003D0814A8C32904204D1206E026822F438
:10279000807202607A49206888422ED0B0422CD0E4
:1027A000B8422AD0404528D0484526D0504524D0AC
:1027B000584522D07249A83188421ED071498842BA
:1027C0001BD070491831884217D06E493031884289
:1027D00013D06C49483188420FD06A496031884231
:1027E0000BD068497831884207D0664990318842D9
:1027F00003D06449A831884204D1016821F0010165
:10280000016013E0016821F0010101600EE002F0B7
:10281000BDF80099401A052808D9202034342062D8
:102820000320607000202070012002E72868C007A4
:10283000EDD1534A0121206890422ED0B0422CD0D5
:10284000B8422AD0404528D0484526D0504524D00B
:10285000584522D04A4BA83398421ED0494B984243
:102860001BD0484B1833984217D0464B3033984210
:1028700013D0444B483398420FD0424B60339842B8
:102880000BD0404B7833984207D03E4B9033984260
:1028900003D03C4BA833984208D1A06D94F85C302B
:1028A00003F01F053F23AB40836007E0A06D94F861
:1028B0005C3003F01F0301FA03F343602068904289
:1028C0004DD0B0424BD0B84249D0404547D04845A2
:1028D00045D0504543D0584541D0294AA83290426E
:1028E0003DD0284A90423AD0264A1832904236D0FB
:1028F000244A3032904232D0224A483290422ED07E
:10290000204A603290422AD01E4A7832904226D025
:102910001C4A9032904222D01A4AA83290421ED0CD
:10292000194A90421BD0184A1432904217D0164AC6
:102930002832904213D0144A3C3290420FD0124AAF
:10294000503290420BD0104A6432904207D00E4A67
:102950007832904203D00C4A8C3290420BD1D4E9A9
:1029600019205060E06E30B1026822F4807202607B
:10297000D4E91C205060343461700020207058E687
:102980001000024010040240085402582DE9F05F84
:10299000002808D090F83510022906D08021416522
:1029A0000120BDE8F09F0120FBE7A14AA04BA04C0D
:1029B00018329F4D30339E4E4834DFF874B2603584
:1029C000DFF870C27836DFF86C82DFF868920CF1BD
:1029D000300CDFF860A208F16008016809F178099D
:1029E000944F0AF1900A594531D091422FD0994223
:1029F0002DD0A1422BD0A94229D0B14227D0DFF857
:102A000030E20EF1900E714521D0DFF824E20EF194
:102A1000A80E71451BD0DFF81CE2AEF1180E71450F
:102A200015D0B94213D0DFF80CE20EF1180E714543
:102A30000DD061450BD0DFF8FCE10EF1480E714579
:102A400005D0414503D0494501D0514537D14FF01C
:102A5000040E80F835E0594527D0914225D099429F
:102A600023D0A14221D0A9421FD0B1421DD070482D
:102A70009030814219D06E48A830814215D06D48FF
:102A80001838814211D0B9420FD06A4818308142BB
:102A90000BD0614509D067484830814205D0414597
:102AA00003D0494501D0514504D1086820F0010008
:102AB0000860BAE0086820F001000860B5E0D1F8CD
:102AC00000E02EF00E0EC1F800E00168DE46594528
:102AD00031D091422FD099422DD0A1422BD0A94282
:102AE00029D0B14227D0DFF848B10BF1900B5945FE
:102AF00021D0DFF83CB10BF1A80B59451BD0DFF812
:102B000034B1ABF1180B594515D0B94213D0DFF8E9
:102B100024B10BF1180B59450DD061450BD0DFF8EE
:102B200014B10BF1480B594505D0414503D0494537
:102B300001D0514506D1D1F800B02BF0010BC1F8FE
:102B400000B005E0D1F800B02BF0010BC1F800B0E7
:102B500001684FF0010B714546D0914244D0994233
:102B600042D0A14240D0A9423ED0B1423CD0304AEE
:102B70009032914238D02E4AA832914234D02D4A18
:102B8000183A914230D0B9422ED02A4A1832914296
:102B90002AD0614528D0274A4832914224D0414565
:102BA00022D0494520D051451ED0234A91421BD006
:102BB000214A1432914217D01F4A2832914213D031
:102BC0001D4A3C3291420FD01B4A503291420BD0E9
:102BD000194A6432914207D0174A7832914203D0A1
:102BE000154A8C32914218D1016E0A6822F4807223
:102BF0000A60816D90F85C2002F01F020BFA02F26D
:102C00004A60D0E919215160C16E31B10A6822F4DD
:102C100080720A60D0E91C21516080F835B0002133
:102C200080F83410016D01B188470020B9E600003A
:102C30001000024028040240085402582DE9FF5FAA
:102C40000446002001904FF41651FD480068B0FB87
:102C5000F1F00090A56D2E682968FA4FDFF8E4B313
:102C6000DFF8E083DFF8DC930BF1180BDFF8D4A377
:102C700008F13008206809F148090AF1600AB842F1
:102C80003BD05A46904238D0404536D0484534D0A3
:102C9000504532D0EB4A783290422ED0E94A9032F9
:102CA00090422AD0E74AA832904226D0E64A904283
:102CB00023D0E54A183290421FD0E34B303398427C
:102CC0001BD0E14B4833984217D0DFF87CC30CF19E
:102CD000600C604511D0DFF870C30CF1780C6045D2
:102CE0000BD0DFF864C30CF1900C604505D0DFF821
:102CF00058E30EF1A80E70457ED194F85C100823BD
:102D000001F01F0103FA01F232424BD0B84232D037
:102D1000584530D040452ED048452CD050452AD07B
:102D2000C8497831884226D0C6499031884222D09D
:102D3000C449A83188421ED0C34988421BD0C24929
:102D40001831884217D0C0493031884213D0BE496B
:102D5000483188420FD0BC49603188420BD0BA4913
:102D60007831884207D0B8499031884203D0B649BB
:102D7000A831884203D1016801F0040102E0016832
:102D800001F0080171B1016821F00401016094F8BB
:102D90005C0000F01F0003FA00F2AA60606D40F0D2
:102DA0000100606594F85C00012100F01F00814083
:102DB000314240D02068B84234D0584532D04045E6
:102DC00030D048452ED050452CD09E4A7832904283
:102DD00028D09C4A9032904224D09A4AA8329042FD
:102DE00020D0994A90421DD0974A1832904219D06B
:102DF000954A3032904200E0D2E113D0924A4832F4
:102E000090420FD0904A603290420BD08E4A783276
:102E1000904207D08C4A9032904203D08A4AA8321E
:102E200090427DD1406910F0800F04D0A960606DA0
:102E300040F00200606594F85C00042100F01F007F
:102E4000814031423ED02068B84232D0584530D01F
:102E500040452ED048452CD050452AD0794A78326A
:102E6000904226D0774A9032904222D0754AA832BA
:102E700090421ED0744A90421BD0734A183290423E
:102E800017D0714A3032904213D06F4A4832904284
:102E90000FD06D4A603290420BD06B4A783290422C
:102EA00007D0694A9032904203D0674AA8329042D4
:102EB0004ED1006810F0020F04D0A960606D40F0A0
:102EC0000400606594F85C00102100F01F00814050
:102ED000314260D02068B84234D0584532D04045A5
:102EE00030D048452ED050452CD0564A78329042AA
:102EF00028D0544A9032904224D0524AA83290426C
:102F000020D0514A90421DD04F4A1832904219D0D9
:102F10004D4A3032904215D04B4A4832904200E040
:102F200014E00FD0484A603290420BD0464A7832C3
:102F3000904207D0444A9032904203D0424AA8328D
:102F4000904207D1006800F0080006E0006872E7D0
:102F50000068B7E7006800F0040058B1A960206875
:102F6000016849030CD50068000304D4216C09B141
:102F7000204688470FE0A16C69B1204688470AE0E7
:102F80000168C90503D4016821F008010160216CC2
:102F900009B12046884794F85C00202100F01F000A
:102FA000814031427BD02068B84232D0584530D081
:102FB00040452ED048452CD050452AD0214A783261
:102FC000904226D01F4A9032904222D01D4AA83209
:102FD00090421ED01C4A90421BD01B4A183290428D
:102FE00017D0194A3032904213D0174A48329042D3
:102FF0000FD0154A603290420BD0134A783290427B
:1030000007D0114A9032904203D00F4AA832904222
:1030100003D1006800F0100002E0006800F0020038
:10302000E8B3A96094F83500042812D0206801683C
:1030300049033DD50068000335D4616C79B305E0E0
:103040002800002410000240100402402046884757
:103050003FE02068016821F01601016020684169A5
:1030600021F080014161206C08B9A06C20B120687A
:10307000016821F00801016094F85C0000F01F0174
:103080003F208840A860012084F83500002084F8A3
:103090003400216D002974D004B0204600E018E00F
:1030A000BDE8F05F0847E16B99B12046884710E022
:1030B0000168C90509D4016821F0100101600120EF
:1030C00084F83500002084F83400E16B09B1204613
:1030D0008847606D002854D0606DC00758D0042028
:1030E00084F835002068B84231D058452FD040458B
:1030F0002DD048452BD0504529D0B749884226D0FD
:10310000B5491831884222D0B349303188421ED0A7
:10311000B24988421BD0B1491831884217D0AF4913
:103120003031884213D0AD49483188420FD0AB4985
:10313000603188420BD0A9497831884207D0A7492D
:103140009031884203D0A549A831884204D1016852
:1031500021F00101016003E0016821F0010101603B
:1031600021680198009A401C0190904202D808689A
:10317000C007F6D10868C00704D0032084F83500E2
:1031800003E087E0012084F83500002084F8340053
:10319000E16C00297ED004B02046BDE8F05F08470E
:1031A0008F4EB0421BD08E4E1436B04217D08C4E8C
:1031B0002836B04213D08A4E3C36B0420FD0884EEB
:1031C0005036B0420BD0864E6436B04207D0844EA3
:1031D0007836B04203D0824E8C36B0425AD106685F
:1031E0004FF0040E94F85CB00BF01F0B0EFA0BFEC0
:1031F0001EEA010FCDF80CE05ED05FEA467E5BD59B
:1032000003986860300411D5F00307D4A16C00293D
:1032100040D004B02046BDE8F05F0847216C00298B
:1032200038D004B02046BDE8F05F0847B0063BD474
:103230002068B8422DD068496039884229D040457D
:1032400027D0484525D0504523D06349884220D017
:103250006149183188421CD05F493031884218D00A
:103260005E49884215D0904213D05C493031884283
:103270000FD098420DD059496031884209D0574942
:103280007831884205D0604503D05449A83188423E
:1032900006D100E07CE0016821F00801016003E054
:1032A000016821F004010160216C002970D004B094
:1032B0002046BDE8F05F08474FF0020E0EFA0BFE05
:1032C0001EEA010FCDF808E063D05FEA867E60D584
:1032D00002986860300411D5F00307D4616C0029AE
:1032E00078D004B02046BDE8F05F0847E16B0029C4
:1032F00070D004B02046BDE8F05F0847B0063FD468
:103300002068B8422DD034496039884229D04045E0
:1033100027D0484525D0504523D02F49884220D07A
:103320002D49183188421CD02B493031884218D0A1
:103330002A49884215D0904213D02849303188421A
:103340000FD098420DD025496031884209D02349D9
:103350007831884205D0604503D02049A8318842A1
:1033600004D1016821F01401016003E0016821F03B
:103370000A010160012084F83500002084F834003F
:10338000E16B002926D004B02046BDE8F05F084775
:1033900020E0082202FA0BF20A421BD0310719D5AD
:1033A000016821F00E01016094F85C0000F01F013B
:1033B000012000FA01F16960606584F835000020A1
:1033C00084F83400E16C002904D004B02046BDE844
:1033D000F05F0847BDE8FF9F8800024010040240EC
:1033E000085402582DE9F05F044601F0CFFA064672
:1033F000002C7DD0F24F0222DFF8C4830025DFF8D5
:10340000C093DFF8BCA308F13008DFF8B4B309F1CA
:10341000480920680AF1600A0BF1780BB84232D0F3
:10342000E749183188422ED040452CD048452AD053
:10343000504528D0584526D0E1499031884222D0C5
:10344000DF49A83188421ED0DE4988421BD0DD49C1
:103450001831884217D0DB493031884213D0D9491E
:10346000483188420FD0D749603188420BD0D549C6
:103470007831884207D0D3499031884203D0D1496E
:10348000A83188427ED184F8352084F83450B8427F
:1034900034D0CB491831884230D040452ED04845F1
:1034A0002CD050452AD0584528D0C5499031884263
:1034B00024D0C349A831884220D0C24988421DD0B7
:1034C000C0491831884219D0BE493031884215D0E0
:1034D000BC494831884211D0BA49603188420DD088
:1034E000B8497831884209D0B6499031884200E025
:1034F00009E003D0B349A831884207D1016821F01F
:103500000101016013E00120BDE8F09F016821F096
:10351000010101600BE001F039FA801B052806D992
:1035200020206065032084F835000120ECE7206846
:103530000068C007EFD122681168A3480140D4E9B0
:1035400002031843D4E9043633431843A3691843EC
:10355000E3691843236A18430843616A042903D1C5
:10356000D4E90B13194308436168A1F12903052B22
:103570000DD9163B032B0AD9083B012B07D9083B71
:10358000032B00E02AE002D97439032901D840F462
:10359000801010602068406920F00701606A40EAEE
:1035A000010604280DD1A06A0643E06A48B120460E
:1035B000FDF7B0FE28B140206065012084F8350099
:1035C000A2E7206846612046FDF7B6FD94F85C103E
:1035D00001F01F023F219140816066E07B498842F3
:1035E0001BD07A4B1433984217D0784B283398422B
:1035F00013D0764B3C3398420FD0744B50339842E3
:103600000BD0724B6433984207D0704B783398429A
:1036100003D06E4B8C3398427ED1884211D06B49D7
:10362000143188420DD069492831884209D0674950
:103630003C31884205D065495031884201D0634908
:10364000643184F8352084F83450026860490A40B7
:10365000A16840297ED080297DD00021E36841EA1D
:10366000D301236941EAD301636941EAD301A36924
:1036700041EAD301E36941EAD301236A41EA131124
:103680001143016051492068494208441421B0FBAC
:10369000F1F08000E0652046FDF74EFD94F85C10E7
:1036A00001F01F020121914041602068B84256D0CC
:1036B00043491831884252D0404550D048454ED0F9
:1036C00050454CD058454AD03D499031884246D06B
:1036D0003B49A831884242D03A4988423FD03949D3
:1036E000183188423BD037493031884237D035498C
:1036F0004831884233D03349603188422FD0314934
:10370000783188422BD02F499031884227D02D49DB
:10371000A831884223D000E02DE02C4988421ED0F9
:103720002A49143188421AD028492831884216D0B3
:1037300026493C31884212D02449503188420ED06B
:103740002249643188420AD020497831884206D023
:103750001E4901E00AE00BE08C31884229D1204665
:10376000FDF74AFDA06880280CD00CE0102175E719
:103770004FF4804172E740206065032084F83500F3
:103780000120C1E66560216E20790860D4E9191036
:1037900048606068401E072808D82046FDF77CFD79
:1037A000E06E0560D4E91C10486002E0E56625671C
:1037B00065676565012084F835000020A4E60000F7
:1037C00010000240100402403F8010FE08540258CE
:1037D0000F00FEFF2DE9F84F044600200090002C5A
:1037E00015D094F83400012813D0012084F8340057
:1037F00094F835500020012D0DD04FF40061616523
:1038000084F83400012000900098BDE8F88F012072
:10381000FBE70220F9E7022584F835506065A54DE5
:10382000A44EA44F1835DFF88CC23036DFF88482FE
:103830004837DFF88092DFF87CA208F16008DFF8F3
:1038400074B209F1780920680AF1900A0BF1A80B0B
:1038500060453BD0A84239D0B04237D0B84235D0CD
:10386000404533D0484531D050452FD058452DD014
:10387000DFF844C2604529D0DFF83CC20CF1180CD7
:10388000604523D0DFF830C20CF1300C60451DD00C
:10389000DFF824C20CF1480C604517D0DFF818C2DD
:1038A0000CF1600C604511D0DFF80CC20CF1780C03
:1038B00060450BD0DFF800C20CF1900C604505D0DC
:1038C000DFF8F4C10CF1A80C604506D1D0F800C0B7
:1038D0002CF0010CC0F800C005E0D0F800C02CF0BE
:1038E000010CC0F800C02046FDF750FD714920686A
:1038F00088422CD0A8422AD0B04228D0B84226D044
:10390000404524D0484522D0504520D058451ED0AF
:10391000694A90421BD0684A1832904217D0664AD2
:103920003032904213D0644A483290420FD0624AFB
:10393000603290420BD0604A7832904207D05E4AA3
:103940009032904203D05C4AA83290420DD1026876
:1039500022F01E0242F016020260206C90B1206834
:10396000026842F0080202600CE0026822F00E02D7
:1039700042F00A020260206C20B12068026842F026
:1039800004020260206888424BD0A84249D0B0426D
:1039900047D0B84245D0404543D0484541D0504536
:1039A0003FD058453DD0444A90423AD0424A18321E
:1039B000904236D0404A3032904232D03E4A48326D
:1039C00090422ED03C4A603290422AD03A4A783215
:1039D000904226D0384A9032904222D0364AA832BD
:1039E00090421ED0354A90421BD0344A1432904245
:1039F00017D0324A2832904213D0304A3C3290429B
:103A00000FD02E4A503290420BD02C4A6432904252
:103A100007D02A4A7832904203D0284A8C3290420A
:103A20000DD1206E0268D20303D5026842F4807281
:103A30000260E06E18B1026842F480720260206891
:103A400088422CD0A8422AD0B04228D0B84226D0F2
:103A5000404524D0484522D0504520D058451ED05E
:103A6000154988421BD014491831884217D0124991
:103A70003031884213D01049483188420FD00E4966
:103A8000603188420BD00C497831884207D00A490E
:103A90009031884203D00849A831884204D1016896
:103AA00041F001010160AFE6016841F001010160F0
:103AB000AAE6000010000240100402400854025818
:103AC00070B5044600F062FF0546601C02D0044851
:103AD0000078044400F05AFF401BA042FAD370BDA6
:103AE0001C00002410B590F89830012B08D0022B50
:103AF00006D050F89C1F41F002010160012010BD6A
:103B000003689C6D0C4204D1DC6D44F00104DC655B
:103B100005E09C6D31EA04041CD00324DC658B05B0
:103B200004D5036853F8E04F14431C604B0504D5DB
:103B3000036853F8E44F14431C600068426D084B5F
:103B40000B401A4342650748026842EA91710160DE
:103B5000002010BDDC6D44F00204DC65DFE70000EE
:103B6000FFFFCF3F14A8004070B5044694F89800BA
:103B7000022806D054F89C0F40F008002060012075
:103B800070BD2068D0F8C03013F07C5F0AD0D0F848
:103B9000C4309B020DD554F89C0F40F40070206097
:103BA000012070BD54F89C0F40F0200020600120DF
:103BB00070BDD0F8C400C0F3044520462B46FDF785
:103BC00095FE21680120A840C1F8D000C4F89400F7
:103BD000002070BD704710B590F89820012A08D0D9
:103BE000022A06D050F89C1F41F00201016001201A
:103BF00010BDCA680B688BB1072A0B6943EA427390
:103C00002BD00C7A4A6942EA84724968006F00EB53
:103C1000C100036042604FF0000010BD072A10D0C1
:103C20000C7A4FEAC2624B6943EA84730C8A42EA17
:103C3000044243EA02034968C06E00EB810003605E
:103C4000E9E70B8A4FF060548A6942EA0343CA6984
:103C500044EA022243EA0203EDE78A69D5E730B578
:103C6000039C90F89850012D06D050F89C1F41F00D
:103C700004010160012030BD0068090141EA8201B0
:103C800041EA43012143C0F88010002030BD704755
:103C900070470000F0B5002490F89850022D06D02F
:103CA00050F89C1F41F0080101600120F0BD40293F
:103CB0000BD0412936D0056D8D4260D850F89C1F3D
:103CC00041F0200101600120F0BD0568D5F8A06039
:103CD00016F4FE0F18D0D5F8A46076061BD0D5F8E0
:103CE000A460F60105D5D5F8A06016F0004F00D508
:103CF0000124D5F8A450C5F305252C44456C466F26
:103D0000654306EB85063FE050F89C1F41F020011B
:103D100001600120F0BD50F89C1F41F480710160EA
:103D20000120F0BD0568D5F8B06016F4FE0F18D07C
:103D3000D5F8B46076061BD0D5F8B460F60105D589
:103D4000D5F8B06016F0004F00D50124D5F8B45076
:103D5000C5F305252C44C56C866F654306EB8506C7
:103D600012E050F89C1F41F0200101600120F0BDDD
:103D700050F89C1F41F4807101600120F0BD456D39
:103D8000C66F4D4306EB8506356805F080455560E6
:103D90002DB3356825F060451560356805F0005590
:103DA0009560356805F000451561B588ADB2D561FF
:103DB0007568C5F30345D560756805F480155561D0
:103DC000756805F4001595617568C5F3066515629B
:103DD00075680836ED0F55620025174F09E0356804
:103DE000C5F38A451560D8E716F805C003F805C085
:103DF0006D1CD2F80CC017F80CC0AC45F4D84029A3
:103E000009D041290BD0012220290CD200688A4018
:103E1000C0F898200DE00068C0F8A84009E00068EC
:103E2000C0F8B84005E0006801F01F018A40C0F802
:103E30009C200020F0BD000084DB000870470000DB
:103E40002DE9FE4F0446B64F38688007391D0968D2
:103E500000EA817002902068016D01F47041D0F891
:103E600054A00AEA010A016D01F00F01D0F854B024
:103E70000BEA010B016D01F0F001426D0A40019265
:103E8000016D01F07151D0F8548008EA0108016D0C
:103E900001F06071426D0A400092416D056D4FF076
:103EA0000009CE43F10509D4E943C90506D4B91583
:103EB0000165C7F800902046FFF7C0FF700510D4D9
:103EC000E84340050DD42068D0F8DC20D0F8E41099
:103ED00011404FF480620265C7F80090204600F060
:103EE0003FFC029858B18F49029808402168086544
:103EF0000298800F386002992046FFF76BFEBAF1F6
:103F0000000F0BD0216887480AEA000008654FEAD5
:103F10009A7038605146204600F024FCBBF1000F37
:103F20000BD021687F480BEA000008654FEA9B70C0
:103F300038605946204600F0D3FA019858B17949C3
:103F400001980840216808650198800F3860019940
:103F5000204600F07BFB30050BD4E843000508D475
:103F600021684FF400600865C7F80090204600F013
:103F7000FAFBB00510D4E84380050DD42068D0F8D2
:103F8000D820D0F8E01011404FF400720265C7F855
:103F90000090204600F0E5FB30030BD4E84300031B
:103FA00008D421684FF400200865C7F80090204627
:103FB00000F094FAF0030BD4E843C00308D421685E
:103FC0004FF480300865C7F80090204600F0C7FB2A
:103FD00070030BD4E843400308D421684FF48020D9
:103FE0000865C7F80090204600F0B8FBB0030ED477
:103FF000E84380030BD421684FF400300865C7F80C
:104000000090D4F89C0040F08000C4F89C00009818
:1040100058B1444900980840216808650098800F0D
:10402000386000992046FFF733FEB8F1000F0DD03D
:1040300021683C4808EA000008654FEA987038603B
:10404000D4F89C0040EA0800C4F89C003649206877
:1040500088425BD160688168890757D0016A01F0A6
:104060000F02416A1140026A02F03002476A1740AB
:10407000026A02F4C072D0F8248008EA0208026AD8
:1040800002F4FC42456A1540026A02F4F022466AD4
:104090001640D0F82490D0F820A019B10162204633
:1040A00000F059FB2FB1606807623946204600F0E6
:1040B00054FB6FEA090040060ED46FEA0A0040067E
:1040C0000AD46068C16B090CC26B02F03F02402346
:1040D0000362204600F040FBB8F1000F06D0606894
:1040E000C0F820804146204600F034FB35B16068BE
:1040F0000562D4F89C002843C4F89C0036B160687F
:104100000662D4F89C003043C4F89C00D4F89C00AC
:10411000002802D02046FFF7BAFDBDE8FE8F000060
:1041200010A80040FFFFCF3F00A000402DE9F04362
:1041300093B004464C2295496846FCF776F96CB179
:10414000934F2068B84202D100F5807060604FF450
:10415000407994F89800002620B108E0012013B0BF
:10416000BDE8F08384F89960204600F013F92068D8
:10417000816921F01001816100F008FC05464FF0D3
:1041800003080DE000F002FC401B0A2808D954F88F
:104190009C0F40F00100206004F8048C0120DEE751
:1041A000206880690007EDD42068816941F0010131
:1041B000816100F0EBFB05460DE000F0E7FB401BE2
:1041C0000A2808D954F89C0F40F00100206004F838
:1041D000048C0120C3E720688069C007EDD0206807
:1041E000816941F002018161207C012839D0206879
:1041F000816941F040018161607C012837D02068ED
:10420000816921F480418161A07C012835D020683A
:10421000816941F48051816120688169A26821F43B
:104220004071114381612068816921F0A40181619D
:104230002068016921F010010161E068012822D0A5
:1042400030B302282BD02068816941F08001816160
:104250002068016941F010010161E068032818D06D
:1042600022E02068816921F040018161C4E7206873
:10427000816941F480418161C6E72068816921F448
:1042800080518161C8E72068816941F00401816142
:104290000AE02068816941F02001816104E0206822
:1042A000816941F020018161207E401E4106E06964
:1042B000401E41EA0020216A491E0843A18A491E86
:1042C00040EA01402168C861A06848450FD1E16A11
:1042D000A06A491E401E40EA0121206B401E41EAAF
:1042E0000011A08C401E41EA00402168C860206E89
:1042F00028B1206850F8C01F626E11430160D4E9F4
:104300001701C842694609D0206850F8C82FA36E2B
:1043100022F0070251F823301A430260206C48B1A2
:10432000206850F8BC2F636C22F0070251F823304C
:104330001A430260A06C50B1206850F8BC2FE36CA7
:1043400022F0700251F8233042EA03120260206D1D
:1043500050B1206850F8BC2F636D22F4E06251F830
:10436000231042EA012101602068B84204D160684C
:10437000816821F00301816044F8946FA6600120F8
:104380002071943C2046FDF7D9F9E8E694DB00085B
:1043900000A000402DE9F04186B00446142101A898
:1043A000FCF75CF8474B002522680227464C4FF08B
:1043B000090CDFF80C8119680C3C434E4348491C3A
:1043C000424527D11960012907D1316841F4807134
:1043D0003160316801F480710091216841F0080179
:1043E0002160216801F008010091032101910297E9
:1043F00003950495CDF814C001A900F0B5F9002289
:104400000521132000F066FB132000F055FB06B0D9
:10441000BDE8F081DFF8B880424526D11960012956
:1044200007D1306840F480703060306800F48070EC
:104430000090206840F002002060206800F0020038
:10444000009060200190029703950495CDF814C068
:1044500001A9204800F088F900220521142000F06D
:1044600039FB142000F028FBD1E7DFF86CC062456F
:10447000CDD11960012907D1316841F480713160D3
:10448000316801F480710091216841F008012160D8
:10449000216801F0080100914FF440510191029709
:1044A000039504950521059101A900F05DF900220D
:1044B00005219F2000F00EFB9F2000F0FDFAA6E7EB
:1044C00000A0004018000024EC440258000C0258E0
:1044D00000A400400004025800D4004070470000CF
:1044E00070B50546C8077DD050492868884275D107
:1044F0004F484021FBF7B2FF4D4B40212846A3F126
:104500002802FFF7C7FB4A492839A1F1A804086827
:1045100011380A2862D2DFE800F0554761612C614A
:104520001F11053ACA684249424808F09DFAD4E989
:104530000001401C41F1000103C44FE03D48CA683E
:104540003B49E03808F090FAD4E90201401C41F1FF
:104550000001C4E9020141E0CA683549364808F063
:1045600083FAD4E90401401C41F10001C4E90401CB
:1045700034E03148CA682E49E03808F075FAD4E9C9
:104580000601401C41F10001C4E9060126E0CA68A9
:1045900027492A4808F068FAD4E90801401C41F18B
:1045A0000001C4E9080119E02448CA682049E0383C
:1045B00008F05AFAD4E90A01401C41F10001C4E9AB
:1045C0000A010BE0CA681A491D4808F04DFAD4E9FF
:1045D0000C01401C41F10001C4E90C011949286893
:1045E000884200E021E020D111484021D030FBF783
:1045F00035FF0F4B40212846D033A3F12802FFF7A7
:1046000049FB0B48A830016819290ED1C26800F196
:1046100028010D4808F012FB05489838D0E910121F
:10462000491C42F10002C0E9101270BD00A0004018
:10463000D8960024408D0024808B0024C08900245B
:104640000088002400D400402495002410B50446BE
:10465000C80626D52E492068884222D12D484021FF
:10466000FBF7FCFE2B4B41212046A3F12802FFF76C
:1046700011FB28482838A0F1900401681139052958
:104680000FD2DFE801F0382A1D0F0300C26821496C
:10469000214808F0E9F9D4E90001401C41F100018A
:1046A00003C410BDC2681C481A49E03008F0DCF9A8
:1046B000D4E90201401C41F10001C4E9020110BD2E
:1046C000C2681449154808F0CFF9D4E90401401C28
:1046D00041F10001C4E9040110BDC2680F480D4951
:1046E000E03008F0C1F9D4E90601401C41F10001B5
:1046F000C4E9060110BDC2680649094808F0B4F9CA
:10470000D4E90801401C41F10001C4E9080110BDD1
:1047100000A4004040970024E0810024A0830024EE
:104720006085002490F89810012906D050F89C1F4D
:1047300041F00401016001207047022180F89810C7
:1047400001688A6922F001028A610021C0F89C1088
:104750000020704770477047704770477047704738
:1047600070477047704770472DE9F84F0022784D29
:1047700003264FF001080F274FF0B04CE1E008FA94
:1047800002F31C409A46002C7ED00B7903F0030301
:10479000012B01D0022B1BD1D0F80890530006FA50
:1047A00003FB29EA0B09D1F80CB00BFA03FB4BEA27
:1047B000090BC0F808B0436823EA0A0391F8049093
:1047C000C9F3001909FA02F949EA0309C0F804908B
:1047D0000B79DB439B070ED0D0F80C90530006FA00
:1047E00003FA29EA0A09D1F808A00AFA03FA4AEA00
:1047F000090AC0F80CA00B7903F00303022B14D1B3
:10480000D30800EB8303D3F820A04FEA42794FEAA4
:10481000D96907FA09FB2AEA0B0AD1F810B00BFA9A
:1048200009FB4BEA0A0BC3F820B0D0F80090530004
:1048300006FA03FA29EA0A0991F804A00AF0030A21
:104840000AFA03FA4AEA090AC0F800A04B6813F40E
:10485000403F75D03F4BD3F8009049F00209C3F8B0
:1048600000901B6803F00203009322F0030909F192
:10487000B049D9F808B493074FEA137A07FA0AF354
:104880002BEA030B344B00E05AE0984201D100239D
:1048900028E0324B984201D1012323E0304B98426B
:1048A00001D102231EE02F4B984201D1032319E0CE
:1048B0002D4B984201D1042314E02C4B984201D196
:1048C00005230FE02A4B984201D106230AE0294B29
:1048D000984201D1072305E0274B984201D10923D3
:1048E00000E00A2303FA0AF343EA0B03C9F8083489
:1048F000DCF80030A343D1F804905FEAC92900D561
:104900002343CCF80030DCF80430A343D1F8049002
:104910005FEA892900D52343CCF804306B68A343B0
:10492000D1F804905FEA893900D523436B602B6886
:10493000A343D1F804905FEAC93900D523432B6023
:10494000521C0C6834FA02F37FF419AFBDE8F88FFB
:1049500080000058F4440258000002580004025835
:1049600000080258000C02580010025800140258A7
:1049700000180258001C025800240258002A01D0D6
:1049800081617047090481617047000001488068B7
:10499000704700001C00002402488168027811441E
:1049A000816070471C00002410B5032000F0B2F8AD
:1049B00002F0D4F90F490A68C2F303230E4AD35C0C
:1049C00003F01F03D840096801F00F01515C0B4A46
:1049D00001F01F0120FA01F11160094908600F2060
:1049E00000F010F808B1012010BD00F053F80020CD
:1049F00010BD00001844025808DC00082C000024F8
:104A00002800002410B58AB00446102C30D20022B1
:104A100021461C2000F05EF81C2000F04DF81948DB
:104A200004601948016841F001010160006800F06C
:104A30000100009001A902A802F01AF90798C8B174
:104A400002F068F940001149B0FBF1F1491E10482D
:104A50004FF08042026040F2E732C26041600021C4
:104A60000161816003F010F838B101200AB010BD77
:104A70000120FBE702F04EF9E5E7054803F02CF8CA
:104A8000F4E7000020000024E844025840420F00F0
:104A9000A408002482B00748016841F002010160C7
:104AA000006800F00200019000220F21901E02B069
:104AB00000F010B8F4440258002809DB012100F08E
:104AC0001F0291404009800000F1E020C0F8001171
:104AD00070470000F0B40D460D4B1B68C3F3022372
:104AE000C3F10704042C00D90424191D072901D29D
:104AF000002300E0DB1E012606FA04F1491E2940CE
:104B000099409E40761E16403143F0BC07F0BCBC75
:104B10000CED00E000F00701054A10684FF6FF03B6
:104B2000184040EA01200349084310607047000024
:104B30000CED00E00000FA0501680122C0F8D8245D
:104B4000002280F8CC24886940F000608861486DBC
:104B5000024A10434865002070470000030000101F
:104B60007047006841620020704770B50368586A5A
:104B7000002907D09C6A00EB14440020491E4FF422
:104B800082750AE040EA024098620DE005EB80067B
:104B90009E5904EB1644401CC0B28842F6D305EB84
:104BA000810144EA02405850002070BDD0F8E00472
:104BB00006F01BBA01EBC10200EB8202D0F8E00460
:104BC000126A06F03FB901EBC10200EB8202D0F895
:104BD000E004D2F8602206F0A3B9D0F8E00406F0B1
:104BE00006BA0A0601F00F0101EBC10100EB8101D9
:104BF00001D5143101E001F51571006807F066B9BF
:104C000070B504464FF0010201F00F004FF00005AF
:104C10000B0600EBC00104EB810102D514314A7090
:104C200002E001F515714D70087094F894040128A4
:104C300008D084F89424206806F064FE84F8945424
:104C4000002070BD022070BD70B5044601F00F0059
:104C50002279904201D9012070BD0B064FF001026C
:104C600001F00F014FF0000501EBC10104EB8101E0
:104C700002D514314A7002E001F515714D708D7046
:104C8000087094F89404012808D084F894242068CB
:104C900006F09EFF84F89454002070BD022070BD81
:104CA00001F00F0101EBC10100EB8100D0F86802B7
:104CB00070472DE9F04104464FF0010601F00F0066
:104CC0004FF000050F0600EBC00104EB810102D597
:104CD00014314E7002E001F515714D7008708A6054
:104CE0000B714A7802B14883022B00D14D7194F8C0
:104CF0009404012809D084F89464206806F042FDE9
:104D0000284684F89454BDE8F0810220FBE710B5F2
:104D100001F00F0404EBC40100EB810101F51571F2
:104D2000CA600B6100234B614B700C708379012BBF
:104D300000D1CA618279006806F0A2FF002010BD90
:104D400070B504460D4605F00F002179884201D95F
:104D5000012070BD29064FF000064FF0010206D574
:104D600000EBC00104EB810114314A7006E005EB51
:104D7000C50104EB810101F515714E708A70087050
:104D800094F89404012807D084F89424206806F04D
:104D90004BFF280702D007E0022070BDA17904F282
:104DA0009C42206806F0EAFE84F89464002070BDFE
:104DB00010B501F00F0404EBC40100EB81011431C4
:104DC000CA600B6100234B6101234B700C70837927
:104DD000012B00D1CA618279006806F051FF0020E2
:104DE00010BD2DE9F84F04462568284607F018F94C
:104DF00000287ED1206807F03FF9002879D0D5F847
:104E00000808C0F30D20C4F8D404206807F034F972
:104E1000800704D52068416901F0020141612068E2
:104E200007F02AF9C10604F29C40009035D52068AD
:104E3000816921F0100181612F6A07F00F0000EBFA
:104E4000C00004EB800606F51576C7F34340022840
:104E500002D0062812D01BE047F6F070074217D0A8
:104E6000C7F30A12F1681746284607F009F9F068F7
:104E70003844F06070693844706109E00099082294
:104E8000284607F0FDF87069C7F30A1108447061FD
:104E90002068816941F010018161206807F0ECF819
:104EA00000034FF0080B4FF000094FF001085ED5EA
:104EB0000026206807F0BFF8824655E05FEACA7016
:104EC0004FD02068F1B207F0CFF80746F80707D0B7
:104ED00005EB4610C0F8088B3146204603F0E4FF8E
:104EE000380709D505EB4610C0F808BB3146204607
:104EF00000E015E203F0B4FFF80604D505EB461117
:104F00001020C1F8080BB8071CD56869000605D544
:104F1000D5F8040840F48061C5F8041806EBC60013
:104F200004EB800000F51570C178012905D180F8E7
:104F300003902046F1B200F0F9F905EB461002218A
:104F4000C0F8081BB80604D505EB46102021C0F8B0
:104F5000081BB80405D505EB46104FF40051C0F806
:104F6000081B761C4FEA5A0ABAF1000FA6D1206836
:104F700007F082F840036CD5206807F055F88246A8
:104F8000002663E05FEACA705DD02068F1B207F0E6
:104F900059F80746F80723D006F00F0108FA01F088
:104FA000D5F834188143C5F8341805EB4610C0F81D
:104FB0000889A07901280FD106EBC60004EB800018
:104FC000D0E907211144016236B9606A20B920682E
:104FD0000121009A06F0D2FD2046F1B2FFF7EAFD6A
:104FE000380703D505EB4610C0F808B9F80604D514
:104FF00005EB46111020C1F80809780604D505EB29
:1050000046104021C0F80819B80716D53146284681
:1050100006F0D4FF06EBC60004EB80001430C17824
:10502000012905D180F803902046F1B200F07AF909
:1050300005EB46110220C1F80809380603D53146B0
:10504000204603F0A3FF761C4FEA5A0ABAF1000F7C
:1050500098D1206807F010F8002811DAD5F8040874
:1050600020F00101C5F8041894F8CC04012839D0C7
:10507000204600F014FA2068416901F000414161C6
:10508000206806F0F9FF00050BD5D5F80808C00721
:1050900002D0204600F046FA2068416901F4006120
:1050A0004161206806F0E8FF00010AD520684169E7
:1050B00001F00061416194F8CC04D0B1204600F0C9
:1050C00031FA206806F0D8FFC0046ED5D5F8040880
:1050D00020F00101C5F804182068102106F06EFFC9
:1050E00000212DE084F8CC9400212046FFF738FD04
:1050F000C1E784F8CC842068406DC0F38300C4F815
:10510000D00401212046FFF72BFDDAE705EB411023
:105110004FF67F3200F510608260036823F40013BD
:105120000360C0F80822D0F8002222F40012C0F870
:105130000022D0F8002242F00062C0F80022491C90
:1051400020798842E2D8D5F81C0840F00111C5F852
:105150001C18E07B60B1D5F8840840F00B01C5F85D
:105160008418D5F8440840F00B01C5F844180CE049
:10517000D5F8140842F22B010843C5F81408D5F8F5
:10518000100840F00B01C5F81018D5F8000820F4FD
:10519000FE61C5F80018A1792068009A06F0EEFCBF
:1051A0002068416901F480514161206806F064FF84
:1051B000800415D5206806F027FB206806F020FF44
:1051C000E07101F085FDE2790146206806F0BEFF3E
:1051D000204600F04DF92068416901F40051416119
:1051E000206806F049FF000707D5204600F05BF96C
:1051F0002068416901F008014161206806F03CFF28
:10520000000615D5A86920F08001A96101260CE0EF
:1052100006EBC60004EB800090F85702012803D18A
:105220002046F1B2FFF7DDFC761C2079B042EFD8C2
:10523000206806F021FFC0021FD5012615E005EB0E
:105240004610D0F8001906EBC60004EB8000027E81
:10525000012A09D1002907DA80F81780F0B240F05E
:1052600080012046FFF7BDFC761C2079B042E6D8CD
:105270002068416901F480114161206806F0FCFE5C
:10528000800230D5012026E005EB4011D1F8001B4B
:1052900000EBC00204EB820292F85832012B19D1C4
:1052A000002917DA94F8D43401F4803103F00103B3
:1052B00099420FD182F85782A96941F08002AA6110
:1052C0006969090606D4D5F8040840F40070C5F8E9
:1052D000040803E0401C21798142D5D82068416947
:1052E00001F400114161206806F0C6FE400007D5B8
:1052F0002046FFF75BFC2068416901F08041416175
:10530000206806F0B9FE40070AD52068456868079E
:1053100002D52046FFF761FC2068416829434160BF
:10532000BDE8F88FD0F8E00405F0B9BED0F8E0048D
:1053300005F0CABEF8B50446002C04D094F89504D4
:10534000002510B106E00120F8BD84F894542046F1
:1053500000F05CF8032084F89504206806F008FC4F
:10536000207C8DF8000094E80F0006F05BFA02261E
:1053700018B184F895640120F8BD2068002106F07A
:105380009EFE18B184F895640120F8BD0021012724
:105390000CE001EBC10004EB800047750175C1858D
:1053A0000576C56105624562491CC9B2207988420B
:1053B000EFD800210DE001EBC10004EB800000F507
:1053C00015704570017005718560C5600561491CE7
:1053D000C9B220798842EED8207C8DF8000094E88C
:1053E0000F0006F00FFB18B184F895640120F8BD9A
:1053F000657484F89574207B012802D12046FFF75C
:105400009BFB206806F0F0FA0020F8BD10B5B0B0A4
:105410000446B82102A8FBF721F813492068884206
:1054200020D100204FF48021CDE902104FF440102C
:10543000239002A800F016FE08B1FCF7EAF800F08D
:10544000B5F80A48016841F000710160006800F099
:1054500000700190002205214D20FFF73BFB4D20FD
:10546000FFF72AFB30B010BD00000440D8440258BA
:1054700070B504460125E07900280ED0022801D03D
:10548000FCF7C7F8D4F8E004294605F08EFED4F8FE
:10549000E004BDE8704005F041BE0025F2E7D0F819
:1054A000E00405F06BBED0F8E00405F071BE10B565
:1054B000044694F8940401280AD0012084F8940446
:1054C0006174206806F02BFE002084F8940410BD5F
:1054D000022010BDD0F8E02400F29C41104605F0F7
:1054E00070BE10B50446206894F89414012909D0C0
:1054F000012184F89414C168490609D5617B01290A
:1055000002D005E0022010BD816B41F4803181633F
:10551000206806F02DFD206806F058FA002084F877
:10552000940410BD10B50446D4F8E00405F08BFED9
:105530002068D0F8001E41F00101C0F8001EE07A9A
:10554000002804D00248016841F00601016010BD46
:1055500010ED00E070B514490A68D243520708D52F
:10556000096801F00701814201D0012070BD0020CF
:1055700070BD0A6822F0070202430A60FFF706FACC
:105580000446094D4FF47A76083D06E0FFF7FEF930
:10559000001BB04201D9012070BD2868C0438004BF
:1055A000F4D4002070BD00000C4802580248016885
:1055B00041F08071016070470C48025810B501F04D
:1055C00087FB05490968054AC1F30211515C01F0E6
:1055D0001F01C84010BD00002044025808DC00082C
:1055E00010B569490A6802F003020968C1F30511A0
:1055F000654B1B1D1B6803F00103634C0C342468CE
:10560000C4F3CC0414FB03F300EE103AB8EE400AE6
:10561000002971D09FED5D1A9FED5D2A5A4BF7EE80
:10562000000A0833F2B3012A7DD0022A7AD001EEB3
:10563000901A1968F8EE611AC2EE212AC1F3080126
:1056400001EE901AF8EE611A40EE011A31EEA00A4E
:1056500022EE800A1968C1F3462101EE101AB8EE55
:10566000411A31EE201AC0EE011ABCEEE11A80EDAB
:10567000001A1968C1F3064101EE101AB8EE411A7A
:1056800031EE201AC0EE011ABCEEE11A80ED011ACB
:105690001968C1F3066101EE101AB8EE411A71EEF5
:1056A000200A00E006E080EE201ABCEEC10A80ED80
:1056B000020A10BD344A283A1468A4061ED512689E
:1056C000C2F3C104334AE24001EE902AF8EE612AA7
:1056D00001EE901A1968F8EE611A82EEA12AC1F360
:1056E000080101EE901AF8EE611A40EE011A31EE4F
:1056F000A00A22EE000AADE741E014E001EE901AA4
:105700001968F8EE611AC2EE212AC1F3080101EE10
:10571000901AF8EE611A40EE011A31EEA00A22EE5C
:10572000800A97E715E001EE901ADFED1B2A196851
:10573000F8EE611A82EEA12AC1F3080101EE901A77
:10574000F8EE611A40EE011A31EEA00A22EE000ACC
:1057500080E701EE901ADFED112A1968F8EE611A60
:1057600082EEA12AC1F3080101EE901AF8EE611A47
:1057700040EE011A31EEA00A22EE000A6AE700218B
:1057800001604160816010BD28440258000000396A
:105790000024744C0090D0030024744A001BB74BC3
:1057A00010B569490A6802F003020968C1F30531BE
:1057B000654B1B1D1B68C3F30013634C1434246832
:1057C000C4F3CC0414FB03F300EE103AB8EE400A25
:1057D000002971D09FED5D1A5B4BF7EE000A103384
:1057E000F2B39FED5B2A012A7FD0022A7CD001EE22
:1057F000901A1968F8EE611AC2EE212AC1F3080165
:1058000001EE901AF8EE611A40EE011A31EEA00A8C
:1058100022EE800A1968C1F3462101EE101AB8EE93
:10582000411A31EE201AC0EE011ABCEEE11A80EDE9
:10583000001A1968C1F3064101EE101AB8EE411AB8
:1058400031EE201AC0EE011ABCEEE11A80ED011A09
:105850001968C1F3066101EE101AB8EE411A00E0B2
:1058600008E071EE200A80EE201ABCEEC10A80ED3D
:10587000020A10BD344A283A1468A4061ED51268DC
:10588000C2F3C104334AE24001EE902AF8EE612AE5
:1058900001EE901A1968F8EE611A82EEA12AC1F39E
:1058A000080101EE901AF8EE611A40EE011A31EE8D
:1058B000A00A22EE000AADE741E016E001EE901AE0
:1058C000DFED252A1968F8EE611A82EEA12AC1F3EC
:1058D000080101EE901AF8EE611A40EE011A31EE5D
:1058E000A00A22EE000A95E713E001EE901A19686B
:1058F000F8EE611AC2EE212AC1F3080101EE901AF6
:10590000F8EE611A40EE011A31EEA00A22EE800A8A
:1059100080E701EE901ADFED112A1968F8EE611A9E
:1059200082EEA12AC1F3080101EE901AF8EE611A85
:1059300040EE011A31EEA00A22EE000A6AE70021C9
:1059400001604160816010BD2844025800000039A8
:105950000024744A0090D0030024744C001BB74B01
:1059600010B569490A6802F003020968C1F30551DC
:10597000654B1B1D1B68C3F30023634C1C34246858
:10598000C4F3CC0414FB03F300EE103AB8EE400A63
:10599000002971D09FED5D1A5B4BF7EE000A1833BA
:1059A000F2B39FED5B2A012A7FD0022A7CD001EE60
:1059B000901A1968F8EE611AC2EE212AC1F30801A3
:1059C00001EE901AF8EE611A40EE011A31EEA00ACB
:1059D00022EE800A1968C1F3462101EE101AB8EED2
:1059E000411A31EE201AC0EE011ABCEEE11A80ED28
:1059F000001A1968C1F3064101EE101AB8EE411AF7
:105A000031EE201AC0EE011ABCEEE11A80ED011A47
:105A10001968C1F3066101EE101AB8EE411A00E0F0
:105A200008E071EE200A80EE201ABCEEC10A80ED7B
:105A3000020A10BD344A283A1468A4061ED512681A
:105A4000C2F3C104334AE24001EE902AF8EE612A23
:105A500001EE901A1968F8EE611A82EEA12AC1F3DC
:105A6000080101EE901AF8EE611A40EE011A31EECB
:105A7000A00A22EE000AADE741E016E001EE901A1E
:105A8000DFED252A1968F8EE611A82EEA12AC1F32A
:105A9000080101EE901AF8EE611A40EE011A31EE9B
:105AA000A00A22EE000A95E713E001EE901A1968A9
:105AB000F8EE611AC2EE212AC1F3080101EE901A34
:105AC000F8EE611A40EE011A31EEA00A22EE800AC9
:105AD00080E701EE901ADFED112A1968F8EE611ADD
