:020000040800F2
:10000000600D00209D010008A50100081D200008CA
:10001000A9010008AB010008AD01000800000000C4
:10002000000000000000000000000000AF01000818
:10003000B101000800000000B3010008E54200081B
:10004000B7010008B7010008B7010008B7010008B0
:10005000B7010008B7010008B7010008B7010008A0
:10006000B7010008B70100083D070008B701000804
:10007000B7010008B7010008B7010008B701000880
:10008000B7010008B7010008DD020008B701000849
:10009000B7010008B7010008B7010008B701000860
:1000A000C1430008E9430008B7010008B701000890
:1000B000B701000801440008B7010008B7010008B3
:1000C000B7010008B7010008B7010008B701000830
:1000D000B701000815550008B7010008B70100086E
:1000E000B7010008B7010008B7010008B701000810
:1000F000B7010008B7010008B7010008B701000800
:10010000B7010008B7010008B7010008B7010008EF
:10011000B7010008B7010008B7010008B7010008DF
:10012000B7010008B7010008B7010008B7010008CF
:10013000B7010008B7010008B7010008B7010008BF
:10014000B7010008B7010008B7010008B7010008AF
:10015000B7010008B7010008B7010008B70100089F
:10016000B7010008B7010008B7010008B70100088F
:10017000B7010008B7010008B7010008000000003F
:10018000B7010008B7010008DFF80CD000F068F8EC
:100190000048004769560008600D00200648804767
:1001A00006480047FEE7FEE7FEE7FEE7FEE7FEE75C
:1001B000FEE7FEE7FEE7FEE7A54300088901000829
:1001C0002DE9F05F0546002092469B46884606468C
:1001D000814640241BE0284641464746224600F01F
:1001E0002FF853465A46C01A914110D3114618466B
:1001F000224600F016F82D1A67EB01084F462246FA
:100200000120002100F00DF817EB00094E41201EDF
:10021000A4F10104DFDC484631462A464346BDE8E6
:10022000F09F202A04DB203A00FA02F100207047F8
:100230009140C2F1200320FA03F319439040704724
:10024000202A04DB203A21FA02F00021704721FA2B
:1002500002F3D040C2F12002914008431946704792
:10026000064C074D06E0E06840F0010394E8070003
:1002700098471034AC42F6D3FFF78AFFC85F0008F6
:10028000E85F000870B58C1810F8015B15F00703E3
:1002900001D110F8013B2A1106D110F8012B03E01F
:1002A00010F8016B01F8016B5B1EF9D12B0705D427
:1002B0000023521E0DD401F8013BFAE710F8013B70
:1002C000CB1A921C03E013F8015B01F8015B521E8C
:1002D000F9D5A142D8D3002070BD00000D4810B55B
:1002E000016811F0040F09D0016821F00C010160D0
:1002F00004F088F9BDE8104004F046BDD0F80012C3
:1003000021F00C01C0F8001204F07CF9BDE81040A7
:1003100004F03ABD0020014010B4024608460FFA2E
:1003200081FC1CFB0CF40B1413FB03411488644385
:100330008C4224BF10BC704792F8B240C4EB1161EC
:10034000C9B202EB41018A8810BC0CFB02F14FEAF2
:10035000E17C01EB5C41C91361F30F0003FB02F187
:10036000CA1701EB5241C91361F31F4070470000E7
:100370002DE9F041054690F830101A4C002204F0A7
:1003800077FDE61306FA80F14FF4700797FAA7F2AB
:100390007001B2FA82F2D04004EB800082686FF301
:1003A0000F1211438160606840F00100606095F8B1
:1003B00031100022284604F05BFD06FA80F197FA1E
:1003C000A7F2F001B2FA82F2D04004EB800082681A
:1003D0006FF30F1211438160606840F002006060AB
:1003E000BDE8F08100740040084490F83000704788
:1003F00000EB4100B0F9320070470000044801688A
:1004000041F001010160016841F4803101607047F1
:1004100000740040084480F83020704700EB410031
:100420004286704770B504468089012530B1401E70
:100430000004000CA08118BF002501D0284670BD23
:10044000B4F91400217E90FBF1F001B2A06800F035
:100450005FF90120A073F1E7C07B70478360C0E9BA
:10046000001200218173C1737047807B7047C17394
:10047000704710B5044600224068114605F09FF809
:10048000B4F91410606805F0D8F80021206803F072
:100490006EFE00221146206803F0EAFDE28AB4F9FC
:1004A0001210206803F0E4FDE08A218A48434FF4EB
:1004B0007A71B0FBF1F0401CA08110BD016A496A5D
:1004C000826E89B25143CA1701EB12410914C388E5
:1004D000C180427812FB01F212B28280C91A83688D
:1004E00009B219448160104670472DE9F041076A4E
:1004F000002490F875507B6A2246B0F870C02646FA
:10050000A0F870403F68BCF1010F07F0100884BFED
:100510004FF0010C80F879C0B0F86E70B0F872C07E
:10052000B8F1100F5ED09C4594BF4FF000084FF01B
:100530000108A3EB0C0C08FB07CC90F8787000EBDB
:100540008707C7F828C0002D08D900EB820C521C81
:10055000DCF828C0D2B264449542F6D8426A02FB65
:1005600004FCB0F86E2090F8754062439CFBF2F2F8
:100570000A80B0F80CC0A2EB0C0CA0F812C082816B
:1005800090F87820B0F86CC000EB8202926A02FB0F
:100590000CF290F801C002FB0CF2B0F86EC092FBB6
:1005A000FCF2D0F81CC00CFB02F2B0F81AC092FBAF
:1005B000FCF2C281A0F8723090F87820521C80F8CA
:1005C000782090F8782090F875309A4208BF80F82B
:1005D000786090F87920B2B180F87660C278002116
:1005E000027013E09C4534BF4FF001084FF0000843
:1005F000A3EB0C0C08FB17CC90F8787000EB870786
:10060000C7F828C09FE703F0CDFC01460846BDE8C7
:10061000F081000090F875200021002A88BF002298
:1006200009D900BF00EB8103491C9A6290F875302C
:10063000C9B28B42F6D8012180F876107047B0F825
:100640007010491CA0F87010002070472DE9F001CF
:10065000016A00224A62B0F86E204FF0FF33B3FB0C
:10066000F2F28266B0F86C20DFF8A0C002EB8202E2
:100670005200426290F8772001F1180516059CF8A7
:10068000002053191F680CF10702F02492F8008033
:1006900004FA08F827EA080792F80080360C06FAF0
:1006A00008F63E431E6090F877301E059CF8023035
:1006B0002B44D3F800C09578AC402CEA040C340CE1
:1006C000EAB204FA02F24CEA02021A606FF0010286
:1006D0000A61CA6842F00102CA600A6842F0010277
:1006E0000A6090F875200021002A8EBF0023BDE823
:1006F000F001704700EB810C491CC9B2CCF82830DE
:100700008A42F7D8BDE8F00170470000A45F0008F6
:10071000026AC180437813FB01F383804FF6FF73B5
:100720000029B8BF494289B2B8BF591AB0F86E0063
:100730004843B0FBF3F080B2506270470448016850
:1007400011F0100F08BF70471021016004F070BD58
:10075000143C0140002190B14378017800221944F3
:10076000002B09D900EB020C521C9CF802C0D2B23B
:10077000614489B29342F5D801EB1120C1B2084619
:100780007047002141820175417580F8961080F80C
:10079000971080F8981080F8991080F89A1080F8D7
:1007A0001B1180F81C1180F81D117047DDF800C086
:1007B000002818BF80E80E107047000000EB4001D1
:1007C00001EB001210B5084901EB420494F8241023
:1007D000002918BF10BD054951F8200003F012FC94
:1007E000E083208210BD0000CC070020FC05002023
:1007F00010B5044600EB440000EB0412124800213F
:1008000000EB4202114811605160D1601161D18347
:10081000C2F81610C2F81A10118450F8240002F021
:1008200068FB0B48002150F8240002F062FB0948E5
:1008300050F8240003F014FC074850F82400BDE8E9
:10084000104002F0E1BC0000CC07002004060020AC
:1008500008060020FC050020180600207047000054
:1008600010B490F83C20012A02BF022010BC70474F
:10087000012280F83C200A680723D0F800C0092A2A
:1008800018D9DCF80C400A3A02EB420203FA02F2F1
:1008900024EA0202CCF80C200B788A680A3B03EBAE
:1008A000430302FA03F30268D2F80CC043EA0C03D4
:1008B000D36015E0DCF8104002EB420203FA02F2CA
:1008C00024EA0202CCF810200B788A6803EB430379
:1008D00002FA03F30268D2F810C043EA0C03136172
:1008E0000268936B23F4401393630268936BB1F82F
:1008F00010C05B4C04EB0C5C43EA0C0393630A7975
:100900000B7CD21AD21C02EB82021F239340026896
:10091000D2F838C02CEA030393630A790B7CD21A0D
:100920000B88D21C02EB82029BB293400268D2F881
:1009300038C043EA0C0393638A696FF47023DA4288
:100940000268936823F4702393600268936808BF79
:1009500023F440130FD0D1F818C043EA0C0393607E
:100960000268936823F44013936002689368D1F897
:100970001CC043EA0C0393604A7D002A0268536856
:1009800014BF43F4806323F4806353600A7D002A1C
:100990000268536814BF43F4805323F480535360B8
:1009A0004A68012A1BD0022A26D0032A026830D0C6
:1009B000136A6FF30B0313620268136AD1F80CC059
:1009C00043EA0C031362284BD0F800C0254A9C452B
:1009D00004BFD1F800C0BCF1120F2CD125E0026891
:1009E00053696FF30B03536102685369D1F80CC06C
:1009F00043EA0C035361E6E7026893696FF30B0364
:100A0000936102689369D1F80CC043EA0C039361C7
:100A1000D9E7D3696FF30B03D3610268D369D1F8C7
:100A20000CC043EA0C03D361CDE7D2F804C04CF408
:100A3000800CC2F804C0D0F800C09C4508D10968F9
:100A4000102918BF112903D1516841F400015160E8
:100A50004FF0000180F83C1010BC084670470000C1
:100A60000000F0FF002301400020014030B482B0BC
:100A70004FF0000CCDF804C090F83C20012A01BFD3
:100A8000022002B030BC7047012280F83C200A6886
:100A900007230468092A14D9E5680A3A02EB4202DE
:100AA00003FA02F225EA0202E2600B788A680A3B46
:100AB00003EB430302FA03F30268D4682343D360D1
:100AC00011E0256902EB420203FA02F225EA020272
:100AD00022610B788A6803EB430302FA03F302688E
:100AE0001469234313614A681F23072A16D2046836
:100AF000656B521E02EB820203FA02F225EA020241
:100B000062630B790A885B1E92B203EB830302FADD
:100B100003F30268546B234353632DE004680D2AEA
:100B200015D2256BD21F02EB820203FA02F225EAEC
:100B3000020222630B790A88DB1F92B203EB830364
:100B400002FA03F30268146B2343136314E0E56AAB
:100B50000D3A02EB820203FA02F225EA0202E26295
:100B60000B790A880D3B92B203EB830302FA03F37D
:100B70000268D46A2343D362254B0468234A9C420B
:100B800004BF0C68122C03D1546844F480045460F0
:100B900004689C422FD10B68102B18BF112B2AD14F
:100BA000536843F4000353600968102923D119499D
:100BB000194A0968B1FBF2F101EB81014900019189
:100BC000009118D0B1F1004F1BD20029D8BF0021ED
:100BD00005DD11F0010102D0019A521E0192009A26
:100BE000491C521C914206DA019B891C5B1E5B1E4C
:100BF00001939142F8DB80F83CC002B0002030BC89
:100C000070470199491E0191FCD1F4E7002301408E
:100C1000002001405006002040420F0070B5040043
:100C20004FF0000504BF012070BD206C002628B9DC
:100C3000204600F0ADF8666484F83C60206C10F04B
:100C4000100F18BF012503D084F83C60284670BD02
:100C5000206C20F4885040F002002064494841682C
:100C600021F440314160416862681143416020686D
:100C7000416821F48071416020684168226941EA3D
:100C8000022141602068416821F040714160206884
:100C90004168A268114341602068816821F40061C5
:100CA000816020688168E26811438160A06A6FF00A
:100CB0007061C8422068816821F07061816020689D
:100CC000816808BF21F040510BD0A26A11438160B6
:100CD0002068816821F04051816020688168E26A63
:100CE000114381602068816821F0020181602068E1
:100CF0008168227E41EA4201816094F82000002848
:100D00002068416808BF21F400610ED041F4006101
:100D100041602068416821F4604141602068416879
:100D2000194B626A03EB4232114341602068C16A89
:100D300021F47001C1622068C16AA28B134B03EBDE
:100D400002521143C1622068816821F40071816000
:100D50002068816894F8302041EA4221816020684F
:100D6000816821F48061816020688168626941EA5C
:100D7000822181606664206C20F0020040F0010056
:100D8000206461E70023014000E0FFFF0000F0FF66
:100D900070B586B0002500950195029503950495E0
:100DA00003682E492E4A03242E482F4EA3F1804C6F
:100DB000BCF5903C2ED0DFF8B4C063451CBF06B034
:100DC00070BD0B6843F400730B60096801F4007197
:100DD0000591116841F001011160116801F00101F4
:100DE0000591116841F002011160116801F00201E2
:100DF00005914821CDE90014694600F0A7F80120CB
:100E0000CDE90004694602954FEA060000F09EF81D
:100E100006B070BD0B6843F480730B60096801F481
:100E200080710591116841F001011160116801F0B4
:100E300001010591116841F002011160116801F092
:100E4000020105914921CDE90014694600F07EF8C0
:100E5000009469463046CDE90145D7E74438024061
:100E600030380240000002400004024000210140EE
:100E70004379012B04BF0220704730B44FF0010CBE
:100E800080F805C00223037103681C6840F6FE75F4
:100E90009540AC43D1E90051294391402143196069
:100EA00001680B68C02404FA02F223EA02020A6015
:100EB00080F804C00021417130BC0846704700280A
:100EC00004BF0120704770B504460079002518B9A9
:100ED0006571204600F008F802202071256101208C
:100EE0002071002070BD000000B587B00021009186
:100EF00001910291039104910068A0F18041B1F544
:100F0000E8411CBF07B000BD0D48016841F0005129
:100F10000160006800F0005005900A48016841F047
:100F2000010101600068694600F001000590302071
:100F3000009003200190044800F008F807B000BDBD
:100F40004038024030380240000002402DE9F84F9E
:100F500000220127884D03264FF00F080B6807FA7F
:100F600002FC03EA0C03634540F0FF804C68012C4F
:100F700018BF022C03D0112C18BF122C1AD1D0F894
:100F800008904FEA420406FA04FA29EA0A09D1F85D
:100F90000CA00AFA04F444EA09048460446824EAD0
:100FA0000C0C0C79C4F3001404FA02F444EA0C0C9F
:100FB000C0F804C0D0F80C904FEA420CD1F808A059
:100FC00006FA0CF429EA04090AFA0CFA4AEA0909B1
:100FD000C0F80C90D1F80490B9F1020F18BFB9F124
:100FE000120F15D14FEAD20900EB890ADAF820B0C6
:100FF0004FEA42794FEAD96908FA09FE2BEA0E0B4B
:10100000D1F810E00EFA09F949EA0B09CAF8209064
:10101000D0F8009029EA040491F8049009F003093B
:1010200009FA0CFC4CEA040CC0F800C0D1F804C06A
:101030001CF0805F7DD0D5F800C04CF4804CC5F822
:1010400000C0D5F800C00CF4804CCDF800C022F0F0
:10105000030C0CF1804404F59834D4F808984FEA56
:10106000827C4FEA1C7C08FA0CFA29EA0A09A0F1F2
:10107000804ABAF5003A38D0A0F1804ABAF5013A70
:1010800008BF4FF0010A30D0A0F1804ABAF5023A09
:1010900008BF4FF0020A28D0A0F1804ABAF5033AFF
:1010A00008BF4FF0030A20D0A0F1804ABAF5043AF5
:1010B00008BF4FF0040A18D0A0F1804ABAF5053AEB
:1010C00008BF4FF0050A10D0A0F1804ABAF5063AE1
:1010D00008BF4FF0060A08D0A0F1804ABAF5073AD7
:1010E0000CBF4FF0070A4FF0080A0AFA0CFC4CEA52
:1010F000090CC4F808C8214CD4F800C0D1F80490F9
:101100002CEA030C19F4803F18BF4CEA030CC4F816
:1011100000C01B4CD4F800C0D1F804902CEA030C9A
:1011200019F4003F18BF4CEA030CC4F800C0154C7A
:1011300000E01AE0D4F800C0D1F804902CEA030CC7
:1011400019F4801F18BF4CEA030CC4F800C00E4C01
:10115000D4F800C0D1F804902CEA030C19F4001F55
:1011600018BF4CEA030CC4F800C0521C102AFFF44C
:10117000F5AEBDE8F88F000044380240003C014065
:10118000043C0140083C01400C3C0140002A08BFDF
:1011900009048161704700000148806870470000C1
:1011A000440600200248816802781144816070473B
:1011B000440600200B4810B5016841F4007101603D
:1011C000016841F480610160016841F4807101604F
:1011D000032000F087F8042000F006F800F024F85F
:1011E000002010BD003C024070B50D4D04464FF488
:1011F0007A712878B1FBF0F00A490968B1FBF0F088
:1012000000F08AFB48B9102C07D200222146501E5C
:1012100000F036F800206C6070BD012070BD000049
:1012200044060020500600200B4882B0016841F4BB
:1012300080410160006800F4804000900748016828
:1012400041F080510160006800F08050009004205F
:1012500002B000F047B80000443802404038024075
:101260000028B8BF704700F01F01012202FA01F107
:101270004009800000F1E020C0F800117047000034
:10128000174B10B41B68C3F30223C3F1070CBCF166
:10129000040F88BF4FF0040C1C1D072C34BF002323
:1012A000DB1E012404FA0CFCACF1010C0CEA010178
:1012B000994004FA03F35B1E1A40114300284FEAD9
:1012C0000111A1BF00F1E02080F8001410BC7047AC
:1012D00000F00F0000F1E02080F8141D10BC7047F2
:1012E0000CED00E0074900F007000A684FF6FF0325
:1012F0001A4042EA002040F0FD7040F08060086033
:10130000704700000CED00E0002804BF012070478A
:101310002DE9F0474D4E04460F46306801F0FF08B6
:1013200000F00F00B84206D286F80080306800F066
:101330000F00B84261D12068454D10F0020F14D063
:1013400010F0040F03D0286840F4E05028602078A3
:1013500010F0080F03D0286840F460402860286827
:10136000A16820F0F00008432860207810F0010FF9
:1013700037D060683749012823D0022818BF0328D6
:10138000096823D011F0020F37D0296821F003013A
:1013900041EA00002860FFF7FFFE81462868616887
:1013A00000F00C00B0EB810F18BF41F2883A18D062
:1013B000FFF7F2FEA0EB090050450BD90320BDE872
:1013C000F087096811F4003FDFD116E011F0007FCB
:1013D000DBD112E02868616800F00C00B0EB810FEF
:1013E000E6D1306800F00F00B84209D986F80080D5
:1013F000306800F00F00B84202D00120BDE8F0874D
:10140000207810F0040F05D02868E16820F4E0503F
:1014100008432860207810F0080F06D0286821695A
:1014200020F4604040EAC100286000F047F82968D5
:10143000094AC1F30311515CC840084908600848D3
:101440000068FFF7D1FE0020BDE8F087003C0240B5
:1014500008380240003802408C5F00085006002027
:101460004806002001490120C86470470000474237
:1014700001480068704700005006002004480549F4
:1014800000680968044AC1F38221515CC840704772
:1014900050060020083802409C5F000804480549B7
:1014A00000680968044AC1F34231515CC840704782
:1014B00050060020083802409C5F00081848006869
:1014C00010F00C02174808BF70471749042A04BFE0
:1014D00008467047082A18BF704710B5134C226899
:1014E000236802F03F0213F4800F08D02068002325
:1014F000C0F38810A0FB0101FEF762FE07E021683F
:101500000023C1F38811A1FB0001FEF759FE2168F9
:10151000C1F30141491C4900B0FBF1F010BD0000CE
:10152000083802400024F40000127A000438024017
:10153000002804BF012070472DE9F84F04460078C9
:10154000DFF8AC8310F0010FA8F1040558D008F1C2
:101550000400016801F00C01042909D0006800F0C2
:101560000C0008280DD1D8F8000010F4800F08D026
:10157000286810F4003F43D06068002800F0B18173
:101580003EE06068B0F5803F19D0B0F5A02F286824
:101590000CBF40F4802020F48030286028680CBF05
:1015A00040F4803020F4802028606068B8B1FFF7F4
:1015B000F3FD0646286810F4003F05D020E02868B7
:1015C00040F480302860F0E7FFF7E6FD801B6428D8
:1015D00000F22781286810F4003FF5D010E0FFF7F3
:1015E000DBFD0646286810F4003F09D0FFF7D4FD64
:1015F000801B642800F21581286810F4003FF5D1A3
:101600002078BC4F10F0020F47D0BB48016811F0A2
:101610000C0F16D0006800F00C00082804BFD8F8A2
:10162000000010F4800F0CD0E06820B34FF00100F0
:101630003860FFF7B1FD0646286810F0020F09D0A8
:1016400011E0286810F0020F1CBFE06801280AD0E2
:1016500000F047B9FFF7A0FD801B02287ED828685C
:1016600010F0020FF6D02868216920F0F80040EA57
:10167000C100286011E000203860FFF78DFD0646AC
:10168000286810F0020F08D0FFF786FD801B0228A3
:1016900064D8286810F0020FF6D1207810F0080FF7
:1016A0002AD09648964E616999B101210160FFF7F1
:1016B00073FD8146306810F0020F1DD1FFF76CFDFD
:1016C000A0EB0900022849D8306810F0020FF5D0CD
:1016D00012E000210160FFF75FFD8146306810F0E5
:1016E000020F09D0FFF758FDA0EB0900022835D8FA
:1016F000306810F0020FF5D1207810F0040F77D089
:1017000080484FF0000B006810F0805F0AD17D48E0
:10171000016841F08051016000684FF0010B00F05A
:1017200080500090784E306810F4807F14D130687B
:1017300040F480703060FFF72FFD8146306810F470
:10174000807F09D1FFF728FDA0EB0900022868D8A7
:10175000306810F4807FF5D06C4E00E061E0A06846
:1017600001281BD0052830680CBF40F0040020F091
:101770000100306030680CBF40F0010020F0040030
:10178000C6F80000A06841F2883AB8B1FFF704FD3E
:101790008146306810F0020F05D021E0306840F03B
:1017A00001003060EEE7FFF7F7FCA0EB09005045C1
:1017B00037D8306810F0020FF5D011E0FFF7ECFCDD
:1017C0008146306810F0020F0AD000BFFFF7E4FC3A
:1017D000A0EB0900504524D8306810F0020FF5D175
:1017E000BBF1000F04D04748016821F0805101602F
:1017F000A069E8B34049096801F00C01082950D0FC
:1018000002284FF0000038660ED0FFF7C5FC0446F2
:10181000286810F0007F67D0FFF7BEFC001B02288D
:101820003AD90320BDE8F88FFFF7B6FC06462868D2
:1018300010F0007F09D000BFFFF7AEFC801B02282C
:10184000EFD8286810F0007FF6D1D4E907010843EB
:10185000A16A2F4A490802EB0141626A41EA8211FA
:10186000084394F82C1040EA0160C8F8000000E03A
:101870003AE001203866FFF78FFC0446286810F034
:10188000007F31D1FFF788FC001B0228C9D82868E7
:1018900010F0007FF6D027E0286810F0007FBBD161
:1018A00022E0012808BFBDE8F88FD8F80000E269FF
:1018B00000F48001914214D1226A00F03F0191426C
:1018C0000FD147F6C071626A0140914209D1A26A04
:1018D00000F44031914204D1E16A00F07060884226
:1018E00002D00120BDE8F88F0020BDE8F88F00008D
:1018F000043802400000474208380240800E474248
:101900007438024040380240007000407038024095
:101910000000FFFF70470000411EB1F1807F24BF2F
:10192000012070474FF0E0204161054AF02182F824
:10193000141D002181610721016100207047000012
:101940000FE000E010B5FFF7E5FF10BD90F83C2078
:10195000012A04BF02207047012280F83C20CA6897
:101960008B6822F440721A434B6822F480621A4357
:101970000B6822F400621A430B6922F480521A4366
:101980004B6922F400521A43C96922F48042114380
:1019900002685164002180F83C100846704790F8B6
:1019A0003C20012A04BF0220704730B4012380F894
:1019B0003C30022280F83D2002685468D2F808C00A
:1019C0000D6824F070042C4354600268A2F1804436
:1019D000B4F5803418BFB2F1804F1DD0A2F180441D
:1019E000B4F580641CBFA2F18044B4F5006413D048
:1019F000A2F18044B4F540641CBFA2F18044B4F568
:101A0000823409D0A2F18044B4F5A0341CBFA2F105
:101A10008044B4F5C05405D149682CF0800C41EAEB
:101A20000C01916080F83D30002180F83C1030BC02
:101A300008467047002804BF0120704710B50446CF
:101A400090F83D0028B9002084F83C00204600F0C2
:101A50000DF8022084F83D00211D206802F0E2FC10
:101A6000012084F83D00002010BD000000B587B0C3
:101A70000021009101910291039104910068A0F16D
:101A80008041B1F580311CBF07B000BD0F4801682F
:101A900041F001010160006800F0010005900C4870
:101AA000016841F0020101600068694600F002002F
:101AB00005904FF480500090022001900120029088
:101AC00004900448FFF742FA07B000BD44380240D2
:101AD0003038024000040240002804BF0120704753
:101AE00070B5044690F83D000D4628B9002084F8F2
:101AF0003C00204600F048F8022084F83D002068B1
:101B0000816821F0070121F480418160211D206856
:101B100002F088FC206883688269016AD5F800C0F9
:101B200022F00302AE694CEA030322F4407242EA57
:101B30000622D5F808C0EE694CEA020222F0FC0247
:101B400022F47C42D5F80CC042EA06224CEA02029A
:101B5000D5F810C02E6A4FEA0C1C4CEA063C4CEA41
:101B60000202D5F804C06D6921F0AA0141EA05110D
:101B70004CEA0101836020688261206801620120D3
:101B800084F83D00002070BD00B587B000210091B1
:101B900001910291039104910068A0F18041B1F597
:101BA00080611CBF07B000BD0E48016841F0020112
:101BB0000160006800F0020005900B48016841F0E8
:101BC000040101600068694600F004000590C0202F
:101BD00000900220019004900448FFF7B7F907B085
:101BE00000BD00004038024030380240000802408A
:101BF00030B587B0002100910191029103910491C9
:101C00000068A0F18041B1F580311CBF07B030BD44
:101C10001548016841F001010160016801F001010E
:101C20000591016841F0020101600068022400F0A2
:101C3000020005904FF4E060CDE900040125029414
:101C400069460A48CDE90345FFF780F94FF4604043
:101C5000CDE90004029469460548CDE90345FFF744
:101C600075F907B030BD0000303802400000024076
:101C70000004024090F83C30012B04BF0220704762
:101C80002DE9F001012480F83C40022380F83D302A
:101C90008A4BDFF82CC242B1042A49D0082A7DD0F1
:101CA0000C2A00F0CE8000F0FFB80268156A25F01B
:101CB00001051562156A56689769D1F8008027F00A
:101CC000730748EA0707D1F8088025F0020548EABB
:101CD00005059A4218BF624507D1D1F80C8025F05E
:101CE000080548EA050525F004059A4218BF624533
:101CF00009D1D1F814C026F440734CEA0303D1F89B
:101D000018C04CEA0306566097614B68536315622E
:101D10000268936943F0080393610268936923F0B2
:101D20000403936102689369096943EA010143E08E
:101D30000268156A25F010051562156A56689769DC
:101D4000D1F8008027F4E64747EA0827D1F8088051
:101D500025F0200545EA08159A4218BF624507D1CB
:101D6000D1F80C8025F0800545EA081525F04005DE
:101D70009A4218BF624509D1D1F814C026F44063D5
:101D800043EA8C03D1F818C043EA8C065660976189
:101D90004B68936315620268936900E00EE043F4B8
:101DA000006393610268936923F48063936102681E
:101DB0009369096943EA0121916175E00268156A36
:101DC00025F480751562166A5568D769D1F80080C8
:101DD00027F0730748EA0707D1F8088026F4007651
:101DE00046EA08269A4218BF624507D1D1F80C800E
:101DF00026F4006646EA082626F480669A4218BF52
:101E0000624509D1D1F814C025F4405343EA0C13BC
:101E1000D1F818C043EA0C155560D7614B68D363FD
:101E200016620268D36943F00803D3610268D3697C
:101E300023F00403D3610268D369096943EA01010D
:101E400031E00268156A25F480551562176A5568F5
:101E5000D669D1F8008026F4E64646EA0826D1F88D
:101E6000088027F4005747EA08379A4218BF6245AE
:101E700005D1D1F814C025F4804343EA8C15556090
:101E8000D6614B68136417620268D36943F4006338
:101E9000D3610268D36923F48063D3610268D36994
:101EA000096943EA0121D16180F83D404FF000010A
:101EB00080F83C10BDE8F001084670470000014082
:101EC00000040140002804BF0120704710B50446FB
:101ED00090F83D0028B9002084F83C00204600F02E
:101EE0000CF8022084F83D00211D206802F09AFAC7
:101EF000012084F83D00002010BD704770B50446F5
:101F000090F83C00012804BF022070BD012584F830
:101F10003C50022084F83D00204602F0E9FA01001E
:101F20004FF0000005D084F83D5084F83C000120BB
:101F300070BD2168CA6822F04002CA602168CA6880
:101F400022F48042CA6084F83D5084F83C000020AE
:101F500070BD002804BF0120704770B5044690F89A
:101F60003900002520B984F83850204600F022F8C6
:101F7000242084F839002068C16821F40051C16030
:101F8000204602F04BFD2068016921F49041016177
:101F90002068416921F02A0141612068C16841F44B
:101FA0000051C160E563202084F8390084F83A00CC
:101FB000002070BD00B587B0002100910191029111
:101FC000039104910068A0F18041B1F588311CBFF4
:101FD00007B000BD0E48016841F0100101600068C3
:101FE00000F0100005900B48016841F0020101600B
:101FF0000068694600F002000590C02000900220B1
:102000000190072004900448FEF7A0FF07B000BD30
:1020100044380240303802400004024082B002F0EE
:10202000E1FA184CD4F82001006810F0080F0AD02B
:10203000144802F0C3FDD4F8200101680091406803
:10204000009003F033F9D4F82001006810F0800FFD
:102050001CBF0C4802F05BFED4F82001016811F0AF
:10206000200FDFD04068C1B2064802F0B1FD008801
:10207000012804D0022808BF03F018F9D2E703F0C2
:102080000FF9CFE7B4040020012908BF002115D0C3
:10209000042908BF012111D0102908BF02210DD049
:1020A000402908BF032109D0B1F5807F08BF042172
:1020B00004D0B1F5806F0CBF05210621084B183004
:1020C0005B5C1844D0F800C0064B595C73238B400E
:1020D0002CEA030302FA01F1194301607047000082
:1020E000B25F0008B95F000810B50446406802F00E
:1020F00010F8A168086110BD0068012102F073B8F2
:10210000002808BF704710B50446007E012818BF9C
:1021100010BD217B0020012904D0022910D0032901
:102120001ED026E0A16881F824000121606802F039
:102130001EF8E28AB4F90E10606801F099FF0CE015
:10214000A16881F824000021606802F010F8E28A9A
:10215000B4F91010606801F08BFF50B1022009E063
:10216000A168012081F82400A068D4F81210016150
:10217000F4E70320207610BD01230373C181C282DE
:10218000037643767047022303730182C2820121E2
:102190000176002141767047006801F0F2BF10B56A
:1021A000406801F0CCFFBDE8104001F0E8BE407E81
:1021B0007047806800687047806840687047806832
:1021C000C0687047806800697047027B0021012A5F
:1021D00008BFB0F90E1008467047406801F0A3BF71
:1021E000006801F0F9BF8068B0F91E007047806890
:1021F000D0F81A0070478068D0F8160070478360E6
:10220000C0E9001200210173C1810182C1820176FF
:1022100070470322027341820914818201210176F1
:1022200000214176704782685182806881827047C0
:1022300010B504460068032101F0D5FF00281CBF3B
:102240000121217610BD0068072101F0CCBF406854
:1022500001F093BF014661F30F0044F6E61211FB53
:1022600002F244F6E61311FB23F10A4411444942F9
:10227000C913B1F5004FA8BF47F6FF7104DA11F595
:10228000004FB4BF054909B261F31F4011F5004F7B
:1022900004BF48F2010161F31F4070470080FFFF57
:1022A00070B50546084600F059F82AB203B212FB91
:1022B00003F14FEA254C05141CFB05F0081AC01366
:1022C0001649B0F5004FA8BF47F6FF7004DA10F5C5
:1022D000004FB4BF084600B260F30F04104E10F573
:1022E000004F08BF66F30F0412FB05F01CFB03F25E
:1022F0001044C013B0F5004FA8BF47F6FF7103DAD2
:1023000010F5004FA8BF01B2204661F31F4011F540
:10231000004F08BF66F31F4070BD00000080FFFF44
:102320000180FFFF10B50446084600F017F814FBC3
:1023300000F12214031412FB03FC61444FEAE13C58
:1023400029466CF30F0114FB03F312FB00F0C01AD3
:10235000C01360F31F41084610BD000000F50041A6
:10236000890911F4407C00F50041C1F38712174937
:10237000C2F1FF0319D0BCF5807F1FD0BCF5007FF0
:102380000AD0BCF5407F18BF704731F8133031F8E0
:10239000121063F31F400FE031F8122031F81310D0
:1023A00062F31F4061F30F00704731F8122031F8DB
:1023B0001310524262F31F404942F3E731F81330E1
:1023C00031F812105B4263F31F40EBE7F65C000844
:1023D000F8B58C460446DDE90710069FC4F830C006
:1023E000C4E9300108481E4615460090074B084ACC
:1023F00021466046FEF7DAF9E763C4E90D56204648
:1024000000F096FBF8BD0000152400081D2400080C
:10241000292B000810B500F08BFB10BD2DE9F04111
:1024200005468CB00020984614460E468DF80400F0
:102430004F0914D07A1E0021284602F04FFF0028D1
:1024400004BF0B208DF8280000F05983D5F8C40094
:1024500006F01F0618B17A1E002102F03FFF132E6E
:1024600080F04B83DFE806F0C20AB0C1C0C0BFBE37
:10247000BDBCBBBAB9B8C0C0C0C0C2002678052078
:102480008DF82800472E70D028DC0F2E7ED00BDC74
:102490000F2E6BD2DFE806F055929263927A7A7A29
:1024A0007A7A7A7A7A7A7A00172E6FD009DCA6F1D6
:1024B000100007285AD2DFE800F072728181696942
:1024C00069001D2E5BD004DC182E5FD01C2E4ED070
:1024D00074E0412E5AD0462E61D06FE0652E55D063
:1024E0001EDC572E52D00EDC542E4FD006DC482E68
:1024F00055D04F2E18BF532E48D05FE0552E18BF31
:10250000562E5BD142E05B2E49D004DC582E18BF1A
:10251000592E53D13AE0612E18BF642E4ED135E0CA
:10252000A6F17400152849D2DFE800F019393939CD
:102530003939484848393948484848484848303087
:102540003000647831462246D5F8C40002F0C6FE59
:1025500022463146284602F0C1FE00F029BA6278D0
:102560003146284602F0BAFE22E218E026E0627800
:102570000021D5F8C40002F0ACFE012018E2627818
:102580000121D5F8C40002F0A4FE7FE16078A178B3
:1025900000EB01223146284602F0A0FE08E26078F6
:1025A000A178227900EB0120E178090401EB0261B6
:1025B00042183146284602F091FEF9E15FF0020030
:1025C0008DF8280000F09BBA217803208DF82800B0
:1025D000892980F094820AE0D7E16EE256E244E273
:1025E0001CE2E8E1BEE18EE187E282E115E28800CB
:1025F000784440688744000024020000BE020000C6
:102600002402000024020000BE0200009802000024
:102610009802000098020000980200009802000052
:102620009802000098020000980200009802000042
:102630009802000098020000980200009802000032
:102640009802000098020000980200009802000022
:102650009802000098020000980200009802000012
:102660009802000098020000480200007402000076
:10267000BE020000980200009802000098020000CC
:102680002402000006050000060500000605000003
:10269000060500000605000006050000060500000E
:1026A00006050000060500000605000006050000FE
:1026B00006050000060500000605000006050000EE
:1026C00006050000060500000605000006050000DE
:1026D00006050000060500000605000006050000CE
:1026E00006050000060500000605000006050000BE
:1026F000060500000605000006050000980200001F
:10270000060500000605000006050000060500009D
:10271000BE020000BE020000BE02000098020000DF
:1027200098020000980200009802000024020000B5
:10273000BE0200009802000098020000980200000B
:102740009802000098020000980200009802000021
:102750009802000098020000980200009802000011
:1027600024020000BE0200000605000098020000DE
:1027700098020000980200009802000098020000F1
:1027800006050000060500009802000098020000FF
:102790002402000024020000BE020000BE0200006D
:1027A000BE020000BE020000BE02000024020000C3
:1027B0009802000098020000BE020000060500001A
:1027C000980200009802000024020000BE020000EF
:1027D000BE020000BE020000BE020000BE020000F9
:1027E000BE020000BE020000BE020000BE020000E9
:1027F000BE020000BE020000240200000605000028
:1028000024020000E4020000E4020000E4020000F0
:1028100098020000980200009802000001AA2846D1
:1028200002F026FB00909DF80400002800F0708163
:10283000D5E90C0C01236A46F02100F03AB900BF3B
:10284000D5F8C400002800F05A81002102F006FBF0
:102850008DF80000D5E90C0C01236A46F021E04711
:1028600001208DF804000CB0BDE8F081D5F8C4005B
:10287000002800F04481012102F0F0FA8DF80000F8
:10288000D5E90C0C01236A46F021E04701208FE0D6
:1028900001AA284602F0ECFA00909DF804000028F6
:1028A00000F03681D5E90C0C02236A46F021E0479E
:1028B0000CB0BDE8F08101AA284602F0D9FA0090D8
:1028C0009DF80400002800F02381D5E90C0C0423B6
:1028D0006A46F021E0470CB0BDE8F08101AA284625
:1028E00002F0C6FA00909DF804000028EDD100F037
:1028F0000FB9217807208DF82800284602F054FAF5
:102900008DF80400FBE0002002A902460A54401C96
:10291000C0B22028FAD3002005E00B18401CC0B23A
:10292000DA701D2804D2D5F8C020125C092AF4D12F
:10293000D5F8C020411D2023515C8DF80810C11D21
:102940000930515C8DF80910D5F8C01002AA085C56
:102950008DF80A00D5E90C0CF021E04701208DF834
:102960000400CFE020796179E37800EB012082B2A6
:102970002078617800EB0120A178090401EB036164
:102980000144284602F048FA12E020796179E378A0
:1029900000EB012082B22078617800EB0120A17861
:1029A000090401EB0361084401B2284602F04CFA25
:1029B0008DF80400A3E005A80090217806AB04AAD6
:1029C000284602F00DFCBDF918005449C0EB001078
:1029D000800081FB00108110A1EBE0708DF80800F1
:1029E000010A8DF80910010C8DF80A10000E8DF8FF
:1029F0000B00BDF814008DF80C00000A8DF80D00D6
:102A0000BDF810008DF80E00000A8DF80F00D5E912
:102A10000C0C082302AAF021E04770E0E079227A4A
:102A2000237900EB02201FFA80FC6078A2782178DD
:102A300000EB0220E278120402EB0362104400EB88
:102A400080004200364B0020C3FB02025011A0EB75
:102A5000E27003B26079A27900EB022000B200902C
:102A60006246284602F0E2FCA2E720786178E2782C
:102A700000EB012001B2A07800EB022002B2284650
:102A800002F01AFC01208DF804003BE00C208DF8C8
:102A9000280002948DF80C80224902A802F0E6F981
:102AA0008DF8040058B31F48F02103790268D5E976
:102AB0000C0CE0470CB0BDE8F081002002A904E056
:102AC0000A54401CC0B220280DD2D5F8C020125C98
:102AD000002AF5D1202838BF002204D20A54401C15
:102AE000C0B22028FAD3D5E90C0C20230A46F021E5
:102AF000E04701208DF8040004E0012060E59DF826
:102B0000040028B10023D5E90C0C1A46F021D0E7C7
:102B1000D5E90C0C01230AAAFF21CAE7676666669D
:102B2000898888880C00002010B500F001F810BDDD
:102B300010B50446006BE16B8847802084F8C8001C
:102B4000A16B206BBDE810400847000001480068F9
:102B5000FFF746BB0400002006480078002808BFA5
:102B6000704710B500F008F801F0DCFEBDE8104039
:102B700002F076BBF005002010B50E4C207801283D
:102B800018BF10BD608800281CBF6088401E02D19D
:102B900001F09EFD01206080A08810B1A088401E39
:102BA000A080E088002808BF10BDE088401EE080BB
:102BB00010BD0000F005002001480068FFF738BB99
:102BC0000400002001480068FFF73DBB040000201E
:102BD0002DE9F35F594801F001FB594E002406F13D
:102BE0003001347057480860A1F108085648C8F809
:102BF000000000F0A1FC03F00BF8544800F06FF95E
:102C000006F1100B5148CBF8000006F10C055048B6
:102C100028605048FDF71AFD4E4B4F4A4F4829682F
:102C2000FDF71CFC05F110014C480860DBF80010B2
:102C3000484A286801F08BFA474802F0BCFC484833
:102C400000F04DF9474800F04AF905F108094448F9
:102C5000C9F8000005F10C0A4248CAF800004248D1
:102C6000306201F081F905F1200140480860316AC5
:102C70003F4FC0E943713F4800F006F905F11800E5
:102C80003C49016005F128013B48086001F0E6F885
:102C90000020FDF7ADFD012087F82400286801F031
:102CA00038FA3861286801F034FA0014B88207F164
:102CB00028002F1FA0F12803386005F12C012A6895
:102CC000FFF79DFA286801F034FA3B6801460022BC
:102CD0001846FFF751FA0098396801602748DBF879
:102CE00000100160D9F800104160DAF80010C0E966
:102CF0000214D8F80010C0E904141649C0E90614FB
:102D000004622968416205F12C0181621439096865
:102D1000C162316AC0E90C1405F1200184630968BD
:102D2000C0E90F1444648464C464046501990860B4
:102D30000120307002B0BDE8F09F0000280600209E
:102D4000F005002000040020E00100202801002000
:102D5000AC010020940200205C020020100300203F
:102D600054010020800100205403002014000020A2
:102D7000CC0700202C030020E803002010080020CE
:102D8000B0F80031002220F81310B0F80031A0F89C
:102D900002315B1C9BB2A0F80031802B24BF0023C2
:102DA000A0F800315FF0000330F913C05B1C9BB248
:102DB0006244802BF8D3D31702EB5362D211A0F8F0
:102DC00004210846704700210A4620F81120491CBA
:102DD00089B28029F9D3A0F80021A0F80221704718
:102DE000B0F904017047000008B5FEF741FB4FF44D
:102DF000FA61B0FBF1F0FEF78FFD0749081FFFF7FE
:102E0000E7FE02F079FE044B04481A1F00900121EE
:102E1000101F02F027FB08BD08000020D25C00084C
:102E200010B504460078002818BF002012D194F88D
:102E3000260000F02FFFA0F57F41FF3907D0218B3E
:102E4000238A4A1E03FB0200B0FBF1F020822046D9
:102E500000F02CF8E08280B210BD002101827047A2
:102E60000178002918BF808A01D000B27047018A1A
:102E7000026A891AB0F91E20808C5143CA1701EBEF
:102E8000124100EB2140F0E710B50446007820B174
:102E90000020E082608A208210BD201D00F05CFFCF
:102EA00084F826002046FFF7D8FF10BD018A428B28
:102EB000914284BF08207047828B8A428CBF0020D9
:102EC000C08A7047B0F922007047B0F90600704719
:102ED000408B7047B0F904007047008B7047018841
:102EE00081804188C180018C4184002181608162A0
:102EF00070478160704741847047C180704781800E
:102F00007047000070B4B0F90420002402FB01F601
:102F1000B0F90620B0F914C0B0F91630002A04BF89
:102F20000021816014D085684A43A91805D5002D79
:102F3000C4BF002A6FF0004103E0002DBCBF002A8F
:102F40000F49C2688A42A5BF0269914282608160CE
:102F5000827F8168057F41FA02F246FA05F52A442C
:102F60006245C4BFACEB0204624603DC9342C4BFBB
:102F70009C1A1A462144816070BC10B27047000050
:102F80000100008070B5D0F80C110446C868D1F873
:102F9000161010FB01F210FB3121C81701EB104095
:102FA0000514D4F8100102F0EBFAD4F808114843E4
:102FB0004FF4167190FBF1F0684300EB40000849B4
:102FC000400081FB00108110A1EBE071C81701EBFC
:102FD000104001142046BDE87040FFF7D1BE00004C
:102FE00067666666C169084770B50446002511B179
:102FF000012908D017E000F007F9B4F85200A4F84E
:10300000440080B90BE0B4F84400002808BF012553
:1030100009D0401E0004000CA4F8440003D121692B
:10302000204688470125284670BD4268104730B4C5
:10303000038E0AB253430A14B0F850104A435200A8
:10304000524202EB030CA2EB03030CEBDC7C03EB20
:10305000D3735FEA6C0C4FEA63034FEA910153D5D7
:10306000002B18DA042280F83A20ACEB0302D417C4
:1030700002EB943201EBA241DA1703EBD23201EBFF
:1030800062434FEAEC720CEBD232A1EB624CA0F837
:103090003CC0C1876CE0002A1BDC4FF0030C80F8B9
:1030A0003AC0A2EB030C4FEAEC740CEB943C01EB3E
:1030B000AC414FEAE37C03EBDC334FEAE27C01EB0B
:1030C000634302EBDC32A3EB624CA0F83CC0C38745
:1030D00017E0022380F83A30ACEB0203DC1703EB75
:1030E000943301EBA3414FEAEC730CEBD333A1EB28
:1030F000634CD31702EBD3320CEB62438387A0F807
:103100003EC0A0F8401052E0002B17DB012280F8EF
:103110003A20ACEB0302D41702EB943201EBA2414C
:10312000DA1703EBD23201EB62434FEAEC720CEB9D
:10313000D2328387A1EB624CC18736E0002A1ADCC9
:10314000052380F83A30ACEB0203DC1703EB943331
:1031500001EBA3414FEAEC730CEBD333A1EB634CCF
:10316000D31702EBD33281870CEB6243A0F83EC049
:10317000A0F840301BE04FF0000C80F83AC0A2EB02
:10318000030C4FEAEC740CEB943C01EBAC414FEABE
:10319000E37C03EBDC3301EB63434FEAE27C02EBBD
:1031A000DC328187A3EB624CC387A0F840C089B2B0
:1031B0009AB2418682861FFA8CF3C386B0F84EC05D
:1031C000BCF1010F02D0816930BC0847B0F948C09A
:1031D000BCF1000FB0F854C0CCBF6144A1EB0C01AE
:1031E0004186B0F94A1000291FFA8CF1CCBF114476
:1031F000511A8186B0F94C1000291FFA8CF1CCBF0E
:103200001944591AC186DEE781680847816F91F831
:103210008F20022A0DD1CA68098B09049161826F3F
:103220001169928B12048A61816F4A69098C0904C1
:103230009161012180F87410463070472DE9F04704
:103240000446806F00278568E7652766676684F80F
:103250007370286A20F0550020F4A060286240496D
:10326000616040490326A16184F87260204684F8B9
:103270003A6000F012FCA06F04F1730304F138010E
:1032800090F88E20284602F0F3FC204600F0DCFB8C
:1032900084F873703449616084F87270204684F851
:1032A0003A7000F0FAFBA06F04F1730304F13801E7
:1032B00090F88E20284602F0DBFC204600F0C4FB8C
:1032C000E06D2C4BC108E165206E05F11809C108BD
:1032D0002166606EC1086166244961602449A1616C
:1032E000187800EB09021168D81D4FF0080890F813
:1032F00000C008FA0CFC21EA0C01116099784944DD
:10330000D1F800A0877808FA07F72AEA070AC1F877
:1033100000A01B794B44D3F80090007908FA00F81C
:1033200029EA08001860B4F870006863B4F8700007
:10333000A863B4F87000E863106840EA0C001060FD
:10334000086838430860186840EA0800186084F884
:103350003A60296A40F2555008432862BDE8F08778
:10336000A53400087F390008FB34000879330008D1
:10337000C3390008B25F000870B4826F9268136AA4
:1033800023F48053136290F83AC02422836F02EB37
:103390008C029A5814684FF6FF7202EA44053C24E6
:1033A00004EB8C041B591B6802EA43043C4A530C8F
:1033B000BCF1060F66D2DFE80CF01D414103031D8E
:1033C000D0F85CC0ACEB050C1CF5004FD8BF0A80F0
:1033D00005DDBCF5004FACBF0B80A1F800C0D0F8F4
:1033E00060C0ACEB040C1CF5004F47DDBCF5004F92
:1033F0003FDA45E0D0F860C0ACEB050C1CF5004F9F
:10340000D8BF4A8005DDBCF5004FACBF4B80A1F8AA
:1034100002C0D0F864C0ACEB040CB1F90240A44483
:10342000CCF1000CBCF5004FA8BF0B802ADA1CF5CC
:10343000004FD4BF0A80A1F800C023E0D0F85CC0E0
:10344000ACEB050C1CF5004FD8BF0A8005DDBCF5C0
:10345000004FACBF0B80A1F800C0D0F864C0ACEB4B
:10346000040CB1F90040A444CCF1000CBCF5004FB1
:1034700001DB4B8006E01CF5004F01DC4A8001E0D7
:10348000A1F802C00A88A0F848204A88A0F84A207B
:103490000A88498811444942A0F84C1070BC704712
:1034A0000180FFFF826F9268136A23F480531362D6
:1034B00090F87320102A1CD290F872304FF0240C30
:1034C000826F0CEB8303D2581268C36D4FF03C0C33
:1034D0001A44C26590F87230826F0CEB8303D258A5
:1034E0001268036E1A44026690F87320521C80F82A
:1034F00073200020088048807047826F9268136AAA
:1035000023F48053136290F87320102A10D290F89D
:1035100072304FF03C0C826F0CEB8303D258126870
:10352000436E1A44426690F87320521C80F8732050
:10353000002008804880704730B4836F9968D3E9D1
:103540000023D1F800C02CF0010CC1F800C0D0F865
:1035500078C09CF890C0BCF1000F09D06FF0800CCF
:10356000C1F810C0D1F80CC04CF0800CC1F80CC0F0
:10357000D1F814C04CF0010CC1F814C0D0F878C0D8
:103580009CF88C40022C05D090F846C0BCF1000F8E
:1035900017D01CE09CF88D40012C04BF9CF88EC015
:1035A000BCF1030F0DD14FF0010CC1F830C0D1F8C0
:1035B00014C04CF0010CC1F814C04FF0030CC1F85A
:1035C00030C0B0F870C0ACF1010CC1F824C00C6A76
:1035D00040F2555C44EA0C0CC1F820C0DFF86CC026
:1035E000A1F180454FF48014DCF80C10B5F580355E
:1035F0000CBF41F0010141F00201CCF80C100EBFEC
:1036000084664FF4F0118166916841F00101916088
:10361000996841F0010199606FF0040111605168EF
:1036200041F080015160D16A21F47001D162916B47
:1036300021F440119163996B21F4401199630021A9
:10364000C466A0F84E1030BC70470000002004E0B3
:1036500090F874200021012A03D14021002280F833
:10366000742008467047000070B50546806F846876
:1036700095F84700012818BF70BD6022012120463F
:10368000FEF702FD206A40F001002062A86F90F86A
:103690008F00012804BF206A40F0040005D00228F2
:1036A00004BF206A20F0040000D12062B5F8700049
:1036B00040086063602210212046FEF7E5FC206A86
:1036C00040F010002062A86F90F88F00012804BF1E
:1036D000206A40F0400005D0022804BF206A20F094
:1036E000400000D12062B5F870004008A06360225D
:1036F0004FF480712046FEF7C7FC206A40F48070CA
:103700002062A86F90F88F00012804BF206A40F45F
:10371000806005D0022804BF206A20F4806000D1B8
:103720002062B5F870004008E0630648686006480B
:1037300068610648E8600648A860002085F84700F0
:1037400070BD000079330008493C00089B3A00082E
:10375000493A000870B50546806F846895F84700BF
:1037600000283ED1602201212046FEF78DFC206A10
:1037700040F001002062206A20F004002062002056
:103780006063A86F90F88F00012802D002280DD046
:1037900019E0102211462046FEF776FC206A20F040
:1037A00010002062206A40F040000BE0202210212F
:1037B0002046FEF769FC206A40F010002062206A73
:1037C00020F04000206270224FF480712046FEF706
:1037D0005BFC206A20F480702062206A20F4806004
:1037E000206206486860064868610648E860064846
:1037F000A860012085F8470070BD0000413800082E
:103800003939000889380008493A0008836FB0F850
:1038100070C002469B680CFB01F1090C418659639C
:10382000032180F83A10186A10F4805018BF012064
:10383000118F012918BF704701200021118770479F
:10384000826F9268136A23F48053136290F83A30BF
:103850004FF03C0C826F0CEB8303D2581268006E61
:10386000524200EB4200074A9042D8BF104605DDA5
:1038700047F6FF729042A8BF47F6FF700880488065
:10388000704700000180FFFF10B4816F6FF00103EB
:1038900089680B610A6912F0010FFBD00B610122EC
:1038A0004A63B0F87020521F0A640A6912F0010FCF
:1038B000FBD00B614A6C42F480624A644A6C42F469
:1038C00000424A64826F92F88FC0BCF1020F2CD183
:1038D000D1F820C040F255541CEA040FD2F80CC0B5
:1038E00010D09269CCF81820D0F878C0DCF81020FD
:1038F000DCF81CC0C2F818C0826F5069128C120428
:10390000826112E0128B1204CCF81820D0F878C033
:10391000DCF81020BCF81CC04FEA0C4CC2F818C0F0
:10392000806F4269008C000490610B61C86840F0B0
:103930000100C86010BC7047816F002289684A632B
:10394000931E0B610A6912F0010FFBD00B614A6CE8
:1039500042F400424A64816F91F88F20022A18BF16
:103960007047CA6889699161826F1169928B1204EC
:103970008A61806F4169008C0004886170474FF450
:103980008011C16690F8721080F83A10B0F870108B
:10399000491E8AB20146806F4B8E806843638B8ECE
:1039A0008363CB8EC3630264006A10F4805018BF37
:1039B00001200A8F012A18BF7047012000220A87C0
:1039C000704730B4856F818FB0F87020B5F88640AD
:1039D000A2EB010CC38F1FFA8CFCA44506D903216E
:1039E00080F83A1091B2491E89B215E0CB1A9BB209
:1039F000B3EB4C0F84BFB5F88820891A0BD821444B
:103A000089B2914208D34FF40012C266B0F8702018
:103A1000C1EB4201491E89B2AB680246408E586331
:103A2000908E9863D08ED8631964186A10F4805011
:103A300018BF0120118F01291CBF30BC7047012025
:103A40000021118730BC7047816F8968CA6822F0F5
:103A50000102CA60002280F842204A6C22F400422F
:103A60004A64826F92F88F30022B0DD1D368128B8B
:103A700012049A61836F1A699B8B1B049361826F96
:103A80005069128C120482616FF001020A610869A8
:103A900010F0010FFBD00A61704710B4816F002253
:103AA000896880F84220B0F8702052084A63B0F864
:103AB000702052088A63B0F870205208CA63B0F8C8
:103AC0007020521F0A646FF001030B610A6912F043
:103AD000010FFBD00B614A6C42F480624A644A6C6D
:103AE00042F400424A64826F92F88FC0BCF1020F28
:103AF0001BD1D1F820C040F2555434EA0C0CD2F856
:103B00000CC019D0128B1204CCF81820D0F878C051
:103B1000DCF81020BCF81CC04FEA0C4CC2F818C0EE
:103B2000826F5069128C120482610B61C86840F088
:103B30000100C86010BC70479269CCF81820D0F81A
:103B400078C0DCF81020DCF81CC0C2F818C0826F06
:103B50005069126AE8E730B4D0F878C0DCE90012A6
:103B6000DCF808300C6804F00C04082C05D0002C9C
:103B700008BFBCF884C008D018E0D1F800C00CF031
:103B80000C0CBCF10C0FF8D110E05C6A6445FCD35E
:103B9000D1F800C00CF00C0CBCF1080F06D1D1F824
:103BA00000C00CF00C0CBCF10C0FF8D1D1F808C01F
:103BB0002CF4401CC1F808C0D2F808C02CF4401CFA
:103BC000C2F808C0D0F878C010F83A4F542505EB79
:103BD00084045CF804C0C1F838C0D0F83EC010F8C6
:103BE0002E4B6C2505EB84045CF804C0C2F838C089
:103BF000D0F800C08C680CF4702C24F4702444EAD3
:103C00000C0CC1F808C050F804CB94680CF4702C6C
:103C100024F4702444EA0C0CC2F808C0D3F820C085
:103C20004CF4805CC3F820C00368D1F808C04CEAAB
:103C300003038B6001689368194391604FF480110E
:103C400040F8261930BC7047816F0122D31E896865
:103C500080F842200B6100224A638A63CA630A69C2
:103C600012F0010FFBD00B614A6C42F400424A642F
:103C7000816F91F88F20022A18BF7047CA6889693E
:103C80009161816F0A69C9699161816F4869096AA7
:103C9000816170471D4910B451F82020D2F800C04E
:103CA000127902EB4203092A99BF4FF0007444EAEB
:103CB0000353174C04EB03531A434FF4407494FA24
:103CC000A4F44FF40073B4FA84F4E3400CEB8303E0
:103CD000D3F82CC002F01F022CF01F0C4CEA020299
:103CE000DA6251F820201268D36C0123520102F1EC
:103CF0008442C2F8783151F820000068016811F060
:103D0000020FFBD0C06C10BC80B27047640800206A
:103D1000000020FE10B50E4C6078012818BF10BDC1
:103D20002078FFF7B7FF6080014602206070094AE3
:103D3000207852F83030002B08BF10BD4FF0000C37
:103D400002EBC00284F801C05268BDE81040184779
:103D50002E0600207408002070B4FF223C4B002186
:103D600053F821C0BCF1000F1DD09CF80440057928
:103D7000AC4206D1DCF800C00468A44504BF0A4682
:103D80000421491CC9B20429EAD3042A5CD243F8AD
:103D90002200304B002143F8321001688B6813F089
:103DA000010F1AD103E0042A88BF0A46E9E74B68ED
:103DB00023F020034B6001686FF002030B60016881
:103DC0004B6823F080034B6001686FF004030B60C5
:103DD00001688B6843F001038B600168CB6A23F4B0
:103DE0007003CB620179D0F800C04FF0007409294C
:103DF00001EB410392BF44EA0353174D05EB035314
:103E00001943836894FAA4F401F00070B4FA84F4BE
:103E1000E0400CEB8000C46801F0F87C4FF0F871D2
:103E200091FAA1F5B5FA85F591FAA1F12CFA05F50B
:103E30000726B1FA81F106FA05F52CFA01F1AC4337
:103E400003FA01F12143C16070BC104670470000C5
:103E50006408002074080020000020FE002181601A
:103E60004160C160016101214161704790F84800E3
:103E7000704701EB410100EB81008089704701EB45
:103E8000410100EB8100B0F90E00704701EB4101E8
:103E900000EB8100B0F91000704701EB410100EB2D
:103EA00081008281704701EB410100EB8100C281FA
:103EB000704701EB410100EB810002827047000076
:103EC00070B5044690F82600FFF7E4FEA0F57F41A8
:103ED0008446FF3921D094F82510206A20F811C0BB
:103EE0000021228B0846002A88BF236A07D900BF19
:103EF00033F81050401CC0B229448242F8D8B1FBBC
:103F0000F2F0E080A4F804C094F82500511E884225
:103F1000B4BF401C002084F82500204600F002F8C1
:103F2000208170BDC188428B914284BF02207047BE
:103F3000808B88428CBF042000207047418B828B8D
:103F4000038B11444A080021002B07D9036A23F888
:103F50001120491C038B89B28B42F7D88280C28022
:103F6000002180F82510704710B504460C30FFF78B
:103F7000F3FE84F826002046FFF7E0FF10BDB0F9FD
:103F80000C007047B0F904007047B0F9100070479A
:103F9000B0F90C10B0F91400C1EBC13191FBF0F095
:103FA00000B2704730B4B1F90050012490F803C05A
:103FB00000230278002DBABF694289B20988858A38
:103FC0008D4238BF0123C58A8D4288BF0123B0F9D5
:103FD00012100029BABF494289B2418A058B8D422D
:103FE00028BF002B04D062453CBF511CCAB202E07E
:103FF000624538BF0022624508BF00240270204697
:1040000030BC704770B50546007800280CBFAC681E
:104010006C68E968012904D9AA69A1F10101144475
:1040200005E005D169884FEA01444FF00001E960DD
:10403000012805D0E01704EB10400014AC6070BDFF
:10404000E01704EB104006146869FFF798FF301A78
:1040500001B22869FEF756FF0104C5E9014170BDB0
:104060000178012918BF704700690021FEF741BFA0
:104070002DE9F0410446007817460D46012660B14F
:104080006068C11700EB1140E18B0014A942A4BF86
:10409000B4F924108D4212DA0FE0204600F051F8F6
:1040A000E18CA94205DAB4F9281000268D421CDA09
:1040B00003E0B4F928108D4208DA002615E0218CBF
:1040C0008D42BCBFB4F92210A942F6DB87B16580EE
:1040D000A18B4FF47A727943B1FBF2F1491C281A93
:1040E000000490FBF1F0E160A0613046BDE8F08192
:1040F00021782804012914BFA06060600020E060DE
:10410000F2E710B504464069FFF739FF000460602C
:1041100010BD0146C28D098E62F30F0061F31F408E
:104120007047C08B70474068C11700EB1140001406
:104130007047B0F92C007047B0F92400704740690F
:1041400070478068C11700EB114000147047C0E948
:10415000041290F82A100170818D09044160C18D0C
:104160000904816000214180C16081617047017054
:104170000021C1607047416170470021C1608161C9
:104180007047027800210B2A04D109210170002117
:104190008180012108467047B0F802C003784CEADC
:1041A000010C2CEA02024280B0F804C00A2B4CEA4F
:1041B0000101818005D012B10A2101700B46184619
:1041C0007047002AFBD10B2101700B46F7E781886D
:1041D000408841EA00407047007870470021017034
:1041E00041808180704710B502780024152A6CD276
:1041F000DFE802F00E1B3033525E636669706B6B52
:104200000B21262B3D424D584800002966D05CE02A
:1042100003291CBF01290C2960D0072903D00022E3
:104220008021FFF7B9FF204610BD07291CBF0D29CB
:104230000E2953D049E00E2918BF07294ED044E07B
:104240000F2918BF072949D03FE0022918BF0729C5
:1042500044D03AE0072941D037E0072918BF102998
:104260003CD004291CBF1129012937D02DE0112988
:1042700018BF072932D028E012291CBF07291429AA
:104280002CD022E0122918BF072927D01DE00429CD
:1042900018BF072922D018E013291CBF07290529B8
:1042A0001CD012E004291CBF0729052916D00CE0F8
:1042B000062918BF072911D007E007290ED004E00E
:1042C00008290BD001E0092908D0032918BF0129CA
:1042D000A9D0A2E7002918BF0C29F6D14FF001049C
:1042E0000170A0E710B5084C2078022805D1FCF732
:1042F00059FFFDF727FB00202070C0B2401C207042
:10430000BDE81040FEF728BC3206002030B593B05F
:104310000025224802950395049505950C950D9569
:104320000E950F951095016841F08051016000686D
:1043300000F0805011901A48016841F480410160FA
:104340000068022400F480401190012000900004D5
:1043500001908001CDE906400420CDE90A40A82162
:10436000CDE908016846FDF7E3F808B172B6FEE74B
:104370000F20CDE90C044FF4A050CDE90E504FF4BE
:104380008050109005210CA8FCF7BEFF08B172B652
:10439000FEE7FDF767F813B030BD0000403802407B
:1043A000007000400448016841F470010160034955
:1043B0004FF000600860704788ED00E008ED00E015
:1043C000084810B5806F8068016911F0800F05D032
:1043D0006FF0800101610348FEF718FFBDE810404F
:1043E000FEF7CABBE001002004486FF00101806FB6
:1043F000806801610148FFF7AEBB0000E0010020CA
:104400000748006AC16811F0010F1ABF016911F075
:10441000010F70476FF0010101610148FCF70FB90E
:1044200094020020F0B402682C4B2D4C2D4D2E4EE2
:10443000DFF8B8C0984218BFB0F1804F07D0A04253
:1044400018BFA84203D0B04218BF604504D14F68DE
:1044500022F0700247EA0202984218BFB0F1804F82
:1044600025D0A04218BFA84221D0B04218BF604555
:104470001DD0A0F18044B4F5A0341CBFA0F180444D
:10448000B4F5A23413D0A0F18044B4F5A4341CBF19
:10449000A0F18044B4F5C05409D0A0F18044B4F533
:1044A000E0541CBFA0F18044B4F5005403D1CC68A3
:1044B00022F4407222434C6922F0800222430260BF
:1044C0008A68C2620A688262984212BF60450969BE
:1044D00001634FF001014161F0BC704700000140F1
:1044E0000004004000080040000C004000040140AF
:1044F00002689368D1F804C023F070034CEA030308
:10450000D1F800C023F007034CEA030393604A6824
:1045100012F00F0F59D11211082A56D2DFE802F01B
:1045200055555555122B41040068D1E90232D1F896
:1045300010C0816843EA0C2321F47F411A431143E0
:10454000816042E00A68052A04BF012070470268C2
:10455000136AD2F820C02CF0010CC2F820C0026807
:10456000D2F818C009692CF0F00C4CEA01119161E5
:104570000068036229E000680B698A68016AD0F864
:1045800020C02CF0010CC0F820C0D0F818C021F0D9
:104590000A012CF0F00C4CEA031311438361016211
:1045A00013E000688A680969036A23F01003036254
:1045B000D0F818C0036A2CF4704C4CEA013123F097
:1045C000A00343EA021281610262002070470000EA
:1045D000034900208988002908BF01207047000096
:1045E000F0050020054810B50068FFF72DFA0022FD
:1045F000BDE8104080210248FFF7CEBD180600201C
:10460000280600202DE9F84F4FF0000A2C48FBF750
:1046100055FF2C480068FFF792FD8346FFF7B2FC78
:10462000DFF8A49007466946D9F80000FEF7FDFCC4
:104630000098FDF70FFE80463946FDF731FE234C0A
:10464000064631B2B4F91000411AA9F1140000680D
:10465000FEF758FC60F30F05B4F91200A0EB2641F9
:10466000A9F110000068FEF74DFC294660F31F41D8
:1046700009F108000068FBF74FFE05465846FFF7B2
:1046800084FC39462846FDF74DFE83465946D9F845
:104690000000FEF7CCFCC4F816500099E660C4E9AF
:1046A0000018C4F81AB02784012805D1002201217E
:1046B00009F11000FFF770FD5046BDE8F88F0000CB
:1046C00094020020FC05002018060020CC070020E2
:1046D00038B50020ADF8000069468948FBF705FFB2
:1046E00088480068FEF74EFC8748FFF775FD1328E1
:1046F00028BF38BDDFE800F00A60A1199CC4D7DFED
:10470000F5FF1818186C7B8832414E007F48FBF784
:10471000A3FE002808BF38BD00217C48FBF7A7FE98
:1047200003217948FFF75FFD38BD7848FBF79DFE10
:1047300058B177480068FFF787FA142000F058F95D
:1047400010217148FFF74FFD38BD01216F48FBF77D
:104750008EFE01216C48FFF746FD38BDFFF738FF9C
:10476000002808BF38BD6A4800210068FEF73CFCFD
:1047700011216548FFF737FD38BD65480121006804
:10478000FEF732FC002808BF38BD12215E48FFF753
:104790002AFD38BD5A48FBF73DFF04215A48FFF770
:1047A00022FD002808BF38BD0020FCF721F858483A
:1047B0000068FFF772F938BD55480068FFF744FA02
:1047C000142000F015F90D214F48FFF70CFD38BDFE
:1047D000FFF7FEFE002808BF38BD4D4800210068E5
:1047E000FEF702FC0E214848FFF7FDFC38BD4848A3
:1047F00001210068FEF7F8FB002808BF38BD0F2133
:104800004148FFF7F0FC38BD4249012081F82400FF
:10481000414842490068FFF7AEFC3C48FBF729FEDF
:1048200002213948FFF7DFFC002808BF38BDBBE78D
:1048300005213548FFF7D7FC38BD3448FBF7F2FDBA
:1048400090B133480068FFF7FFF8334C012120682E
:10485000FFF78DFC2A492068FFF78DFC072104F142
:104860002C00FFF7C0FC38BD002060F30F042A487D
:104870000068FFF7C7FB60F31F442648046138BD9A
:104880000020FBF7EBFF0020FBF798FF06211E48F6
:10489000FFF7A9FC20480068FFF733FC20480068B8
:1048A000FDF72EFC38BD1E480068FDF729FC0020EE
:1048B000FBF784FF38BD16480068FFF7C5F80020F5
:1048C000FBF796FF0F480068FEF77DFA4FF448703B
:1048D00000F094F808210C48FFF785FC38BD0AE089
:1048E000FFE700F091F8002808BF38BD092106480D
:1048F000FFF779FC38BD00210348FFF774FC38BD91
:10490000940200201C06002028060020100300202E
:1049100018060020CC070020FC0500205C020020C7
:10492000F805002006480078012818BF704710B528
:10493000002000F007F8BDE81040FFF7EBB90000D9
:10494000F0050020F8B5044623480068009023488D
:1049500050F82400FEF764FA3DF81410204F00EAE6
:10496000010557F82400FEF73DFB054344B9A7F1C4
:104970002800006AFFF7A4FABDF8001008400543BC
:10498000E84382B2174804EB440100EB4106294694
:104990003046FFF701FC3046FFF71EFC0A2806D020
:1049A0000B2804BF57F82400FEF72EFCF8BD0E4874
:1049B00050F8240000281CBF0021FBF758FD57F8D1
:1049C0002400FEF721FC2046FBF712FF074850F8B1
:1049D0002400FEF7F8F9F8BDF45C00081406002086
:1049E00018060020280600200C0600201C060020C7
:1049F0000149888070470000F00500200149C88007
:104A000070470000F005002003490020C9880029F4
:104A100008BF012070470000F00500202DE9F0419B
:104A2000044600680169E26821F4405111430161C4
:104A30002169A068E269084361691143084321685C
:104A4000CA6822F4037222F414421043C86020683A
:104A50004169A26921F4407111434161E16919265C
:104A60003227B1F5004F4F4A4F48504D21684FF063
:104A7000000825D0814218BF914270D1FCF70EFD8D
:104A800061688B0F8A00A0FB0601FBF799FB0146CA
:104A9000A5FB012040096FF01802424301EB82019F
:104AA00007EB0111A5FB0121490901F0F00202EB1E
:104AB000001001F00F01084421688860BDE8F08112
:104AC000814218BF914224D1FCF7E8FC61684A1882
:104AD000A0FB060148EB0803FBF772FB0146A5FBB0
:104AE0000120420908466FF01801514300EB810094
:104AF00007EBC000A5FB00101301400900F0F8010E
:104B000003EB410100F00700084421688860BDE81C
:104B1000F081FCF7B3FC61684A18A0FB060148EB82
:104B20000803FBF74DFB0146A5FB0120420908469F
:104B30006FF01801514300EB810007EBC000A5FBAB
:104B400000101301400900F0F80103EB410100F0EF
:104B50000700084421688860BDE8F081FFE7FCF7A2
:104B60008DFC61688B0F8A00A0FB0601FBF728FB18
:104B70000146A5FB012040096FF01802424301EBFA
:104B8000820107EB0111A5FB0121490901F0F002A7
:104B900002EB001001F00F01084421688860BDE8B5
:104BA000F081000000140140001001401F85EB510E
:104BB000002180F81C117047FBF7E3BD08B5082100
:104BC0008DF8001001236A46FF2100F075F808BD3A
:104BD00038B590F81C212B4D0446002A4FD094F88C
:104BE0001D31C9B28BB10022012B15D094F89AC0A7
:104BF0000CF1020C63451AD204F19900195494F88F
:104C00001D01401C84F81D0139E084F89910208AA8
:104C100060821D4D0120F5E784F89A10022084F887
:104C20001D01C8B2802828BF84F81D2127E084F820
:104C30001B116282D4F82001144DC16821F02001BB
:104C4000C16084F81C2104F19900FBF783FD94F8FE
:104C50001B1188420AD1D4F808C094F89A3094F80D
:104C6000991004F19B022068E04708E00A208DF8C3
:104C7000000001236A46FF21204600F01DF8284667
:104C800038BD0000C05F0008C25F0008C45F0008B4
:104C900090F81C1100291CBF01207047002180F8EA
:104CA0001D11012180F81C11D0F82001C16841F0CC
:104CB0002001C1600220704710B5044690F89700AB
:104CC00000281CBF012010BD04F1160C2175581ED0
:104CD0006375C0B207D300BF12F8011B401E0CF869
:104CE000011BC0B2F8D204F11400FBF733FD84F8C5
:104CF0009600002184F89810012184F89710D4F8C8
:104D00002001C16841F08001C160022010BD90F80F
:104D100097200146002A08BF704791F89820002A82
:104D200008BF0A7D0CD0012A08BF4A7D08D04B7D00
:104D30009B1C9A423ABF01F11403D25C91F8962071
:104D4000D0F820315A604B7D91F898209B1C9A42F4
:104D50003EBF501C81F898007047D1F82001C2680E
:104D600022F08002C260002081F89700D1E90001A2
:104D700008478169002908BF704708474169002931
:104D800008BF70470847000070B5064C0546A0688C
:104D900000F04BFAA84218BF70BDA068BDE8704093
:104DA000FFF7E7BF3406002070B5026A90F82C00C8
:104DB00001240F2952F820502AD2DFE801F02919E6
:104DC00015082A2A111D21252929292915002846D7
:104DD000FDF706FA062804BF2846FDF738FA18E062
:104DE0002846FDF7FDF918B12846FDF72CFA10E02A
:104DF0002846FDF71DFA0CE02846FDF7CDF908E03E
:104E00002846FDF779F904E02846FDF76DF900E042
:104E10000024204670BD000010B5036A90F82C00F5
:104E200001EB8101DFF81CC053F820004B0000218A
:104E3000CCFB03135911A1EBE37109B2FDF79CF907
:104E4000012010BD8988888810B5036A90F82C006D
:104E500053F82000FDF797F9012010BD0346892083
:104E60009A68002A08BF704718461047002070470C
:104E70002DE9F0418446436A90F82C00DCF820408C
:104E8000012553F8203054F820600020002A18BF74
:104E90001570D04C232900F0728115DC232943D2F0
:104EA000DFE801F04E5358985D6A6F7492BEC3C834
:104EB000CDD3D8DD424242424242424242797EE272
:104EC000E7F183EFEE42ED00022730297AD00BDCC8
:104ED000A1F124010C2927D2DFE801F0F5F4F3D386
:104EE000D2F2F1F0EFEEEDF66E296CD010DC402935
:104EF00000F0298107DC3D297DD03E297CD03F2967
:104F000000F0168110E0412977D05B2967D00BE0D3
:104F1000722908BFBDE8F0810CDC6F297BD07029B5
:104F200004BFAD48BDE8F081002A1CBF002111700C
:104F3000BDE8F081732918BF8129F5D1BDE8F08162
:104F4000604600F072F9BDE8F081986ABDE8F04172
:104F5000FFF73DB9986ABDE8F041FFF73DB930462B
:104F6000FDF73BF9C0EB0010800084FB00108110BE
:104F7000A1EBE070BDE8F0811868BDE8F041FDF7F5
:104F8000A9BF1868BDE8F041FDF79FBF1868BDE8EC
:104F9000F041FDF797BF186BBDE8F04100F0F0BAA3
:104FA000D86ABDE8F041FDF75BBF3046FDF7F7F882
:104FB000C0EB0010800084FB00108110A1EBE070BA
:104FC000BDE8F0819AE021E03046FDF7FBF800B241
:104FD000BDE8F0813046BDE8F041FDF7E8B8304665
:104FE000FDF7E5F80128BAD13046FDF7EEF8C0EB41
:104FF0000010800003E04BE053E020E00BE084FB76
:1050000000108110A1EBE070BDE8F0811868BDE8E8
:10501000F041FDF762BF1868BDE8F041FDF758BFE9
:105020005868BDE8F041FDF755BF5868BDE8F0414C
:10503000FDF74BBF5868BDE8F041FDF743BF304670
:10504000FDF7C0F80014BDE8F0819868BDE8F041B4
:10505000FDF740BF9868BDE8F041FDF736BF98689E
:10506000BDE8F041FDF72EBFD86BBDE8F041FDF77C
:10507000B7BE00216046FFF7F1FEBDE8F08176E0A3
:1050800071E06CE0FFE701216046FFF7E7FEF4E71F
:10509000DCF81020002AF0D0BDE8F0410021604685
:1050A0001047DCF81020002AE7D0BDE8F0410121CC
:1050B0006046104708E088E083E07EE079E074E035
:1050C0006FE06AE065E05FE09CF82C20DCF82810D7
:1050D00051F822200021B7EB127F14BFB5EB127FED
:1050E0009969C2F30362022A14BF012AD96900290F
:1050F000C3D0BDE8F0410846FEF744BF9CF82C2021
:10510000DCF8281051F822200021B7EB127F14BFE1
:10511000B5EB127F9969C2F30362022A14BF012A18
:10512000D9690029A9D0BDE8F0410846FEF730BF93
:10513000586AFEF7F6FFC0EB001028498000A1FB7B
:105140000010C00899E7586AFEF7F6FFC0EB0010A0
:10515000800084FB00108110A1EBE0708DE73046E9
:10516000FDF72DF80EE03046FDF729F80FE05969FC
:10517000002982D0BDE8F0410846FEF777BE3046F0
:10518000FDF717F800B278E73046FDF712F8001483
:1051900073E73046FDF710F8F4E73046FDF70CF8FA
:1051A000F5E73046FDF70EF8ECE73046FDF70AF874
:1051B000EDE73046FDF71FF8E4E73046FDF71BF852
:1051C000E5E73046FDF713F8DCE73046FDF70FF86A
:1051D000DDE70000676666667A84A634CDCCCCCC69
:1051E0002DE9F0478946416A90F82C000124DDF84A
:1051F000208051F820001E4617464569002D08BF43
:1052000000240FD049462846FEF733FE3880494631
:105210002846FEF734FE308049462846FEF736FE23
:10522000A8F800002046BDE8F08790F82C007047F1
:1052300010B5FDF78BFC18B1BDE81040FDF7C2BCFE
:10524000BDE81040FDF7B8BCDDF800C001770021D3
:10525000C0E9082380F82C10C0F828C0704700006F
:105260000948418811B14188491E4180818801293E
:1052700002D98188491E81800188012998BF704721
:105280000188491E0180704734060020037F0122F7
:105290008B4294BF002280F82C101046704700000B
:1052A00001494F20888070473406002001490020C2
:1052B0008880704734060020D0F820C090F82C0079
:1052C00061F30F0319465CF8200062F31F41FCF7FD
:1052D000A0BF4368002B08BF704718472DE9F04175
:1052E00015460246036A90F82C0001262CB253F8AA
:1052F0002070536A0A2953F8200068D008DC0A2974
:1053000016D2DFE801F01915153E152F3439555F17
:105310000E2979D006DC0B295ED00C2961D00D292D
:105320006DD005E00F2974D0412977D05B2909D0D1
:1053300000263046BDE8F081E9B21046FFF7A6FF2F
:105340000646F6E705EB8500374A40000021C2FB20
:1053500000104111A1EBE07001B200223846FCF7C9
:105360000BFFE6E700682146FDF7C9FDE1E70068AD
:105370002146FDF7C2FDDCE700682146FDF7BBFDD5
:10538000D7E715F0FF0F07D13846FCF72CFF014691
:1053900000223846FCF7F7FEE8B20128C9D13846AA
:1053A000FCF71BFF014600223846FCF7E5FEC0E78C
:1053B0003846FCF707FF64F30F0001463846FCF758
:1053C00028FFB6E740682146FDF799FDB1E7406840
:1053D0002146FDF792FDACE740682146FDF78BFDC5
:1053E000A7E73846FCF7EEFE64F31F400146384657
:1053F000FCF70FFF9DE707E001E00AE00EE08068A0
:105400002146FDF77CFD94E780682146FDF775FD98
:105410008FE780682146FDF76EFD8AE72146384612
:10542000FCF701FF85E70000898888882DE9F041B5
:105430000F46416A90F82C001D46069E51F8200048
:10544000394644692046FEF728FD2A46394620465B
:10545000FEF729FD324639462046FEF72AFD012097
:10546000BDE8F0812DE9FF4F83B0234C0546234E64
:105470002048109FA060B6E80E1FA0E80E1F96E817
:105480000E1080E80E100095DDE904122038203E51
:10549000069BFFF7D9FEA068FFF770FC23220021CE
:1054A000A068FFF716FF24220121A068FFF711FF73
:1054B0001348E060B6E80E1FA0E80E1F96E80E1035
:1054C00080E80E100F48FFF777FBA0680E49CDE982
:1054D000001002970D4B0E4A0A49E068FCF778FF6E
:1054E0000095DDE90412069BE068FFF7ADFE07B00A
:1054F000BDE8F08FAC030020340600207C030020C0
:1055000094080020B4040020B14B0008914C00081E
:10551000B94C000838B5194CD4F82001016811F0D5
:10552000200F0ED04068C1B22046FFF751FB008823
:10553000012804D0022808BFFFF7B8FE01E0FFF7FA
:10554000AFFED4F82001006810F0800F1CBF0B489C
:10555000FFF7DDFBD4F82001006810F0080F08BF4A
:1055600038BD0648FFF72AFBD4F8200101680091F6
:1055700040680090BDE83840FFF798BEB4040020B2
:10558000C18840884843000C704700210170818029
:10559000C1808181C18141820162416201850186B0
:1055A00080F82C1080F82D10C28EC28580F8321041
:1055B00080F83310704710B5FFF7E7FF10BD70B4E7
:1055C00090F82C30002B1CBF70BC70471AB3838E30
:1055D0005A434FF47A73B2FBF3F2521C92B2028533
:1055E000468BD0F81CC0B0F90E50447806EB860606
:1055F0000CFB01FC760095FBF4F39CFBF6FCACEB9A
:1056000003031B0493FBF2F2624302624185290407
:10561000416270BC70478181C269438B4A4303EB8E
:1056200083035B0092FBF3F2437812FB03F2C28127
:1056300000220285418570BC70470186427891FB4B
:10564000F2F2C2808180704702E008C8121F08C1D0
:10565000002AFAD170477047002001E001C1121FF3
:10566000002AFBD17047000098B0FBF7A3FDFEF7BE
:105670004DFE00240094019402940394FE48049487
:10568000016841F010010160016801F0100105910D
:10569000016841F002010160016801F00201059119
:1056A000016841F001010160016801F0010105910B
:1056B000016841F080010160016801F080010591FD
:1056C000016841F004010160016801F004010591E5
:1056D000016841F0200101600068E84E00F0200000
:1056E0000122059091023046FBF750FD10200090FA
:1056F000E3480125CDE901056946E248FBF726FCB0
:10570000A902CDE90015CDE9025469463046FBF700
:105710001DFC00940194DD480294039404940594C4
:1057200006940794089409940A94D7490B9401604D
:1057300029040561C0E90114047680F820404FF483
:1057400000690226C0F80C90D149C661C0E90A146C
:1057500080F830404561FBF761FA08B172B6FEE7A8
:105760004FF48010CDE906404FF0080B0327CDF829
:1057700000B00497CDE901568DF815408DF814500E
:105780006946C2480394FBF76BF808B172B6FEE7AE
:105790004FF0060ACDE900A66946BC48FBF760F861
:1057A00008B172B6FEE700976946B8480197FBF763
:1057B00057F808B172B6FEE74FF00908CDE90A6460
:1057C000CDE9088508A9B148FBF750F908B172B6D0
:1057D000FEE7CDE9084608A9AC480B94FBF746F96B
:1057E00008B172B6FEE700940194AB4802940394AA
:1057F0000494059406940794089409940A94A5497E
:105800000B9401604FF480310561C0E90114047606
:1058100080F82040C0F80C909D49C561C0E90A1489
:1058200080F830404561FBF7F9F908B172B6FEE740
:105830004FF48010CDE90640CDF800B00497CDE9D3
:1058400001568DF815408DF814506946924803941E
:10585000FBF706F808B172B6FEE7CDE900A6694687
:105860008D48FAF7FDFF08B172B6FEE7009769466A
:1058700089480197FAF7F4FF08B172B6FEE7CDF850
:1058800020B0CDE9095608A98348FBF7EFF808B125
:1058900072B6FEE782490094804801940860084689
:1058A000FBF70DFB08B172B6FEE73C20CDE9000620
:1058B000002269467A48FBF7DBFA08B172B6FEE7C8
:1058C000102269467648FBF7D3FA08B172B6FEE7B4
:1058D00012941494109411941394179400941694A1
:1058E00001940394049405946F48029406940894D8
:1058F00009940A940B940C940D940E9469490F9496
:10590000C0E900142021816041F282414FF4807689
:10591000C0E90316C0E90554FCF78CF808B172B66B
:10592000FEE76148FCF7CEFA08B172B6FEE7102038
:10593000CDE910A010A95C48FCF7E0FA08B172B6F6
:10594000FEE7169416A958481794FCF728F808B1F2
:1059500072B6FEE76020CDE900040294039404943B
:1059600005940022694650480694FCF783F908B173
:1059700072B6FEE7042269464B48FCF77BF908B192
:1059800072B6FEE7082269464748FCF773F908B18A
:1059900072B6FEE77020009041F2814001900C2227
:1059A00069464148FCF766F908B172B6FEE74FF464
:1059B0008060CDF82090CDE9090643200B904FF48C
:1059C0008050CDE90C0408A937480F94FBF7BEFFBF
:1059D00008B172B6FEE73448FCF70AF9344801947E
:1059E0000594039407940A9430490B94C0E9001479
:1059F00040F69F71C0E90241046184610295CDF8CF
:105A000010806946CDF8208000970695FCF764F871
:105A100008B172B6FEE70A940AA925480B94FBF771
:105A2000BEFF08B172B6FEE72348224901604FF479
:105A3000E131C0E901140C21C460C0E90441846172
:105A4000C461FCF786FA08B172B6FEE7FDF7CCF93F
:105A5000002202211220FBF713FC1220FBF700FCAE
:105A6000002211461920FBF70BFC1920FBF7F8FB6D
:105A700001220421182021E03038024000140240A5
:105A800000002110001002400020014054060020B8
:105A90000100000F002101409C060020007400401E
:105AA000E406002000000140F80600200004004049
:105AB000380700200010014078070020FBF7E0FBCA
:105AC0001820FBF7CDFB002203211D20FBF7D8FB9C
:105AD0001D20FBF7C5FB012203212520FBF7D0FB8E
