:020000040800F2
:10000000780D0020A1010008A90100084520000882
:10001000AD010008AF010008B101000800000000B8
:10002000000000000000000000000000B301000814
:10003000B501000800000000B7010008754700087E
:10004000BB010008BB010008BB010008BB010008A0
:10005000BB010008BB010008BB010008BB01000890
:10006000BB010008BB01000881080008BB010008B3
:10007000BB010008BB010008BB010008BB01000870
:10008000BB010008BB01000829030008BB010008F0
:10009000BB010008BB010008BB010008BB01000850
:1000A0004D48000875480008BB010008BB01000866
:1000B000BB0100088D480008BB010008BB01000817
:1000C000BB010008BB010008BB010008BB01000820
:1000D000BB010008D5580008BB010008BB0100089F
:1000E000BB010008BB010008BB010008BB01000800
:1000F000BB010008BB010008BB010008BB010008F0
:10010000BB010008BB010008BB010008BB010008DF
:10011000BB010008BB010008BB010008BB010008CF
:10012000BB010008BB010008BB010008BB010008BF
:10013000BB010008BB010008BB010008BB010008AF
:10014000BB010008BB010008BB010008BB0100089F
:10015000BB010008BB010008BB010008BB0100088F
:10016000BB010008BB010008BB010008BB0100087F
:10017000BB010008BB010008BB0100080000000033
:10018000BB010008BB010008DFF810D000F08EF8BA
:1001900000480047255A0008AFF30080780D002082
:1001A0000648804706480047FEE7FEE7FEE7FEE711
:1001B000FEE7FEE7FEE7FEE7FEE7FEE73148000860
:1001C000890100082DE9F05F0546002092469B4614
:1001D00088460646814640241BE02846414647465D
:1001E000224600F053F853465A46C01A914110D3A4
:1001F00011461846224600F03AF82D1A67EB01081E
:100200004F4622460120002100F031F817EB00098B
:100210004E41201EA4F10104DFDC484631462A4647
:100220004346BDE8F09F40EA01039B0703D009E085
:1002300008C9121F08C0042AFAD203E011F8013BD2
:1002400000F8013B521EF9D27047D2B201E000F82B
:10025000012B491EFBD270470022F6E710B513466A
:100260000A4604461946FFF7F0FF204610BD202A33
:1002700004DB203A00FA02F1002070479140C2F1FD
:10028000200320FA03F3194390407047202A04DB2F
:10029000203A21FA02F00021704721FA02F3D040FF
:1002A000C2F120029140084319467047064C074DA1
:1002B00006E0E06840F0010394E807009847103436
:1002C000AC42F6D3FFF764FF145F0008345F000808
:1002D00070B58C1810F8015B15F0070301D110F808
:1002E000013B2A1106D110F8012B03E010F8016B35
:1002F00001F8016B5B1EF9D12B0705D40023521EB8
:100300000DD401F8013BFAE710F8013BCB1A921C1F
:1003100003E013F8015B01F8015B521EF9D5A1421D
:10032000D8D3002070BD00000B4810B50168C1F3A0
:10033000800121B1016821F00C01016005E0D0F8D5
:10034000001221F00C01C0F8001204F093FCBDE88B
:10035000104004F085BF0000002001404A494A686F
:1003600022F440324A604A6843681A434A6001688E
:100370004A6822F480724A6001684A68036942EA66
:1003800003224A6001684A6822F040724A600168AC
:100390004A6883681A434A6001688A6822F40062E6
:1003A0008A6001688A68C3681A438A60816A6FF04C
:1003B0007062D14214D001688A6822F070628A604B
:1003C00001688A68836A1A438A6001688A6822F031
:1003D00040528A6001688A68C36A1A438A6009E0E9
:1003E00001688A6822F070628A6001688A6822F077
:1003F00040528A6001688A6822F002028A600168BD
:100400008A68037E42EA43028A6090F8201089B12C
:1004100001684A6842F400624A6001684A6822F44E
:1004200060424A6001684A68436A5B1E42EA43329E
:100430004A6004E001684A6822F400624A60016888
:10044000CA6A22F47002CA620168CA6A838B5B1EA0
:1004500042EA0352CA6201688A6822F400728A6022
:1004600001688A6890F8303042EA43228A60016865
:100470008A6822F480628A6001688A68406942EA78
:1004800080208860704700000023014003B481B0E1
:1004900002990091BDF9081011FB01F2BDF90A3073
:1004A00013FB0322B0F800C00CFB0CFC944518D2DF
:1004B000120E90F8B2C0A2EB0C02D2B200EB4200D6
:1004C000828801FB02F0C11700EB5140C013ADF868
:1004D000000003FB02F0C11700EB5140C013ADF860
:1004E0000200009803B0704770B5054690F83010D0
:1004F000002204F021FF4FF4004606FA80F20E4C71
:100500000C49204601F0D4FD606840F001006060B5
:1005100095F831100022284604F00EFF06FA80F20A
:100520000649204601F0C4FD606840F002006060AA
:1005300070BD00000100100200740040120043155D
:10054000084490F83000704700EB4100B0F93200E9
:10055000704700000448016841F001010160016832
:1005600041F480310160704700740040084480F815
:100570003020704700EB41004286704770B504465A
:100580000125A089002804D0401E80B2A08110B1AE
:100590000025284670BDB4F91400217E90FBF1F0CF
:1005A00001B2A06800F056F90120A073F1E7C07B0A
:1005B000704701604260836000218173C17370479E
:1005C000807B7047C173704710B504460022114606
:1005D000606805F0D4F9B4F91410606805F00CFAFD
:1005E0000021206803F0E0FF00221146206803F09C
:1005F00056FFE28AB4F91210206803F050FFE08A37
:10060000218A48434FF47A71B0FBF1F0401CA0817D
:1006100010BD016A496A826E89B25143CA1701EB63
:1006200012410914C388C180427812FB01F212B250
:100630008280C91A09B283681944816010467047E4
:100640002DE9F041046A4FF0000C002290F875503B
:10065000636AB0F870700026A0F87060246804F037
:100660001008012F02D9012480F87940B0F86E708B
:10067000B0F87240B8F1100F04D09C4212D94FF07C
:10068000010811E09C4202D24FF0010801E04FF056
:1006900000081C1B08FB174490F8787000EB8707D4
:1006A000BC6209E04FF000081C1B08FB074490F8EF
:1006B000787000EB8707BC62002D07D900EB82043D
:1006C000A46AA444521CD2B2AA42F7D3426A02FBE3
:1006D0000CFCB0F86E2090F8754062439CFBF2F27F
:1006E0000A80B0F80CC0A2EB0C0CA0F812C08281FA
:1006F00090F87820B0F86CC000EB8202926A02FB9E
:100700000CF290F801C002FB0CF2B0F86EC092FB44
:10071000FCF2D0F81CC00CFB02F2B0F81AC092FB3D
:10072000FCF2C281A0F8723090F87820521C80F858
:10073000782090F8782090F875309A4201D380F8AC
:10074000786090F879202AB1002180F87660C2782C
:10075000027002E003F039FE01460846BDE8F08170
:10076000002190F87520002A09D9002200EB8103AE
:100770009A62491CC9B290F875308B42F6D80121B3
:1007800080F876107047B0F87010491CA0F870100F
:10079000002070472DE9F001016A00224A62B0F89A
:1007A0006E204FF0FF33B3FBF2F28266B0F86C209C
:1007B00002EB82025200426290F877204FEA025C1C
:1007C000234D01F118032A781A441768EC1DF0260E
:1007D00094F800804FEA1C4C06FA08F827EA08074C
:1007E00094F800800CFA08FC47EA0C0CC2F800C030
:1007F00090F877204FEA025CAA781A441368A5782B
:10080000A47806FA05F54FEA1C4CAB430CFA04FC3D
:1008100043EA0C0313606FF001020A61CA6842F0F8
:100820000102CA600A6842F001020A6090F875206D
:100830000021002A08D9002300EB810CCCF82830D5
:10084000491CC9B29142F7D3BDE8F00170470000DE
:10085000F05E0008026AC18043784B4383804FF604
:10086000FF73002903DA494289B2591A00E089B2BC
:10087000B0F86E004843B0FBF3F080B250627047AE
:100880000448016811F0100F03D01021016004F03A
:10089000DCBE7047143C01400021002812D00178D2
:1008A00043785A180021002B09D900EB010C9CF861
:1008B00002C0624492B2491CC9B28B42F5D802EB25
:1008C0001220C1B20846704700214182017541756E
:1008D00080F8961080F8971080F8981080F899109A
:1008E00080F89A1080F81B1180F81C1180F81D11F7
:1008F0007047DDF800C0002804D0016042608360CA
:10090000C0F80CC07047000000EB400101EB001282
:1009100010B5074901EB420494F82410002906D1D0
:10092000044951F8200003F082FDE083208210BDCD
:10093000E4070020FC05002010B5044600EB44004D
:1009400000EB04121348002100EB42021248116030
:100950005160D1601161D183C2F81610C2F81A102B
:10096000118450F8240002F091FC0B480021001D76
:1009700050F8240002F08AFC0748083850F8240098
:1009800003F085FD0448143050F82400BDE8104001
:1009900002F03CBEE4070020040600202DE9F84FD9
:1009A0002748006803F0E8FD834603F0FEFC244F6F
:1009B00081461C376946386802F019FD009801F03D
:1009C00071FC8246494601F091FC1E4C064631B24C
:1009D000B4F91000411AA7F11400006802F05EFC9F
:1009E00060F30F05B4F91200A0EB2641A7F1100047
:1009F000006802F053FC294660F31F4107F108002C
:100A00000068FFF743FD80464546584603F0D0FC9A
:100A10004946284601F0A8FC05462946386802F0F8
:100A2000E8FC0146C4F816800098E660C4E9000AB4
:100A3000C4F81A50A4F820900846BDE8F88F0000CA
:100A4000FC050020E40700207047000030B4DFF808
:100A5000F8C18A6990F83C20012A1BD0012280F855
:100A60003C200A680724092A17D90368DD680A3A76
:100A700002EB420204FA02F225EA0202DA600A7884
:100A80008B680A3A02EB420293400268D46823431F
:100A9000D36014E030BC0220704703681D6902EB8C
:100AA000420204FA02F225EA02021A610A788B680D
:100AB00002EB420293400268146923431361026807
:100AC000936B23F4401393630268936B0C8A641E48
:100AD00043EA045393630A790B7CD21AD21C02EBCB
:100AE00082021F2393400268946B24EA03039363FA
:100AF0000A790B7CD21A0B88D21C02EB82029BB2C1
:100B000093400268946B234393638A69624518D0CB
:100B10000268936823F47023936002689368D1F8A5
:100B200018C043EA0C0393600268936823F44013EF
:100B3000936002689368D1F81CC043EA0C03936089
:100B400009E00268936823F4702393600268936855
:100B500023F4401393604A7D2AB10268536843F43A
:100B60008063536004E00268536823F48063536039
:100B70000A7D2AB10268536843F48053536004E04D
:100B80000268536823F4805353604A68012A1BD0DB
:100B9000022A26D0032A31D00268136A6FF30B03AE
:100BA00013620268136AD1F80CC043EA0C031362A3
:100BB000264A274BD0F800C09C4532D1D1F800C05E
:100BC000BCF1120F27D02CE0026853696FF30B03BE
:100BD000536102685369D1F80CC043EA0C035361B6
:100BE000E6E7026893696FF30B0393610268936908
:100BF000D1F80CC043EA0C039361D9E70268D369CA
:100C00006FF30B03D3610268D369D1F80CC043EAD8
:100C10000C03D361CCE7D2F804C04CF4800CC2F8CA
:100C200004C0D0F800C09C4508D10968102901D043
:100C3000112903D1516841F400015160002180F86D
:100C40003C1030BC0020704701000F000023014021
:100C50000020014038B44FF0000CCDF800C090F8EF
:100C60003C20012A1BD0012280F83C200A6807247E
:100C7000092A17D90368DD680A3A02EB420204FA2E
:100C800002F225EA0202DA600A788B680A3A02EB7D
:100C9000420293400268D4682343D36014E038BC16
:100CA0000220704703681D6902EB420204FA02F257
:100CB00025EA02021A610A788B6802EB420293402D
:100CC00002681469234313614A681F24072A15D256
:100CD00003685D6B521E02EB820204FA02F225EAFF
:100CE00002025A630A8893B20A79521E02EB820208
:100CF00093400268546B234353632CE00D2A15D2B2
:100D000003681D6BD21F02EB820204FA02F225EA8D
:100D100002021A630A8893B20A79D21F02EB820296
:100D200093400268146B2343136314E00368DD6A85
:100D30000D3A02EB820204FA02F225EA0202DA62BA
:100D40000A8893B20A790D3A02EB82029340026854
:100D5000D46A2343D362184A184B04689C4206D1D4
:100D60000C68122C03D1546844F480045460046865
:100D70009C421CD10B68102B01D0112B17D153684A
:100D800043F4000353600968102910D10C490D4A3F
:100D90000968B1FBF2F101EB810149000091009972
:100DA00029B10099491E009100990029F9D180F8D4
:100DB0003CC038BC002070470023014000200140A7
:100DC0004406002040420F0070B504460025002C68
:100DD00003D0206C002610B107E0012070BD204632
:100DE00000F01EF8666484F83C60206C10F0100F70
:100DF00004D0012584F83C60284670BD206C20F4A6
:100E0000885040F0020020642046FFF7A7FA66648D
:100E1000206C20F0020040F001002064EAE70000AE
:100E2000F0B587B0044614216846FFF715FA2E493D
:100E30002C4F236800252C48143903242B4A2C4EB0
:100E4000BB4224D1036843F480730360006800F45C
:100E500080700590086840F001000860086800F0A4
:100E600001000590086840F00200086008686946C3
:100E700000F00200059049208DE83100104600F096
:100E8000B1F8009469463046CDE9014526E0194F96
:100E9000BB4225D1036843F400730360006800F48B
:100EA00000700590086840F001000860086800F0D4
:100EB00001000590086840F0020008600868694673
:100EC00000F00200059048208DE83100104600F047
:100ED00089F801208DE831006946304600F082F83B
:100EE00007B0F0BD0020014044380240000002403D
:100EF000000402400021014030B4002827D031B363
:100F00004379012B26D00124447102230371036825
:100F1000D3F800C002F0100240F6FE7595402CEAAE
:100F2000050C0D6849682943914041EA0C0119609C
:100F300001680B684FF0C00C0CFA02F223EA0202BF
:100F40000A6004710021417130BC0846704730BC12
:100F50000120704730BC0220704770B50446002C59
:100F600003D02079002510B105E0012070BD657126
:100F7000204600F007F80220207125610120207131
:100F8000002070BD10B586B0044614216846FFF7F6
:100F900063F91149206888421CD110480021026879
:100FA00042F000520260006800F0005005900B48CB
:100FB0001038026842F001020260006800F001008F
:100FC0000590302000900320CDE9010169460448D6
:100FD00000F008F806B010BD007400404038024030
:100FE000000002402DE9F84F0022DFF818A2DFF8D8
:100FF00010924FF0010E03274FF00F08AAF1040BD7
:101000000EFA02FC0B6803EA0C0363457DD10C79F0
:1010100004F00304012C01D0022C14D18568540083
:1010200007FA04F6B543CE6806FA04F42C4384604C
:10103000446824EA0C0C0C79C4F30014944044EA8C
:101040000C0CC0F804C0D1F804C037EA0C0C0CD06A
:10105000C4684FEA420C07FA0CF5AC438D6805FAF8
:101060000CFC4CEA040CC0F80CC091F804C00CF065
:10107000030CBCF1020F12D14FEAD20C00EB8C042E
:10108000256A4FEA427C4FEADC6C08FA0CF6B5435D
:101090000E6906FA0CFC4CEA050CC4F820C0046882
:1010A0004FEA420C07FA0CF5AC430D7905F0030545
:1010B00005FA0CFC4CEA040CC0F800C0D1F804C0DE
:1010C0001CF4403F7DD0D9F800C04CF4804CC9F8E6
:1010D00000C0D9F800C00CF4804CCDF800C022F05C
:1010E000030C0CF1804505F59835D5F808C8940730
:1010F000240F08FA04F62CEA0606A0F1804CBCF591
:10110000003C64D0A0F1804C00E05AE0BCF5013C0A
:1011100060D0A0F1804CBCF5023C5ED0A0F1804CC8
:10112000BCF5033C5CD0A0F1804CBCF5043C5AD02B
:10113000A0F1804CBCF5053C58D0A0F1804CBCF52A
:10114000063C56D0A0F1804CBCF5073C54D04FF083
:10115000080C0CFA04FC4CEA060CC5F808C8DAF8CE
:1011600000C02CEA030C4C6814F4801F01D04CEA38
:10117000030CCAF800C0244CD4F800C02CEA030CBD
:101180004D6815F4001F01D04CEA030CC4F800C0F0
:10119000DBF800C02CEA030C4C6814F4003F01D0CB
:1011A0004CEA030CCBF800C0184CD4F800C02CEA71
:1011B000030C4D6815F4803F01D04CEA030CC4F8D1
:1011C00000C0521C102AFFF41BAFBDE8F88F4FF08F
:1011D000000CBEE74FF0010CBBE74FF0020CB8E784
:1011E0004FF0030CB5E74FF0040CB2E74FF0050CDD
:1011F000AFE74FF0060CACE74FF0070CA9E7000093
:1012000044380240083C01400C3C0140003C014095
:101210000148806870470000480600200248816845
:1012200002781144816070474806002010B50B48D1
:10123000016841F400710160016841F4806101605E
:10124000016841F480710160032000F087F80420F8
:1012500000F006F800F026F8002010BD003C024027
:1012600070B504460D4D4FF47A712878B1FBF0F05B
:101270000B490968B1FBF0F000F0E4FB08B1012074
:1012800070BD102C07D200222146501E00F032F80B
:101290006C60002070BD012070BD00004806002079
:1012A000440600200B4882B0016841F4804101608F
:1012B000006800F4804000900648001F016841F07B
:1012C00080510160006800F080500090042002B05E
:1012D00000F044B84438024000280ADB00F01F0147
:1012E000012202FA01F14009800000F1E020C0F87B
:1012F0000011704710B4184B1B68C3F30223C3F1ED
:10130000070CBCF1040F01D94FF0040C1C1D072C75
:1013100001D2002300E0DB1E012404FA0CFCACF136
:10132000010C0CEA0101994004FA03F35B1E1A4018
:101330001143002806DB00F1E020090180F80014C9
:1013400010BC704700F00F0000F1E020090180F8A8
:10135000141D10BC704700000CED00E000F0070009
:10136000064A11684FF6FF03194041EA002040F099
:10137000FD7040F080601060704700000CED00E0F0
:101380002DE9F04704460D46002C13D0DFF85491A8
:10139000D9F80000EFB200F00700A8420DD289F89A
:1013A0000070D9F8000000F00700A84205D0012025
:1013B000BDE8F0870120BDE8F08720684A4E10F0B4
:1013C000020F14D010F0040F03D0306840F4E05046
:1013D0003060207810F0080F03D0306840F460408F
:1013E00030603068A16820F0F00008433060207859
:1013F00010F0010F3ED060683C49012808D0022857
:101400000DD003280BD0096811F0020F28D00AE094
:10141000096811F4003F06D10120BDE8F087096892
:1014200011F0007F19D0316821F0030108433060CA
:10143000FFF7EEFE80463068616800F00C00B0EB0C
:10144000810F17D041F2883AFFF7E2FEA0EB0800C7
:10145000504508D90320BDE8F0870120BDE8F0879A
:101460000120BDE8F0873068616800F00C00B0EB47
:10147000810FE9D1D9F8000000F00700A8420AD98D
:1014800089F80070D9F8000000F00700A84202D0E7
:101490000120BDE8F087207810F0040F05D03068F7
:1014A000E16820F4E05008433060207810F0080F25
:1014B00006D03068216920F4604040EAC100306005
:1014C00000F048F831680A4AC1F30311515CC84082
:1014D0000849086008480068FFF7C2FE0020BDE820
:1014E000F0870000003C024008380240003802400B
:1014F000D85E0008440600204C0600200149012067
:10150000C864704700004742014800687047000007
:101510004406002000B5FFF7F7FF04490968044AB4
:10152000C1F38221515CC84000BD00000838024070
:10153000E85E000800B5FFF7E7FF04490968044AC0
:10154000C1F34231515CC84000BD00000838024080
:10155000E85E000810B51748006810F00C01164846
:1015600016D04310042912D0082911D1134C216838
:1015700001F03F02216811F4800F0AD02068C0F307
:101580008810A0FB03010023FEF71CFE09E01846AB
:1015900010BD21680023C1F38811A1FB0001FEF7F3
:1015A00011FE2168C1F30141491C4900B0FBF1F073
:1015B00010BD0000083802400024F4000438024046
:1015C0002DE9F84F0446002C12D02078FB4E10F085
:1015D000010FA6F1040563D0301D016801F00C0174
:1015E00004290CD0006800F00C00082803D010E09B
:1015F0000120BDE8F88F306810F4800F09D028680A
:1016000010F4003F4CD06068002849D10120BDE8AB
:10161000F88F6068B0F5803F14D0B0F5A02F16D0D9
:10162000286820F480302860286820F48020286012
:10163000606810B3FFF7ECFD0746286810F4003F20
:101640000ED02DE0286840F480302860F0E728684C
:1016500040F480202860286840F480302860E7E764
:10166000FFF7D6FDC01B642802D90320BDE8F88F20
:10167000286810F4003FF3D012E0FFF7C9FD0746D9
:10168000286810F4003F0BD0FFF7C2FDC01B642890
:1016900002D90320BDE8F88F286810F4003FF3D189
:1016A0002078C74F10F0020F4FF0000957D0C548FF
:1016B000016811F00C0F14D0006800F00C0008282D
:1016C00003D1306810F4800F0BD0E06880B30120A4
:1016D0003860FFF79DFD8046286810F0020F12D099
:1016E0001EE0286810F0020F05D0E068012802D043
:1016F0000120BDE8F88F2868216920F0F80040EA51
:10170000C10028602BE0FFF783FDA0EB0800022852
:1017100002D90320BDE8F88F286810F0020FF2D03C
:101720002868216920F0F80040EAC100286016E02E
:10173000FFE7C7F80090FFF76BFD8046286810F0C0
:10174000020F0CD0FFF764FDA0EB0800022802D9BD
:101750000320BDE8F88F286810F0020FF2D120783E
:1017600010F0080F35D09848DFF860A26169C1B168
:1017700001210160FFF74CFD8046DAF8000010F00F
:10178000020F26D1FFF744FDA0EB0800022802D982
:101790000320BDE8F88FDAF8000010F0020FF1D056
:1017A00017E0C0F80090FFF733FD8046DAF800003C
:1017B00010F0020F0DD0FFF72BFDA0EB0800022860
:1017C00002D90320BDE8F88FDAF8000010F0020F0C
:1017D000F1D1207810F0040F71D04FF000087C4850
:1017E000006810F0805F0AD17948016841F08051AB
:1017F0000160006800F0805000904FF00108DFF8B1
:10180000D4B1DBF8000010F4807F1BD1DBF80000BE
:1018100040F48070CBF80000FFF7FAFC8246DBF85A
:10182000000010F4807F0DD1FFF7F2FCA0EB0A005E
:10183000022802D90320BDE8F88FDBF8000010F47D
:10184000807FF1D0A068DFF890B1012818D005287A
:101850001DD0DBF8000020F00100CBF80000DBF821
:10186000000020F00400CBF80000A06840B3FFF7B0
:10187000CFFC8246DBF8000010F0020F14D03EE0EF
:10188000DBF8000040F00100CBF80000EDE7DBF8EA
:10189000000040F00400CBF80000DBF8000040F04E
:1018A0000100CBF80000E0E7FFF7B2FCA0EB0A0173
:1018B00041F28830814204D90320BDE8F88F26E048
:1018C00005E0DBF8000010F0020FEDD017E0FFF7A5
:1018D0009FFC8246DBF8000010F0020F0FD0FFF7EC
:1018E00097FCA0EB0A0141F28830814202D9032023
:1018F000BDE8F88FDBF8000010F0020FEFD1B8F16F
:10190000010F04D13248016821F080510160A069C3
:10191000F0B32C4909684FF0FF3801F00C01082999
:1019200066D0022810D0C7F86090FFF771FC04461B
:10193000286810F0007F2BD0FFF76AFC001B0228FC
:1019400051D90320BDE8F88FC7F86090FFF760FC1D
:101950008146286810F0007F0CD0FFF759FCA0EBFF
:101960000900022802D90320BDE8F88F286810F08A
:10197000007FF2D1216AE069A26A0843616A08EB3C
:101980005202890141EA0241084394F82C1000E018
:1019900055E040EA0160306001203866FFF738FC0E
:1019A0000446286810F0007F49D1FFF731FC001B86
:1019B000022813D90320BDE8F88F00000438024044
:1019C0000000474208380240800E47427438024007
:1019D000403802400070004070380240286810F023
:1019E000007FE2D02BE0286810F0007FA4D126E031
:1019F000012822D03068E26900F4800191421AD1B6
:101A0000226A00F03F01914215D147F6C071626A27
:101A10000140B1EB821F0ED1A26A00F4403108EB05
:101A20005202B1EB024F06D194F82C1000F0706016
:101A3000B0EB016F03D00120BDE70120BBE7002020
:101A4000B9E77047401EB0F1807F01D30120704795
:101A50004FF0E0214861044AF020107000208861B6
:101A6000072008610020704723ED00E010B5FFF764
:101A7000E8FF10BD90F83C20012A2CD0012280F80C
:101A80003C20CA680023D1F808C022F4407242EA20
:101A90000C02D1F804C022F4806242EA0C02D1F8B0
:101AA00000C022F4006242EA0C02D1F810C022F415
:101AB000805242EA0C02D1F814C022F4005242EAE9
:101AC0000C02C96922F4804211430268516480F813
:101AD0003C30002070470220704730B490F83C2022
:101AE000012A44D0012480F83C40022280F83D20A5
:101AF0000268D2F804C093682CF0700C0D6845EAB7
:101B00000C0CC2F804C00268A2F1804CBCF5803C09
:101B100020D0B2F1804F1DD0A2F1804CBCF5806C7A
:101B200018D0A2F1804CBCF5006C13D0A2F1804C0F
:101B3000BCF5406C0ED0A2F1804CBCF5823C09D0C3
:101B4000A2F1804CBCF5A03C04D0A2F1804CBCF5C5
:101B5000C05C04D123F0800349681943916080F888
:101B60003D40002180F83C1030BC0020704730BC64
:101B70000220704710B50446002C03D094F83D00B5
:101B800010B107E0012010BD002084F83C00204681
:101B900000F01EF8022084F83D00211D206802F0AC
:101BA00089FE012084F8460084F83E0084F83F0056
:101BB00084F8400084F8410084F8420084F843002F
:101BC00084F8440084F8450084F83D00002010BDEE
:101BD00010B586B0044614216846FEF73DFB134954
:101BE0002068884220D112480021026842F0010298
:101BF0000260006800F0010005900D48143802688A
:101C000042F002020260006800F0020005904FF40A
:101C100080500090022001900120CDE90201049043
:101C200069460448FFF7DEF906B010BD0000014028
:101C3000443802400004024070B504460D46002CB2
:101C400003D094F83D0010B107E0012070BD0020E2
:101C500084F83C00204600F059F8022084F83D004A
:101C60002068816821F0070121F480418160211DF5
:101C7000206802F01FFE206883688269016AD5F837
:101C800000C04CEA030322F0030222F44072AE6962
:101C9000D5F808C042EA06224CEA020222F00C0201
:101CA00022F4406222F0F00222F47042EE69D5F88C
:101CB0000CC042EA06224CEA0202D5F810C02E6A95
:101CC0004FEA0C1C4CEA063C4CEA020221F02201CD
:101CD00021F08801D5F804C06D6941EA05114CEA8C
:101CE000010183602068826120680162012084F81C
:101CF000460084F83E0084F83F0084F8420084F8EF
:101D0000430084F83D00002070BD000010B586B08F
:101D1000044614216846FEF79FFA1249206888425B
:101D20001ED111480021026842F0020202600068E0
:101D300000F0020005900C481038026842F00402DE
:101D40000260006800F004000590C02000900220AE
:101D5000CDE90101CDE9031069460448FFF742F9D6
:101D600006B010BD000400404038024000080240A8
:101D700030B587B0044614216846FEF76DFA17495E
:101D80002068884228D11648016841F001010160AD
:101D9000016801F001010591016841F00201016053
:101DA0000068022400F0020005904FF4E060CDE9E5
:101DB00000040125029469460A48CDE90345FFF76E
:101DC00011F94FF46040CDE90004029469460648D9
:101DD000CDE90345FFF706F907B030BD000001402B
:101DE00030380240000002400004024070B5044652
:101DF0000D46002694F83C0001280FD0012084F8FD
:101E00003C006AB1042A1FD0082A32D00C2A44D0E0
:101E10000126002084F83C00304670BD022070BDD1
:101E20002946206802F0BCFD2068816941F0080164
:101E300081612068816921F00401816120688169E4
:101E40002A6911438161E4E72946206802F0E0FD38
:101E50002068816941F4006181612068816921F411
:101E600080618161206881692A6941EA022181617A
:101E7000CFE72946206802F007FE2068C16941F0DB
:101E80000801C1612068C16921F00401C1612068B5
:101E9000C1692A691143C161BBE72946206802F084
:101EA0002FFE2068C16941F40061C1612068C169E9
:101EB00021F48061C1612068C1692A6941EA022177
:101EC000C161A6E710B50446002C03D094F83D008C
:101ED00010B107E0012010BD002084F83C0020462E
:101EE00000F01EF8022084F83D00211D206802F059
:101EF000E1FC012084F8460084F83E0084F83F00AD
:101F000084F8400084F8410084F8420084F84300DB
:101F100084F8440084F8450084F83D00002010BD9A
:101F2000704770B5044694F83C00012810D0012594
:101F300084F83C50022084F83D00204602F00CFE5C
:101F4000002138B184F83D5084F83C10012070BD68
:101F5000022070BD2068C26822F04002C260206882
:101F6000C26822F48042C26084F83D5084F83C107C
:101F7000002070BD70B50446002C04D094F84100D8
:101F8000002510B106E0012070BD84F840502046C5
:101F900000F024F8242084F841002068C16821F46E
:101FA0000051C160204602F0DDFF2068016921F484
:101FB000904101612068416921F02A014161206856
:101FC000C16841F40051C1606564202084F841007B
:101FD00084F842006563002070BD000010B586B033
:101FE000044614216846FEF737F9134920688842F1
:101FF0001FD112480021026842F0100202600068FE
:1020000000F0100005900D481438026842F00202FA
:102010000260006800F002000590C02000900220DD
:10202000CDE901010720CDE9031069460448FEF718
:10203000D9FF06B010BD0000001001404438024036
:102040000004024002F006FE184C00BFD4F8200144
:102050000068C0F3C00040B1144803F007F8D4F89A
:10206000200100F069F803F02DFBD4F8200100688E
:10207000C0F3C01010B10D4803F0B0F8D4F820013F
:102080000168C1F340110029E0D04068C1B207489F
:1020900002F0F6FF0088012804D00228D6D103F010
:1020A00011FBD3E703F008FBD0E70000B4040020E5
:1020B000C1F3035100EB810081684FF6F07399433F
:1020C00011438160704708B541F48032C261C1613B
:1020D000C261C069009008BD01291DD004291DD02E
:1020E00010291DD040291DD0B1F5807F1CD0B1F53D
:1020F000806F1BD006210E4B18305B5C1844D0F863
:1021000000C00C4B595C73238B402CEA030302FA8A
:1021100001F11943016070470021ECE70121EAE772
:102120000221E8E70321E6E70421E4E70521E2E7ED
:10213000FE5E0008055F000808B501680091406870
:10214000009008BD10B50446406802F0FDF9A16892
:10215000086110BD0068012102F062BA10B50400E8
:1021600031D0207E01282ED1217B0020012904D0EE
:1021700002290DD0032924D119E0A16881F8240097
:102180000121606802F010FAE28AB4F90E1009E049
:10219000A16881F824000021606802F005FAE28A53
:1021A000B4F91010606802F07AF940B909E0A1684A
:1021B000012081F82400A068D4F8121001610220E7
:1021C00000E00320207610BD01230373C181C28289
:1021D000037643767047022303730182C282012192
:1021E0000176002141767047006802F0E7B910B52A
:1021F000406802F0C1F9BDE8104002F0D3B8407E5B
:1022000070478068006870478068406870478068E1
:10221000C0687047806800697047027B0021012A0E
:1022200001D1B0F90E1008467047406802F098B925
:10223000006802F0EEB98068B0F91E00704780684F
:10224000D0F81A0070478068D0F81600704780E810
:102250000E0000210173C1810182C18201767047A5
:102260000322027341820914818201210176002137
:10227000417670478268518280688182704710B5CC
:1022800004460068032102F0CBF9002801D00121A7
:10229000217610BD0068072102F0C2B9406802F043
:1022A00089B90000014661F30F0044F6E61211FB04
:1022B00002F244F6E61311FB23F10A4411444942A9
:1022C000CA13094BB2F5004F01DB590C03E0194664
:1022D0008A4200DB11B261F31F40994203D148F2F8
:1022E000010161F31F4070470080FFFF2DE9F041BD
:1022F0000546084600F052F80FFA85FC07B21CFBB1
:1023000007F12E14051416FB05F0081AC3134FF439
:102310000040411E4242834201DB0B4604E09342EF
:1023200001DA134600E01BB2DFF838E063F30F0474
:10233000934201D16EF30F041CFB05F316FB07F566
:102340002B44DB13834204DA934201DA114600E0A6
:1023500019B2204661F31F40914201D16EF31F4034
:10236000BDE8F0810180FFFF70B50446084600F02B
:1023700015F814FB00F12214031412FB03F6314488
:10238000CE13294666F30F0114FB03F312FB00F092
:10239000C01AC01360F31F41084670BD10B500F5A8
:1023A0000041890911F44074C0F387121649C2F143
:1023B000FF0316D0B4F5807F1CD0B4F5007F09D0A0
:1023C000B4F5407F1FD131F8133031F8121063F3A8
:1023D0001F400DE031F8122031F8131062F31F4056
:1023E0000FE031F8122031F81310524262F31F400F
:1023F000494206E031F8133031F812105B4263F3C2
:102400001F4061F30F0010BD425C0008F8B58C4618
:102410000446DDE90710069FC4F830C0C4E9300166
:1024200008481E4615460090074B084A214660465C
:10243000FEF75FFA04F13402204682E8E00000F083
:1024400041FBF8BD5124000859240008BD2A0008AA
:1024500010B500F037FB10BD2DE9F0438DB04FF003
:102460000008994614460F4605468DF808804E0927
:102470000ED0721E0021284603F03DF9B8B1D5F800
:10248000C40007F01F0718B1721E002103F033F9D2
:102490000126132F79D2DFE807F09D0CA0AF7878E2
:1024A000AEADACABAAA9A8A7787878789D000B2030
:1024B00006E2277805208DF80C00472F7AD028DC1B
:1024C0000F2F71D00BDC0F2F73D2DFE807F055848C
:1024D000845F846D6D6D6D6D6D6D6D6D6D00172F0D
:1024E00062D009DCA7F11000072874D2DFE800F001
:1024F000626273735C5C5C001D2F4ED004DC182F8D
:1025000052D01C2F67D143E0412F4DD0462F62D1CE
:1025100050E0652F48D01EDC572F45D00EDC542FDD
:1025200042D006DC482F45D04F2F3DD0532F52D1FB
:102530003AE0552F38D0562F4DD135E05B2F39D0AA
:1025400004DC582F30D0592F45D12DE0612F2BD0EE
:10255000642F40D128E0A7F1740015283BD2DFE8B2
:1025600000F01529292929293A3A3A29293A3A3AEB
:102570003A3A3A3A23232300647839462246D5F87A
:10258000C40003F0B8F822461EE082E262781BE045
:1025900062780021D5F8C40003E062780121D5F803
:1025A000C40003F0A3F86EE16078A17800EB01228B
:1025B0000AE010E06078A178227900EB0120E17850
:1025C000090401EB026142183946284603F093F8EA
:1025D0008DF808005FE2022072E1217803208DF877
:1025E0000C008929F8D208E0B4E137E225E216E2CE
:1025F000F4E1C3E19BE16EE165E18A007A4452684F
:1026000097440000240200009E0200002402000003
:10261000240200009E0200008802000088020000E0
:102620008802000088020000880200008802000082
:102630008802000088020000880200008802000072
:102640008802000088020000880200008802000062
:102650008802000088020000880200008802000052
:102660008802000088020000880200008802000042
:10267000880200003C020000640200009E0200008C
:102680008802000088020000880200002402000086
:10269000BC020000BC020000BC020000BC02000042
:1026A000BC020000BC020000BC020000BC02000032
:1026B000BC020000BC020000BC020000BC02000022
:1026C000BC020000BC020000BC020000BC02000012
:1026D000BC020000BC020000BC020000BC02000002
:1026E000BC020000BC020000BC020000BC020000F2
:1026F000BC020000BC020000BC020000BC020000E2
:10270000BC020000BC02000088020000BC02000005
:10271000BC020000BC020000BC0200009E020000DF
:102720009E0200009E020000880200008802000055
:102730008802000088020000240200009E020000BF
:102740008802000088020000880200008802000061
:102750008802000088020000880200008802000051
:1027600088020000880200008802000024020000A5
:102770009E020000BC0200008802000088020000E7
:10278000880200008802000088020000BC020000ED
:10279000BC02000088020000880200002402000041
:1027A000240200009E0200009E0200009E02000023
:1027B0009E0200009E020000240200008802000029
:1027C000880200009E020000BC0200008802000097
:1027D00088020000240200009E0200009E02000009
:1027E0009E0200009E0200009E0200009E02000069
:1027F0009E0200009E0200009E0200009E02000059
:102800009E02000024020000BC020000240200001E
:102810009E0200009E0200009E020000880200004E
:10282000880200008802000002AA284602F084FD07
:1028300000909DF80800002875D001233BE000BF00
:10284000D5F8C400002820D0002102F06BFD8DF8DF
:102850000000D5E90C0401236A46F021A0478DF859
:1028600008600DB0BDE8F083D5F8C4000028EAD0B8
:10287000012102F057FD8DF80000D5E90C04012379
:102880006A46F021A0478DF8086004E102AA2846B4
:1028900002F052FD00909DF808000028CCD00223E1
:1028A00009E002AA284602F047FD00909DF80800C2
:1028B000002838D00423D5E90C046A46F021F8E05A
:1028C0008DF80C00E7E0217807208DF80C002846F1
:1028D00002F0D6FC7CE6002004A942460A54401CC3
:1028E000C0B22028FAD3002005E00B18401CC0B26B
:1028F000DA701D2804D2D5F8C020125C092AF4D160
:10290000D5F8C010421D8A5C8DF81020C21D093018
:10291000895C8DF81110D5F8C010202304AA085C3A
:102920008DF81200B0E0BFE08DF80860B6E02079C5
:102930006179E37800EB012082B22078617800EBC6
:102940000120A178090401EB03610144284602F04B
:10295000CEFC3DE620796179E37800EB012082B27C
:102960002078617800EB0120A178090401EB036174
:10297000084401B2284602F0CBFC29E606A80090E4
:10298000217807AB01AA284602F038FEBDF91C00E9
:102990000A21C0EB0010800090FBF1F08DF81000D0
:1029A000010A8DF81110010C8DF81210000E8DF82F
:1029B0001300BDF818008DF81400000A8DF81500FA
:1029C000BDF804008DF81600000A8DF81700D5E94F
:1029D0000C04082304AAF021A0475CE0E079227AE5
:1029E000A37800EB022082B26078267900EB032006
:1029F000E37821781B0403EB0663184400EB8000A6
:102A000040003C2390FBF3F003B26079A47900EB23
:102A1000042000B20090284602F0F0FED8E52078AD
:102A20006178E27800EB012001B2A07800EB02208F
:102A300002B2284602F04CFE76E70C208DF80C001E
:102A400004948DF814901C4904A802F073FC8DF8CE
:102A5000080000B318480379026821E0002004A9A7
:102A600004E00A54401CC0B220280BD2D5F8C02084
:102A7000125C002AF5D14246202803D20A54401C99
:102A8000C0B2F9E720230A46D5E90C04F021A0479B
:102A90004AE78DF80C609DF8080028B100231A461B
:102AA000D5E90C04F02104E0D5E90C04012303AAC4
:102AB000FF21A047D5E600000C00002010B500F073
:102AC00001F810BD10B50446006BE16B884780200B
:102AD00084F8C800A16B206BBDE8104008470000D7
:102AE00001480068FFF7A4BB04000020064810B5A9
:102AF0000078002807D000F009F802F0BBF9BDE823
:102B0000104002F0B9BD10BDF005002010B50C4C0E
:102B10002078012813D1608810B16088401E02E03F
:102B200002F0BCF801206080A08810B1A088401E8F
:102B3000A080E088002802D0E088401EE08010BD20
:102B4000F005002001480068FFF799BB0400002051
:102B500001480068FFF79EBB040000202DE9F35FE9
:102B6000584801F058FD574E0024383E06F1300118
:102B7000347055480860554906F1280A0846CAF8D5
:102B8000001000F0DFFE02F0E3FF514800F074FB9C
:102B900006F110084E4906F10C054E48C8F8001021
:102BA00028604D48FDF7F6FD4B4B4C4A4C482968D0
:102BB000FDF7FFFC05F1100149480860D8F8001046
:102BC000454A286801F0E0FC444802F0D4FE45483C
:102BD00000F052FB444800F04FFB05F1080041496A
:102BE0000160001D404901604048306201F0CEFBA9
:102BF00005F120013E480860316A3E4FC0E943714B
:102C00003D4800F00CFB05F118093B49C9F80010DC
:102C100005F128013948086001F032FB0020FDF77A
:102C20008BFE4FF0010B87F824B0286801F08CFC74
:102C30003861286801F088FC0014B88207F1280088
:102C40002F1F2C4B38601F492A68FFF700FB2868AC
:102C500001F08CFC014600223868FFF7B5FA0098B5
:102C6000396801602348D8F800104430016005F14C
:102C700008010968416005F10C010968C0E9021406
:102C8000DAF80010C0E904141349C0E9061404621C
:102C9000296841620B498162D9F80010C162316A2A
:102CA000C0E90C1405F1200184630968C0E90F1420
:102CB00044648464C46404650199086086F800B0C3
:102CC000BDE8FC9F2806002000040020E001002051
:102CD00028010020AC010020940200205C020020AA
:102CE0001003002054010020800100205403002024
:102CF00014000020E40700202C030020E80300203B
:102D00000023B0F8002120F81210B0F80021A0F83C
:102D10000221521C92B2A0F80021802A02D3002284
:102D2000A0F80021002230F912C06344521C92B274
:102D3000802AF8D3DA1703EB5262D211A0F80421EB
:102D4000084670470021002220F81120491C89B252
:102D50008029F9D3A0F80021A0F802217047B0F92A
:102D600004017047F0B58DB020216846FDF774FA74
:102D700000243048089409940A942D490B9401606A
:102D800001264FF480310661C0E90114047680F811
:102D900020402949C0E90A140225C902C561C16061
:102DA00080F830404661FEF70FF808B172B6FEE7D2
:102DB0000820CDE9000602954004CDE9064003272E
:102DC0008DF8154004978DF81460694619480394EE
:102DD000FDF73CFE08B172B6FEE70620CDE900051E
:102DE00069461448FDF732FE08B172B6FEE7009757
:102DF000694610480197FDF729FE08B172B6FEE753
:102E00000920CDE90806CDE90A5408A90948FDF7CB
:102E100021FF08B172B6FEE708A90648CDE90845CA
:102E2000FDF718FF002801D072B6FEE70DB0F0BD27
:102E300000200140540600200100000F2DE9F04160
:102E40008CB020216846FDF707FA4FF000082F48A4
:102E5000CDF82080CDF82480CDF828802A4ACDF8FE
:102E60002C80026001244FF480320461C0E9012803
:102E700080F8188080F82080254AC0E90A28D2020C
:102E8000C4614146C26080F830104461FDF79CFF88
:102E900008B172B6FEE708267004CDE90680CDE9D8
:102EA0000064032502278DF81580029704958DF89C
:102EB000144069461548CDF80C80FDF7C7FD08B1F0
:102EC00072B6FEE70620CDE9000769460F48FDF718
:102ED000BDFD08B172B6FEE7009569460B48019545
:102EE000FDF7B4FD08B172B6FEE7CDE9086408A9A4
:102EF00006480A97FDF7AEFE002801D072B6FEE73D
:102F00000CB0BDE8F0810000002101409C060020CB
:102F10000100000F00B587B014216846FDF79CF949
:102F20001A48016841F010010160016801F01001C8
:102F30000591016841F002010160016801F00201A0
:102F40000591016841F001010160016801F0010192
:102F50000591016841F080010160016801F0800184
:102F60000591016841F0040101600068694600F0C4
:102F700004000590102000904FF4041001900120EF
:102F800002900348FEF72EF807B000BD303802402B
:102F90000010024008B5FEF7B7FA4FF4FA61B0FB33
:102FA000F1F0FEF74FFD0749081FFFF7D7FD02F0CC
:102FB00087FD044B04481A1F00900121101F02F0E6
:102FC00039FC08BD08000020205C000810B5002274
:102FD00002211220FEF78EF91220FEF77DF9002261
:102FE00011461920FEF786F91920FEF775F901221E
:102FF00004211820FEF77EF91820FEF76DF9002253
:1030000003211D20FEF776F91D20FEF765F9012248
:1030100003212520FEF76EF92520FEF75DF9002239
:1030200003210A20FEF766F9BDE810400A20FEF7EA
:1030300053B9000030B597B014210FA8FDF70CF973
:10304000002414941C2168461594FDF705F92021ED
:1030500007A8FDF701F93B4839494FF48075C0E9ED
:1030600000142021816041F28241C0E90315012151
:10307000C0E90514FEF77EFD08B172B6FEE73148DF
:10308000FEF720FF08B172B6FEE706200F90102071
:1030900010900FA92B48FEF744FF08B172B6FEE767
:1030A000149414A927481594FEF717FD08B172B6B9
:1030B000FEE76020CDE90004029403940494059493
:1030C000002269461F480694FEF790FE08B172B6CA
:1030D000FEE7042269461B48FEF788FE08B172B677
:1030E000FEE7082269461748FEF780FE08B172B66F
:1030F000FEE77020009041F2814001900C22694669
:103100001048FEF773FE08B172B6FEE74FF4006098
:1031100007904010CDE9080543200A904FF48050F5
:10312000CDE90B0407A907480E94FEF7A3FC08B1EC
:1031300072B6FEE70348FEF71BFE17B030BD000075
:1031400000000140F806002010B58CB0242168462C
:10315000FDF782F800241648099414490A94C0E93E
:10316000001440F69F71C0E90241046184610320AC
:10317000CDE900040120CDE9020409210491CDE943
:103180000540CDE9074169460948FEF755FD08B1FC
:1031900072B6FEE7099409A905480A94FEF79DFC5A
:1031A000002801D072B6FEE70CB010BD000400404C
:1031B0004007002010B504462078002803D00020E6
:1031C000E082E08A10BD94F8260000F083FF0146FB
:1031D000A1F57F40FF3807D0208B421E238A5A4337
:1031E0001144B1FBF0F02082204600F02BF8E08281
:1031F000E7E70021018270470178002902D0808A28
:1032000000B27047018A026A891AB0F91E20514340
:10321000CA17808C01EB124100EB2140F0E710B59A
:1032200004462078002804D00020E082608A2082B2
:1032300010BD201D00F0ACFF84F826002046FFF7EB
:10324000D8FF10BD018A428B914201D908207047F6
:10325000828B914201D200207047C08A7047B0F93A
:1032600022007047B0F906007047408B7047B0F9F4
:1032700004007047008B7047018881804188C180BD
:10328000018C4184002181608162704781607047B8
:1032900041847047C18070478180704770B40024BA
:1032A000B0F91430B0F916C0B0F9042002FB01F6F1
:1032B000B0F90620002A0BD04A438568A9180029D6
:1032C00009DA002D0CDD002A0ADD6FF0004107E06D
:1032D000002181600FE0002D02DA002A00DA114996
:1032E000C2688A4201DA826005E002698A4201DD31
:1032F000826000E08160827F8168057F41FA02F28E
:1033000046FA05F52A449A4202DD9C1A1A4604E060
:10331000624502DAACEB020462462144816070BC73
:1033200010B270470100008030B583B00446D4F875
:103330000C01C1680291D0F816000190BDF8080098
:10334000BDF8041010FB01F0BDF80A10BDF806200E
:1033500011FB0200C11700EB11400514D4F8100155
:1033600002F0EEFAD4F8081148434FF4167190FBBE
:10337000F1F0684300EB40004000084981FB001079
:103380008110A1EBE070C11700EB1140011403B0F4
:103390002046BDE83040FFF7B3BC000067666666B4
:1033A000C169084770B504460025002902D00129EB
:1033B0000DD01AE0204600F029F9B4F85200A4F824
:1033C000440090B921692046884701250DE0B4F8F2
:1033D000440048B1401E80B2A4F8440028B92169D5
:1033E00020468847012500E00125284670BD426837
:1033F000104733B4028EBDF904104A43BDF90630BC
:10340000B0F850104B435B00C3F1000C0CEB02030F
:1034100003EBD3735B10ACEB020202EBD2725210DF
:10342000002B59DA002A1EDA4FF0040C80F83AC05B
:10343000A3EB020C4FEAEC740CEB943C4FEAAC4C5F
:103440000CEB91014FEAE27C02EBDC3201EB6242D1
:103450004FEAE37C03EBDC33A1EB63438387C18753
:10346000A0F8402091E0BCF1000F1ADC032380F8A3
:103470003A30ACEB0203DC1703EB94339B1403EB01
:103480009101D31702EBD33201EB62424FEAEC73A6
:103490000CEBD333A2EB63438387C287A0F84010C1
:1034A00073E0022280F83A20A3EB0C02D41702EB5F
:1034B0009432921402EB9101DA1703EBD232A1EBB2
:1034C00062434FEAEC720CEBD23203EB624282872A
:1034D000C387A0F8401058E0002A1EDB4FF0010C13
:1034E00080F83AC0A3EB020C4FEAEC740CEB943C6E
:1034F0004FEAAC4C0CEB91014FEAE27C02EBDC3280
:1035000001EB62424FEAE37C03EBDC33A1EB634364
:103510008287C187A0F8403037E0BCF1000F1ADC89
:10352000052280F83A20A3EB0C02D41702EB943268
:10353000921402EB9101DA1703EBD232A1EB624352
:103540004FEAEC720CEBD23203EB62428187C38705
:10355000A0F8402019E0002380F83A30ACEB0203D9
:10356000DC1703EB94339B1403EB9101D31702EBAD
:10357000D33201EB62424FEAEC730CEBD333A2EB94
:1035800063438187C287A0F84030002900DC002116
:103590001FFA81FCA0F832C0002A00DC002291B2A0
:1035A0008186002B00DC00239AB2C286B0F84E3030
:1035B000012B27D1B0F94830002B04DDB0F854308E
:1035C0006344438604E0B0F85430ACEB0303438615
:1035D000B0F94A30002B04DDB0F85430194481862C
:1035E00003E0B0F85430C91A8186B0F94C100029B4
:1035F00004DDB0F854101144C18603E0B0F8541053
:10360000511AC186816902B030BC084781680847F9
:10361000816F91F88F20022A0DD1CA68098B0904A5
:103620009161816F0A69898B09049161816F4A698F
:10363000098C09049161012180F8741046307047AB
:103640002DE9F0470446A06F85680026E6652666EA
:10365000666684F87360286A20F0550020F4A06044
:103660002862444860604448A061032784F872706F
:1036700084F83A70204600F034FCA06F04F1730324
:1036800004F1380190F88E20284602F095FA204681
:1036900000F0FDFB84F873603848606084F8726065
:1036A00084F83A60204600F01CFCA06F04F173031C
:1036B00004F1380190F88E20284602F07DFA204669
:1036C00000F0E5FBE06DC008E065206EC0082066F4
:1036D000606EC00860662A4860602A48A061DFF812
:1036E000A89005F1180299F800001044016809F14A
:1036F00007064FF00808337808FA03FC21EA0C01AA
:10370000016099F802101144D1F800A0B37808FACA
:1037100003F32AEA030AC1F800A099F804904A4486
:10372000D2F80090367908FA06F629EA0608C2F8B7
:103730000080B4F87080C5F83480B4F87080C5F8A3
:103740003880B4F87080C5F83C80D0F8008048EA32
:103750000C0CC0F800C008681843086010683043BB
:10376000106084F83A7040F25550296A0843286284
:10377000BDE8F087B1380008A93D00080739000806
:103780008D370008FB3D0008FE5E000870B4826FB4
:103790009268136A23F48053136290F83A204FF032
:1037A000240C836F0CEB820C53F80CC0DCF800C0C7
:1037B0004FF6FF7404EA4C0C3C2505EB82055B597F
:1037C0001B6804EA4303394C650C062A5FD2DFE824
:1037D00002F01F3F3F03031FC26DA2EB0C0212F564
:1037E000004F01DC0C8005E0B2F5004F01DB0D80DD
:1037F00000E00A80026ED21A12F5004F01DC4C8004
:1038000045E0B2F5004F01DB4D8040E04A803EE0EC
:10381000026EA2EB0C0212F5004F01DC4C8005E0B9
:10382000B2F5004F01DB4D8000E04A80426ED21AB3
:10383000B1F902301A445242B2F5004F01DB0D805B
:1038400025E012F5004F01DC0C8020E00A801EE02C
:10385000C26DA2EB0C0212F5004F01DC0C8005E0FA
:10386000B2F5004F01DB0D8000E00A80426ED21AF3
:10387000B1F900301A445242B2F5004F01DB4D80DD
:1038800005E012F5004F01DC4C8000E04A800A8818
:10389000A0F848204A88A0F84A200A88498811449C
:1038A0004942A0F84C1070BC704700000180FFFF37
:1038B000826F9268136A23F48053136290F8732026
:1038C000102A1CD290F872304FF0240C826F0CEB4F
:1038D0008303D2581268C36D1A44C26590F87230DF
:1038E0004FF03C0C826F0CEB8303D2581268036ECE
:1038F0001A44026690F87320521C80F8732000204E
:10390000088048807047826F9268136A23F480535E
:10391000136290F87320102A10D290F872304FF092
:103920003C0C826F0CEB8303D2581268436E1A442E
:10393000426690F87320521C80F8732000200880A3
:103940004880704730B4836F99681A685B68D1F813
:1039500000C02CF0010CC1F800C0D0F878C09CF871
:1039600090C0BCF1000F09D06FF0800CC1F810C0FE
:10397000D1F80CC04CF0800CC1F80CC0D1F814C0C8
:103980004CF0010CC1F814C0D0F878C09CF88C4001
:10399000022C05D090F846C0BCF1000F1DD022E0EB
:1039A0009CF88D40012C11D19CF88EC0BCF1030F06
:1039B0000CD1A446C1F830C0D1F814C04CF0010CB1
:1039C000C1F814C04FF0030CC1F830C0B0F870C09B
:1039D000ACF1010CC1F824C005E0B0F870C0ACF146
:1039E000010CC1F824C040F2555C0C6A44EA0C0C8E
:1039F000C1F820C0DFF874C0A1F180454FF48014F5
:103A0000B5F5803529D0DCF80C1041F00201CCF876
:103A10000C104FF4F0118166916841F00101916042
:103A2000996841F0010199606FF0040111605168DB
:103A300041F080015160D16A21F47001D162916B33
:103A400021F440119163996B21F440119963C4668C
:103A50000021A0F84E1030BC7047DCF80C1041F08B
:103A60000101CCF80C108466D6E70000002004E0C9
:103A7000002190F87420012A03D14021002280F80F
:103A8000742008467047000070B50546A86F84682A
:103A900095F84700012865D1602201212046FEF7F4
:103AA0001BFB206A40F001002062A86F90F88F0095
:103AB000012802D0022805D008E0206A40F0040066
:103AC000206203E0206A20F004002062B5F8700054
:103AD00040086063602210212046FEF7FDFA206A4C
:103AE00040F010002062A86F90F88F00012802D0EB
:103AF000022805D008E0206A40F04000206203E080
:103B0000206A20F040002062B5F870004008A063F1
:103B100060224FF480712046FEF7DEFA206A40F4FE
:103B200080702062A86F90F88F00012802D00228D0
:103B300005D008E0206A40F48060206203E0206A3B
:103B400020F480602062B5F870004008E063064809
:103B50006860064868610648E8600648A86000207A
:103B600085F8470070BD00008D37000887400008C9
:103B7000E33E00088F3E000870B50546A86F8468D4
:103B800095F8470000283FD1602201212046FEF72A
:103B9000A3FA206A40F001002062206A20F00400AD
:103BA000206200206063A86F90F88F00012802D087
:103BB00002280ED01AE0102211462046FEF78CFA99
:103BC000206A20F010002062206A40F0400020624D
:103BD0000CE0202210212046FEF77EFA206A40F0F9
:103BE00010002062206A20F04000206270224FF412
:103BF00080712046FEF770FA206A20F480702062FF
:103C0000206A20F480602062054868600548686189
:103C10000548E8600548A860012085F8470070BDA8
:103C2000713C0008633D0008B53C00088F3E000869
:103C3000826F9268B0F870305943090C4186516325
:103C4000032180F83A104FF48051126A914303D057
:103C5000002119B1012102E00121FAE70021028FC0
:103C6000012A02D101210022028708467047000084
:103C7000826F9268136A23F48053136290F83A308B
:103C80004FF03C0C826F0CEB8303D2581268006E2D
:103C9000524200EB4200064A904204DD520C904230
:103CA00002DB104600E010460880488070470000A4
:103CB0000180FFFF10B4816F89686FF001030B6111
:103CC0000A6902F00102002AFAD00B6101224A635C
:103CD000B0F87020521F0A640A6902F00102002A3B
:103CE000FAD00B614A6C42F480624A644A6C42F436
:103CF00000424A64826F92F88FC0BCF1020F29D152
:103D0000D1F820C040F255541CEA040F10D0D2F86C
:103D10000CC09269CCF81820826FD2F810C0D2691A
:103D2000CCF81820806F4269008C0004906111E08B
:103D3000D2F80CC0128B1204CCF81820826FD2F883
:103D400010C0928B1204CCF81820806F4269008C4E
:103D5000000490610B61C86840F00100C86010BCAD
:103D60007047816F896800224A63931E0B610A695C
:103D700002F00102002AFAD00B614A6C42F40042C0
:103D80004A64816F91F88F20022A0CD1CA68896930
:103D90009161816F0A69898B09049161806F416922
:103DA000008C0004886170474FF48011C16690F860
:103DB000721080F83A10B0F87010491E8AB2816F04
:103DC0008968438E4B63838E8B63C38ECB630A6497
:103DD0004FF48052096A32EA010103D0002119B17F
:103DE000012102E00121FAE70021028F012A02D11C
:103DF0000121002202870846704730B4818FC58FA9
:103E0000B0F87020531A1FFA83FC836FB3F8864012
:103E1000A44507D9032180F83A10B0F87010491E64
:103E200089B216E04D1BADB2B5EB4C0F04D9B3F817
:103E30008820891A89B20CE0214489B28A4208D8C4
:103E40004FF40012C266B0F87020C1EB4201491E67
:103E500089B20246906F8368508E5863908E986343
:103E6000D08ED86319644FF48050196A884303D008
:103E7000002018B1012002E00120FAE70020118F94
:103E8000012902D101200021118730BC7047816FC8
:103E90008968CA6822F00102CA60002280F84220C4
:103EA0004A6C22F400424A64826F92F88F30022BEF
:103EB0000DD1D368128B12049A61826F1369928BB1
:103EC00012049A61806F4269008C000490616FF067
:103ED00001020A61086900F001000028FAD00A61B5
:103EE000704710B4816F8968002280F84220B0F8D2
:103EF000702052084A63B0F8702052088A63B0F804
:103F000070205208CA63B0F87020521F0A646FF024
:103F1000010CC1F810C00A6902F00102002AFAD0AF
:103F2000C1F810C04A6C42F480624A644A6C42F4A0
:103F300000424A64826F92F88F30022B22D140F205
:103F400055530C6AA3430DD000236BB1D36892691B
:103F50009A61826F1369D2699A61806F4269006ABF
:103F600090610FE00123F0E7D368128B12049A618D
:103F7000826F1369928B12049A61806F4269008C80
:103F800000049061C1F810C0C86840F00100C8602A
:103F900010BC704730B4D0F878C0DCF80830DCF8DA
:103FA0000010DCF804200C6804F00C04082C01D08C
:103FB00044B11AE0D1F800C00CF00C0CBCF10C0FAD
:103FC000F8D112E0BCF884C05C6A6445FCD3D1F837
:103FD00000C00CF00C0CBCF1080F06D1D1F800C0E9
:103FE0000CF00C0CBCF10C0FF8D1D1F808C02CF47B
:103FF000401CC1F808C0D2F808C02CF4401CC2F81C
:1040000008C090F83A405425D0F878C005EB8404F5
:104010005CF804C0C1F838C090F83A406C25D0F87C
:1040200078C005EB84045CF804C0C2F838C0D0F84E
:1040300068C08C680CF4702C24F4702444EA0C0CD6
:10404000C1F808C0D0F868C094680CF4702C24F44F
:10405000702444EA0C0CC2F808C0D3F820C04CF419
:10406000805CC3F820C0C36ED1F808C04CEA0303DB
:104070008B60C16E9368194391604FF48011C166E3
:1040800030BC46307047816F8968012280F8422039
:10409000D31E0B6100224A638A63CA630A6902F075
:1040A0000102002AFAD00B614A6C42F400424A64D1
:1040B000816F91F88F20022A0AD1CA6889699161BB
:1040C000816F0A69C9699161806F4169006A88617D
:1040D0007047000070B51C494FF4007451F820205F
:1040E0001568127902EB4203092A03D8260446EA2E
:1040F000035302E0154E06EB03531A434FF440738B
:1041000093FAA3F3B3FA83F3DC4005EB8403DC6A90
:1041100002F01F0224F01F041443DC6251F8202037
:104120001268D36C0123520102F18442C2F8783143
:1041300051F8200000680168C1F340010029FAD05D
:10414000C06C80B270BD00007C080020000020FE22
:1041500070B50D4C6078012814D12078FFF7BAFFB4
:104160006080014602206070084A207852F83030A2
:10417000002B07D0002502EBC00265705268BDE835
:104180007040184770BD00002E0600208C080020EB
:10419000F0B5FF23384C002254F82210E1B10D791C
:1041A0000679B54205D109680568A94201D11346CF
:1041B0000422521CD2B2042AEED3042B5AD22E4A25
:1041C0000021103244F8230042F8331001688A6855
:1041D00012F0010F04D019E0042BEAD91346E8E7E6
:1041E0004A6822F020024A6001686FF002020A6009
:1041F00001684A6822F080024A6001686FF0040298
:104200000A6001688A6842F001028A600168CA6A2D
:1042100022F47002CA62017904684FF0007509291E
:1042200001EB410202D845EA025202E0134E06EBCE
:1042300002521143826895FAA5F501F00070B5FAB3
:1042400085F5E84004EB8000C4684FF0F87595FAF6
:10425000A5F601F0F871B6FA86F621FA06F60727F8
:10426000B74095FAA5F5B5FA85F5E940BC438A4013
:104270001443C4601846F0BD7C080020000020FEF6
:10428000002181604160C16001610121416170478D
:1042900090F84800704701EB410100EB81008089F4
:1042A000704701EB410100EB8100B0F90E0070474F
:1042B00001EB410100EB8100B0F91000704701EB08
:1042C000410100EB81008281704701EB410100EB6D
:1042D0008100C281704701EB410100EB8100028245
:1042E000704770B5044694F82600FFF7F3FE0546C4
:1042F000A5F57F41FF3921D094F82510206A20F8D8
:10430000115000210020228B002A07D9236A33F89C
:1043100010C06144401CC0B28242F8D8B1FBF2F038
:10432000E080A58094F82500511E884203DA401CE5
:1043300084F8250002E0002084F82500204600F0E3
:1043400002F8208170BDC188428B914201D90220C0
:104350007047808B814201D2042070470020704753
:10436000418B828B11444A080021038B002B07D913
:10437000036A23F81120491C89B2038B8B42F7D8BA
:104380008280C280002180F82510704710B5044655
:1043900004F10C00FFF7FCFE84F826002046FFF72E
:1043A000DFFF10BDB0F90C007047B0F90400704792
:1043B000B0F910007047B0F90C10C1EBC131B0F981
:1043C000140091FBF0F000B2704730B4012590F872
:1043D00003C000230278B1F90040002C02DA6142E8
:1043E00089B200E00988848A8C4200D20123C48A01
:1043F0008C4200D90123B0F91210002902DA494297
:1044000089B200E0418A048B8C4200D2012323B19F
:10441000624505D2511CCAB202E0624500D20022B8
:10442000624500D100250270284630BC704770B547
:1044300004462178002909D06568E068012807D979
:10444000A2691544A0F10100E06008E0A568F4E766
:1044500005D160884FEA00454FF00000E060012977
:1044600005D0A560E81705EB1040001470BDE817F3
:1044700005EB104006146069FFF794FF301A01B293
:104480002069FEF70BFF65600104A16070BD017833
:10449000012903D100690021FEF7F8BE70472DE91C
:1044A000F04104460D46174601262078002809D021
:1044B0006068C11700EB11400114E08BA8420FDACD
:1044C00000261BE0204600F059F80146E08CA84287
:1044D00000DA0026B4F92800A8420FDD00260DE01E
:1044E000B4F92400A84201DD002607E0208CA84290
:1044F00004DDB4F92200A84200DA002676B187B1C3
:104500006580A08B78434FF47A72B0FBF2F0401CC8
:10451000E060691A090491FBF0F0A0613046BDE843
:10452000F08121782804012904D0A0600020E060F7
:10453000A061F3E76060F9E710B504466069FFF732
:1045400031FF0004606010BD81B0C18DADF8001076
:10455000008EADF80200009801B07047C08B704724
:104560004068C11700EB114000147047B0F92C00EF
:104570007047B0F924007047406970478068C117E0
:1045800000EB1140001470470161426190F82A105D
:104590000170818D09044160C18D09048160002191
:1045A0004180C1608161704701700021C160704726
:1045B000416170470021C16081617047002102782C
:1045C0000B2A04D1092101700021818001210846B4
:1045D00070470378B0F802C04CEA010C2CEA0202E2
:1045E0004280B0F804C04CEA010181800A2B05D05A
:1045F00012B10A2101700A2318467047002AFBD124
:104600000B2101700B23F7E78188408841EA0040C5
:1046100070470078704700210170418081807047A9
:1046200010B500240278152A49D2DFE802F01019EB
:10463000373C677980858A8F94940B2229304950C2
:104640006070590000293AD10A46012483E0032909
:1046500003D0012901D00C297DD10A4601247AE03A
:10466000072903D00D2901D00E2974D10A4601244F
:1046700071E00E2901D007296DD10A4601246AE0B4
:104680000F2901D0072966D10A46012463E00229D7
:1046900001D007295FD10A4601245CE007295AD1DD
:1046A0000A46012457E0072907D0102905D004291C
:1046B00003D0112901D001294DD10A4601244AE035
:1046C000112901D0072946D10A46012443E01229C5
:1046D00003D0072901D014293DD10A4601243AE02C
:1046E000122901D0072936D10A46012433E00429D2
:1046F00001D007292FD10A4601242CE0132903D029
:10470000072901D0052926D10A46012423E00429DE
:1047100003D0072901D005291DD10A4601241AE03A
:10472000062901D0072916D10A46012413E00729DA
:1047300011D10A4601240EE008290CD10A460124B1
:1047400009E0092907D10A46012404E009B10C292E
:1047500001D10A4601240CB1027009E0032907D0F7
:10476000012905D0072903D000228021FFF731FF5E
:10477000204610BD10B5084C2078022805D1FCF762
:104780004DFDFDF773F900202070C0B2401C207071
:10479000BDE81040FEF7AAB93206002030B593B04C
:1047A00030216846FBF758FD14210CA8FBF754FD97
:1047B0001D480025016841F080510160006800F04B
:1047C000805011901948016841F4804101600068EF
:1047D000022400F480401190012000900004019018
:1047E0008001CDE9064008AA0420A82182E8130030
:1047F0000B906846FCF7E4FE08B172B6FEE70CA920
:104800000F2081E831004FF4A0500F904FF48050FA
:10481000109005210CA8FCF7B3FD08B172B6FEE7B5
:10482000FCF76CFE13B030BD403802400070004011
:104830000548016841F47001016003494FF00060D0
:10484000803908607047000088ED00E0084810B526
:10485000806F80680169C1F3C01129B16FF08001D8
:1048600001610348FEF7D4FEBDE81040FEF74EB9E3
:10487000E001002004486FF00101806F8068016151
:104880000148FFF787BB0000E00100200848006AEC
:10489000C16811F0010F09D0016911F0010F05D0B5
:1048A0006FF0010101610248FBF76DBF7047000026
:1048B00094020020F0B40268DFF8B8C02E4C2F4DEF
:1048C0002F4E304B60450AD0B0F1804F07D0A04248
:1048D00005D0A84203D0B04201D0984203D122F0C3
:1048E00070024F683A43604528D0B0F1804F25D020
:1048F000A04223D0A84221D0B0421FD098421DD060
:10490000A0F18044B4F5A03418D0A0F18044B4F5EF
:10491000A23413D0A0F18044B4F5A4340ED0A0F199
:104920008044B4F5C05409D0A0F18044B4F5E054FB
:1049300004D0A0F18044B4F5005403D122F44072B5
:10494000CC6822434C6922F0800222438C68C46206
:104950000C688462604501D0984201D10969016305
:10496000016841F004010160012141610260F0BC75
:1049700070470000000001400004004000080040B3
:10498000000C004000040140D0F808C02CF47F4C1B
:1049900042EA0322114341EA0C01816070470000A2
:1049A00070B4026A036A23F0010303624368D0F81B
:1049B00018C02CF0700C2CF0030C0C6844EA0C0CA2
:1049C00022F002028C6822430F4C104DA04201D00D
:1049D000A84205D122F00802CE68324322F0040238
:1049E000A04201D0A84207D123F4807323F40073BE
:1049F0004C6923438C6923434360C0F818C049685D
:104A00004163026270BC7047000001400004014035
:104A100070B4026A036A23F0100303624368D0F89B
:104A200018C02CF4E04C2CF4407C0C684CEA042CAC
:104A300022F020028C6842EA0412114C114DA0426F
:104A400001D0A84206D122F08002CE6842EA0612C6
:104A500022F04002A04201D0A84209D123F4806391
:104A600023F400634C6943EA84038C6943EA8403BA
:104A70004360C0F818C049688163026270BC704727
:104A8000000001400004014070B4026A036A23F48C
:104A9000807303624368D0F81CC02CF0700C2CF0BB
:104AA000030C0C6844EA0C0C22F400728C6842EA95
:104AB0000422114C114DA04201D0A84206D122F48B
:104AC0000062CE6842EA062222F48062A04201D04F
:104AD000A84209D123F4805323F400534C6943EADC
:104AE00004138C6943EA04134360C0F81CC049688E
:104AF000C163026270BC70470000014000040140C5
:104B000010B4036A026A22F4805202624268D0F84A
:104B10001CC02CF4E04C2CF4407C0C684CEA042CB7
:104B200023F400538C6843EA0433A0F18044B4F5C5
:104B3000803404D0A0F18044B4F5823404D122F44E
:104B400080424C6942EA84124260C0F81CC0496845
:104B50000164036210BC704710B5002402689368BA
:104B600023F07003D1F804C04CEA030323F00703D9
:104B7000D1F800C04CEA030393604A6812F00F0FAB
:104B800034D11211082A31D2DFE802F0313131314B
:104B90000B242A040B698A68C9680068FFF7F4FED1
:104BA00025E00A68052A13D00268136AD2F820C0EB
:104BB0002CF0010CC2F820C00268D2F818C02CF00A
:104BC000F00C09694CEA01119161006803620EE082
:104BD000012010BD0A698968006800F00AF806E043
:104BE0000A698968006800F017F800E0012420468F
:104BF00010BD036AD0F820C02CF0010CC0F820C012
:104C0000D0F818C02CF0F00C4CEA021223F00A0382
:104C10001943826101627047036AD0F820C02CF00A
:104C2000100CC0F820C0D0F818C02CF4704C4CEA1E
:104C3000023223F0A00343EA01118261016270474E
:104C4000034900208988002900D101207047000015
:104C5000F0050020064810B50068FFF718F9044871
:104C600000228021BDE810401030FFF7B2BC0000E8
:104C70001806002010B500240648FBF7CAFCFBF715
:104C80008DFE012804D1002201210348FFF7A1FC79
:104C9000204610BD94020020280600202DE9F8438C
:104CA0000026ADF8006069466D48FBF7C9FC6D4F02
:104CB0003868FEF739FB07F10C00FFF7AAFC3C1F30
:104CC000DFF8A491A4F11C05A4F12008132845D213
:104CD000DFE800F00A467415728FA2AAB9BF4444F7
:104CE000444E5860273139006048FBF760FC0028CB
:104CF00034D000215D48FBF765FC0321AAE05B4846
:104D0000FBF75EFC38B12068FFF7BDF9142000F016
:104D100013F910219EE001215448FBF753FC0121B7
:104D200098E0FFF78DFF002818D000212068FEF7DB
:104D300039FB11218EE001212068FEF733FB0028AA
:104D40000CD0122186E04648FBF70AFD04212CE036
:104D50000020FBF7F1FD2068FFF7C3F8BDE8F883FA
:104D60002068FFF790F9142000F0E6F80D2171E0BB
:104D7000FFF766FF0028F1D000212068FEF712FB44
:104D80000E2167E001212068FEF70CFB0028E5D02A
:104D90000F215FE0012189F8241035492868FFF7C9
:104DA00007FC3248FBF710FC02212E480C30FFF7BD
:104DB00037FC0028CCD1D1E705214BE02B48FBF78D
:104DC000DDFB60B12068FFF762F801212868FFF77A
:104DD000EBFB23492868FFF7EBFB07213AE066F37A
:104DE0000F042868FFF723FB60F31F44C9F8104045
:104DF000B4E70020FBF728FE0020FBF785FD1948EB
:104E000006210C30FFF70CFC2868FFF795FBD8F85B
:104E10000000FDF7A3F9A1E7D8F80000FDF79EF91F
:104E20000020FBF771FD99E72068FFF730F80020BC
:104E3000FBF782FD3868FDF785FF4FF4487000F0FE
:104E400081F8082106E000F083F8002886D00921C7
:104E500000E0002103480C30FFF7E2FB7EE7000092
:104E6000940200201C060020E4070020100300200C
:104E70005C020020064810B50078012806D1002009
:104E800000F008F8BDE81040FFF762B910BD00005F
:104E9000F0050020F8B50446254800680090254834
:104EA00050F82400FEF786F9224F3DF814103F1DFC
:104EB00000EA010657F82400FEF772FA40EA0605F8
:104EC00044B9A7F12800006AFFF70BFABDF80010FB
:104ED00008400543E84382B2164804EB440114300D
:104EE00000EB410629463046FFF773FB3046FFF7DB
:104EF00090FB0A2806D00B2803D157F82400FEF7B0
:104F000085FBF8BD0B48083850F8240010B100218B
:104F1000FBF758FB57F82400FEF778FB2046FBF719
:104F20000BFD0448083050F82400FDF70BFFF8BDD6
:104F3000405C00081406002001498880704700008A
:104F4000F00500200149C88070470000F0050020EE
:104F500003490020C988002900D1012070470000C2
:104F6000F00500202DE9F041044620680169E2685F
:104F700021F44051114301612169A068E2690843AD
:104F80006169114301432068C26822F4037222F46C
:104F900014421143C16020684169A26921F4407143
:104FA000114341612068A0F18041B1F588312ED0D4
:104FB000A0F18041B1F58A3129D0FCF7ABFA8446E3
:104FC000E16900201927254D3226B1F5004F22D086
:104FD0006068830F8200ACFB0701FBF7F3F8014622
:104FE000A5FB002040097A42424301EB820106EB17
:104FF0000111A5FB0121490901F0F00202EB0010AB
:1050000001F00F01084421688860BDE8F081FCF7D9
:1050100091FA8446D4E761684A1840EB0003ACFB80
:105020000701FBF7CFF80346A5FB0010410918461E
:105030000A016FF01803594300EB810006EBC00032
:10504000A5FB0010400900F0F80102EB410100F05F
:105050000700084421688860BDE8F0811F85EB5196
:10506000002180F81C117047FBF72EBC08B5082101
:10507000009101236A46FF2100F081F808BD00007D
:1050800038B504462E4D94F81C01002855D0C8B2FE
:1050900094F81D1181B10023012916D094F89A20AB
:1050A000921C91421DD204F19902885494F81D017A
:1050B000401C84F81D0140E084F89900214D208AAD
:1050C0006082012084F81D0137E084F89A000220F4
:1050D00084F81D0194F89A0080282ED384F81D319D
:1050E0002BE084F81B01184D6382D4F820010C30AA
:1050F00050E8001F21F0200140E80012002AF7D1FB
:1051000084F81C3104F19900FBF7C6FB94F81B11DD
:1051100088420AD1D4F808C094F89A3094F89910CB
:1051200004F19B022068E04707E00A200090012379
:105130006A46FF21204600F022F8284638BD0000CC
:105140000C5F00080E5F0008105F000890F81C114B
:10515000002901D001207047002180F81D11012194
:1051600080F81C11D0F820010C3050E8001F41F0ED
:10517000200140E80012002AF7D10220704710B544
:10518000044694F89700002801D0012010BD04F1D6
:10519000160021756375591EC9B206D312F8013B7A
:1051A00000F8013B491EC9B2F8D204F11400FBF724
:1051B00073FB84F89600002184F89810012184F88C
:1051C0009710D4F820010C3050E8001F41F0800106
:1051D00040E80012002AF7D1022010BD014608461F
:1051E00091F89720002A1FD091F898204AB1012AFF
:1051F00009D04B7D9B1C9A4207D201F11403D25C6B
:1052000005E00A7D03E04A7D01E091F89620D0F8A0
:105210002031D2B25A604B7D91F898209B1C9A4263
:1052200003D2501C81F898007047D0F820010C3050
:1052300050E8002F22F0800240E80023002BF7D135
:10524000002081F8970008684968084781690029AB
:1052500000D0084770474169002900D008477047CF
:1052600070B5064C0546A06800F0ECF9A84204D1E0
:10527000A068BDE87040FFF7E9BF70BD34060020AC
:1052800070B5026A90F82C0001240F2952F82050C2
:105290002AD2DFE801F0291915082A2A111D212533
:1052A0002929292915002846FCF7C2FF06281CD108
:1052B0002846FCF7F3FF18E02846FCF7B9FF18B1C1
:1052C0002846FCF7E7FF10E02846FCF7D8FF0CE083
:1052D0002846FCF789FF08E02846FCF73BFF04E07E
:1052E0002846FCF72FFF00E00024204670BD10B5D3
:1052F000036A90F82C0001EB8101490053F820006B
:105300003C2391FBF3F109B2FCF75EFF012010BDD5
:1053100010B5036A90F82C0053F82000FCF75BFFEF
:10532000012010BD034689209A68002A01D0184642
:1053300010477047002070472DE9F0410646436A48
:1053400090F82C00346A53F8203054F82050002094
:10535000012702B117700A2423296FD015DC2329F5
:1053600042D2DFE801F0474B50747E5557596C919B
:10537000939570979CA14141414141414141415B1D
:1053800060A6AFB165FDFC41FB004FF0020C302977
:105390006FD00BDCA1F124010C2925D2DFE801F04C
:1053A000E7E6E5F9FD4F53E4E3E2E1A66E2961D0BB
:1053B0000EDC40297ED006DC3D297CD03E297BD006
:1053C0003F2911D1C8E041293DD05B290CD143E0F0
:1053D00072290DD004DC6F2951D0702904D12BE043
:1053E000732905D0812903D0002A01D00021117032
:1053F000BDE8F081304600F025F9F9E7986ABDE88C
:10540000F041FFF701B9986ABDE8F041FFF701B933
:10541000186840E0186843E0186846E0186BBDE87B
:10542000F04100F08DBAD86ABDE8F041FDF7E4BE66
:105430002846FCF7DCFEA6E06F48D9E7B9E028462D
:10544000FCF7E8FED0E02846FCF7E4FED1E0284671
:10545000BDE8F041FCF7D3BE2846FCF7D0FE01289A
:1054600003D02846FCF7E1FE8DE02846FCF7D5FE88
:1054700089E056E01868BDE8F041FDF7FBBE18680A
:10548000BDE8F041FDF7F1BE586804E0586807E058
:1054900058680AE09868BDE8F041FDF7E8BE9868F2
:1054A000BDE8F041FDF7DEBE9868BDE8F041FDF7CC
:1054B000D6BE02E064E00CE010E0D86BBDE8F0413D
:1054C000FDF74DBC002100E001213046FFF72AFF27
:1054D0008EE73269002A8BD0002103E03269002A6E
:1054E00086D001213046BDE8F041104796F82C20C7
:1054F000B16A51F822200021BCEB127F02D0B7EB39
:10550000127F00D19969C2F30362022A01D0012AF5
:1055100000D1D969002990D0BDE8F0410846FEF7D6
:1055200044BF96F82C20B16A51F822200021BCEB30
:10553000127F02D0B7EB127F00D19969C2F30362E8
:10554000022A01D0012A00D1D9690029C0D0BDE8C2
:10555000F0410846FEF72FBF586A09E021E01CE041
:1055600017E043E03DE038E033E02EE029E024E0BE
:10557000FEF7F4FFC0EB00108000B0FBF4F037E75B
:10558000586AFEF7F6FFC0EB0010800090FBF4F0C5
:105590002EE72846FCF73BFE26E02846FCF737FEC0
:1055A00027E05969002993D0BDE8F0410846FEF78D
:1055B0006FBE2846FCF725FE16E02846FCF721FEC4
:1055C00017E02846FCF720FE0EE02846FCF71CFEFC
:1055D0000FE02846FCF737FE06E02846FCF733FECE
:1055E00007E02846FCF72BFE00B201E72846FCF74F
:1055F00026FE0014FCE600007A84A6342DE9F0476C
:105600008846416A90F82C00DDF820901E4651F83B
:10561000200017460125446984B141462046FEF723
:105620003AFE388041462046FEF73BFE3080414638
:105630002046FEF73DFEA9F8000000E000252846C0
:10564000BDE8F08790F82C00704710B5FDF748FAD8
:1056500018B1BDE81040FDF77BBABDE81040FDF77A
:1056600071BA10B5029C01770021C0E9082380F8C7
:105670002C10846210BD00000948418811B1418896
:10568000491E41808188012902D98188491E818073
:105690000188012902D90188491E01807047000054
:1056A0003406002002460120137F8B4201D80020DF
:1056B000704782F82C10704701494F20888070474E
:1056C00034060020014900208880704734060020FD
:1056D00030B4046A90F82C0061F30F03194654F8B3
:1056E000200030BC62F31F41FCF7BABD4368002BB9
:1056F00000D0184770472DE9F04115460246036A6D
:1057000090F82C0001262CB253F82070536A0A2915
:1057100053F8200053D008DC0A2916D2DFE801F044
:105720001915152D1527292B444A0E295DD006DCA5
:105730000B2949D00C294CD00D2906D153E00F2953
:1057400055D0412955D05B2909D000263046BDE807
:10575000F081E9B21046FFF7A5FF0646F6E705EB34
:10576000850040003C2190FBF1F001B217E0006899
:1057700021E0006824E0006827E015F0FF0F07D162
:105780003846FCF758FD014600223846FCF723FD59
:10579000E8B20128DAD13846FCF747FD014600227D
:1057A0003846FCF711FDD1E73846FCF733FD64F3CA
:1057B0000F0013E040682146FDF76EFDC6E7406824
:1057C0002146FDF767FDC1E740682146FDF760FD12
:1057D000BCE73846FCF71EFD64F31F40014638461F
:1057E000FCF73EFDB2E78068E5E78068E8E780689F
:1057F000EBE721463846FCF73DFDA7E72DE9F041F0
:105800000D46416A90F82C001E46069C51F8200077
:10581000294647693846FEF752FD32462946384642
:10582000FEF753FD224629463846FEF754FD012077
:10583000BDE8F0812DE9FE4F1F4C1E4E91468A4671
:1058400005460C9F984630221C493046A660FAF760
:10585000EAFC43464A46514630460095FFF701FFB1
:10586000A068FFF7F8FC23220021A068FFF73EFFA5
:1058700024220121A068FFF739FF114830220F4987
:10588000E060FAF7D0FC0F48FFF7EEFBA0680E4986
:10589000CDE9001002970D4B0D4A0A49E068FCF76C
:1058A000B5FD009543464A465146E068FFF7D9FEEC
:1058B000BDE8FE8FAC030020340600207C030020EE
:1058C000AC080020B4040020615000084D510008CD
:1058D0007F51000810B5194CD4F820010168C1F3BC
:1058E000401179B14068C1B22046FFF7C9FB00887A
:1058F000012802D0022803D004E0FFF7DDFE01E01A
:10590000FFF7E0FED4F820010068C0F3C01010B12A
:105910000A48FFF763FCD4F820010068C0F3C00018
:1059200000280AD00548FFF7A1FBD4F82001FCF7B6
:1059300003FCBDE81040FFF7C5BE10BDB404002055
:10594000C18840884843000C704700218180C18095
:105950008181C181418201700162416201850186BC
:1059600080F82C1080F82D10C28EC28580F832107D
:1059700080F83310704710B5FFF7E7FF10BD70B423
:1059800090F82C30002B22D11AB3838E5A434FF457
:105990007A73B2FBF3F2521C92B20285B0F90E3068
:1059A00090F801C093FBFCF5C46904FB01F6448B3D
:1059B00004EB8404640096FBF4F4641B240494FB5D
:1059C000F2F20CFB02F2026241851904416270BCE2
:1059D00070478181C26902FB01F3428B02EB8202B4
:1059E000520093FBF2F2437812FB03F2C2810022D1
:1059F0000285418570BC70470186427891FBF2F2C6
:105A0000C2808180704702E008C8121F08C1002AC6
:105A1000FAD170477047002001E001C1121F002A2F
:105A2000FBD170471CB5FBF701FCFEF7B7FEFDF795
:105A300071FAFDF797F9FDF701FA00241E49009469
:105A40001C48019408600846FBF787FA08B172B653
:105A5000FEE73C2000900220019000226946164893
:105A6000FBF74AFA08B172B6FEE7102269461248FF
:105A7000FBF742FA08B172B6FEE7FDF7DBFAFDF775
:105A800063FB0D480D49A43001604FF4E131C0E9DA
:105A900001140C21C460C0E904418461C461FCF7B5
:105AA00069FA08B172B6FEE7FDF774FAFDF78EFAEF
:105AB000FEE7000000740040E406002000100140F2
:105AC00070B5204C40212046FCF7FDFA802120468D
:105AD000FCF7F9FAA1151C4C2046FCF7F4FA611505
