:020000040800F2
:10000000600D00209D010008A501000821240008C2
:10001000A9010008AB010008AD01000800000000C4
:10002000000000000000000000000000AF01000818
:10003000B101000800000000B3010008A94B00084E
:10004000B7010008B7010008B7010008B7010008B0
:10005000B7010008B7010008B7010008B7010008A0
:10006000B7010008B701000819040008B70100082B
:10007000B7010008B7010008B7010008B701000880
:10008000B7010008B70100080D030008B701000818
:10009000B7010008B7010008B7010008B701000860
:1000A000A14C0008D54C0008B7010008B7010008B2
:1000B000B7010008B7010008B7010008B701000840
:1000C000B7010008B7010008B7010008B701000830
:1000D000B7010008515F0008B7010008B701000828
:1000E000B7010008B7010008B7010008B701000810
:1000F000B7010008B7010008B7010008B701000800
:10010000B7010008B7010008ED4C0008B70100086E
:10011000B7010008B7010008B7010008B7010008DF
:10012000B7010008B7010008B7010008B7010008CF
:10013000B7010008B7010008B7010008B7010008BF
:10014000B7010008B7010008B7010008B7010008AF
:10015000B7010008B7010008B7010008B70100089F
:10016000B7010008B7010008B7010008B70100088F
:10017000B7010008B7010008B7010008000000003F
:10018000B7010008B7010008DFF80CD000F07AF8DA
:1001900000480047E15F0008600D002006488047E6
:1001A00006480047FEE7FEE7FEE7FEE7FEE7FEE75C
:1001B000FEE7FEE7FEE7FEE7854C00088901000840
:1001C0002DE9F05F0546002092469B46884606468C
:1001D000814640241BE0284641464746224600F01F
:1001E00041F853465A46C01A914110D31146184659
:1001F000224600F028F82D1A67EB01084F462246E8
:100200000120002100F01FF817EB00094E41201ECD
:10021000A4F10104DFDC484631462A464346BDE8E6
:10022000F09FD2B201E000F8012B491EFBD27047CB
:100230000022F6E710B513460A4604461946FFF7B2
:10024000F0FF204610BD202A04DB203A00FA02F11C
:10025000002070479140C2F1200320FA03F31943B4
:1002600090407047202A04DB203A21FA02F0002156
:10027000704721FA02F3D040C2F1200291400843B6
:10028000194670471CB50948009009480190054679
:10029000009C06E0E06840F0010394E807009847FE
:1002A0001034AC42F6D3FFF773FF0000806A0008F9
:1002B000A06A000870B58C1810F8015B15F00703F0
:1002C00001D110F8013B2A1106D110F8012B03E0EF
:1002D00010F8016B01F8016B5B1EF9D12B0705D4F7
:1002E0000023521E0DD401F8013BFAE710F8013B40
:1002F000CB1A921C03E013F8015B01F8015B521E5C
:10030000F9D5A142D8D3002070BD000080B542F2DB
:100310000000C4F201000168490758BF00F50070F1
:10032000016821F00C01016004F0B0FEBDE88040DE
:1003300005F0C0B9038811FB01F211FB31225B43C8
:100340009A429EBF080CC1EA0040704790F8B23054
:100350000FFA81FCC3EB1262D2B200EB420080883C
:100360000A140CFB00F15043CB17C21701EB5341A9
:1003700000EB5240C913C0F3CF30C1EA00407047D0
:10038000B0B590F830100022044605F01DFA47F28F
:100390000445C4F20005A96800B24FF6F07200F5FA
:1003A000004091430843A8602868002240F0010003
:1003B000286094F83110204605F006FA696900B209
:1003C00000F500406FF30F1108436861286840F0A2
:1003D00002002860B0BD0000084490F8300070476B
:1003E00000EB4100B0F932007047000047F20040D6
:1003F000C4F20000016841F001010160016841F4AC
:100400008031016070470000084480F83020704758
:1004100000EB41004286704743F61440C4F20100ED
:100420000168C90658BF70471021016005F0C6BBBE
:1004300080B14278017811443AB1042A02F0030CE9
:100440000CD20022BCF1000F25D188B201EB1020A4
:10045000C0B270470020C0B2704700BFF0B502F0D4
:10046000FC02031FC2F1000E6FF003029C79DD79DC
:100470001E7A21445F7A2944043231440EEB02048F
:100480003944043403F10403F0D10432BDE8F040F0
:10049000BCF1000FD9D00230835CBCF1010F1944CC
:1004A000D3D010444278BCF1020F11441CBF8078B5
:1004B000014488B201EB1020C0B270470021A0F8BF
:1004C0001B1180F81D11C0F81210C0F8961080F8AA
:1004D0009A10704700281CBFDDF800C080E80E109D
:1004E0007047000040F24C61C2F20001262210FB6E
:1004F000021292F87C30002B18BF704710B501EB48
:100500008000406902F1580404F0FAF8E083208288
:10051000BDE810407047000010B540F24C61C2F2D7
:100520000001262201EB800410FB0212A0690023C7
:1005300000219365D36553669366C2F86E30C2F8A6
:100540007230C2F8763003F00DF8E069002103F054
:1005500009F8606904F000F9E068BDE8104003F0B4
:1005600069B9000070470000B0B5044690F8490032
:10057000012811D1E06A806AB4F8AE20904213D20B
:10058000B4F8A400E08198B147F6FF72904211D10F
:10059000B4F8B0002EE000BFE07800222070002008
:1005A000E2810A80A281B0BD0020E08122E000BF8C
:1005B00000201FE094F8C7200FFA80FC12B100223F
:1005C0000BE000BFB4F8AA20A388D31AB4F8C42063
:1005D0001DB295FBF2F2A4F8A830638BE569607850
:1005E0000CFB03F303EB830368435B0093FBF0F026
:1005F000A4F8AC20088020460D4604F053F82A8861
:10060000A281B0BDC18947F6FF72914206D1B0F810
:10061000A01082880A44828010B27047B0F8AA20E5
:1006200083880A44A0F8AA20B0F8AC20A0F8A01053
:100630000A441A44828010B270470000C16A012344
:10064000CA6822F00202CA60002280F84A2080F8BC
:100650004B2080F84930428280F84C2080F84D20B1
:1006600080F84E2080F8A230B0F8AE30A0F8AC2070
:1006700080F8982002708B624A620A6842F0010298
:100680000A60CA6842F00202CA6000F0A5B8000021
:1006900070B5C28A4378D0F828E002FB03FC828A56
:1006A000C16A1FFA8CF45A434FEA420C4FEA1E43C8
:1006B000A208A0F8C23007D002EB4202520042F278
:1006C0001074B4FBF2F200E0962244F6D354534384
:1006D000C1F26204A3FB04464AF6AB24A0F8C02092
:1006E000B209CAF6AA24A0F8AE201204AEFB044355
:1006F000C0F8B820428B9C08B4FBF2F4C569A0F89E
:10070000B0C06543C0F8B45023F0030505EB930374
:100710005B001FFA8CF5B3FBF5F390F8C650848CA0
:100720006A43B2FBF4F2C0F8BC30013AA0F8C4202E
:10073000012280F8492090F848208B6923F0F003CB
:1007400043EA02128A61C6F38F128A624A6942F052
:1007500001024A6100220A610B6843F004030B6046
:10076000CB6843F00203CB60CB6843F00103CB605E
:100770004A620A6A42F001020A620A6842F0010211
:100780000A6090F826202AB3D0F8B810042A02F0A4
:10079000030C01D200230CE002F0FC02002300BF96
:1007A00000EB830604339A42C6E91411B165F16582
:1007B000F6D1BCF1000F08BF70BD5030BCF1010F85
:1007C00040F8231006D000EB8300BCF1020F41601B
:1007D00018BF816070BD000010B590F8201000298E
:1007E00034D000F1380E9EE81840D0E90CC2416CBC
:1007F0001B6923401B1BDEF81040B3FA83F30C4047
:10080000611AB1FA81F14909DCF810405B0949002D
:1008100041EA830104EA02039A1AB2FA82F2520907
:10082000114481F004014A1E052A80F8A61031D82F
:10083000DFE802F004504048385800BF418C43F6CE
:10084000FF7211448180A0F8AA1010BDD0E91034C5
:10085000D0E90CC2D0E90EE11B6923401B1BDEF876
:100860001040B3FA83F30C40611AB1FA81F14909DF
:10087000DCF810405B09490041EA830104EA020305
:100880009A1AB2FA82F2520911444A1E052A80F8D5
:10089000A610CDD98188002280F84920A0F8AA109E
:1008A00010BD00BF418C41F2555211448180A0F827
:1008B000AA1010BD418C46F6AA2211448180A0F8EE
:1008C000AA1010BD418C41F25552891A8180A0F8BE
:1008D000AA1010BD418C46F6AA22891A8180A0F880
:1008E000AA1010BD418C43F6FF72891A8180A0F8CE
:1008F000AA1010BD2DE9F04190F84980B8F1010F20
:1009000040F0538190F82010D0F82CE090F8A2C06D
:1009100090F8A62061B300F13007FACF24692C408B
:10092000641B356909693D40ED1BB5FA85F5194031
:10093000B4FA84F46D09C91A64096D00B1FA81F141
:1009400045EA84044909214481F004014B1E052B2A
:1009500080F8A6102AD8DFE803F00341353B2F4783
:10096000032A5DD0052A40F07A80012243E000BFCF
:1009700000F13007FACF3669246909692C403E40FE
:10098000641BF61BB4FA84F41940B6FA86F66409BF
:10099000C91A76096400B1FA81F144EA860449096A
:1009A00021444B1E052B80F8A610D4D94FF0000827
:1009B00080F8498053E000BF012A1BD0042A4ED1A1
:1009C000012228E0022A1DD0012A48D1012228E074
:1009D000052A1FD0062A42D1012230E0062A27D05C
:1009E000032A3CD101220EE0042A27D0022A36D164
:1009F00001221EE0FF22418C42F6AA2380F8A220A9
:100A00000B4422E0FF22418C47F6FF7380F8A220BE
:100A10000B441AE0FF22438C80F8A22015E000BFAF
:100A2000FF22418C45F2555380F8A2200B440CE084
:100A3000FF22418C45F2555304E000BFFF22418C58
:100A400042F6AA2380F8A220CB1A6245A0F8AA3069
:100A50001EBF002180F84D1080F89810944690F841
:100A6000C710012904BFB0F8AA10818090F84C107B
:100A7000F1B190F8262090F84D10914204D290F8F0
:100A80004D10013180F84D10DEF83410DEF82840AA
:100A900090F84E3090F84E50C1EA034395B190F86B
:100AA0004B100134012915D1002180F84B1032E0A0
:100AB00090F84C10013180F84C10DEF83400002022
:100AC000BDE8F08190F84A50012D13D10234002185
:100AD0001FE000BFDEF82810B0F8AE50A9421AD2CD
:100AE000DEF828100131CEF82810012180F84B10D3
:100AF00011E000BF89B2090A542904F101040AD89F
:100B0000DEF8281039B1DEF828100139CEF82810A7
:100B1000012180F84A10A1B2D0F8BC704B43BB420F
:100B200040D390F8981000F1500555F82170D0F896
:100B30009C604FFA8CF4F71BD0F8B860C0F89C703A
:100B4000B3420BD203FB04F745F82170D0F89C7038
:100B500003FB0477C0F89C7004E000BF06FB04F7B9
:100B600045F821700131CFB2BF1A18BF0F46B8F156
:100B7000000F80F8987009D090F84D10914207D27C
:100B8000D0F8B410B1FBF3F1614309E0002107E0B4
:100B9000D0F89C10D0F8B43091FBF2F193FBF1F156
:100BA000A0F8A410002180F84E100020BDE8F081CC
:100BB00090F8491001295AD1C16A90F84E200132AB
:100BC00080F84E20B0F8C020B0F8C230896A5A438D
:100BD0004FF47A73594301F57A71B2FBF1F190F851
:100BE0004E2089B2914242D870B50026C681044693
:100BF000FFF7F2FD84F84E6084F84C6094F826000C
:100C000040B1D4F8B810042800F0030C04D200233B
:100C10000FE000BF00201DE000F0FC02002300BF39
:100C200004EB830504339A42C5E91411A965E9650B
:100C3000F6D1BCF1000F0DD004F15002BCF1010F50
:100C400042F8231006D002EB8302BCF1020F516080
:100C500018BF916084F84D60D4F8B810A4F8A4606F
:100C6000484384F89860C4F89C00BDE870400020B8
:100C70007047000090F83C20012A04BF0220704712
:100C8000F0B5D1F800E001221FFA8EF77B0080F862
:100C90003C200EEB4E0413FA8EF31022BEF1090F26
:100CA00088BFA3F11E0488BF0C2203684FF0070C15
:100CB0009E580CFA04F526EA05069E508E689D584B
:100CC00006FA04F646EA05069E509A6B98BF7746E8
:100CD00022F440129A63D1F804C00A6900258C6995
:100CE000CFF6F0759E6B05EB0255ACEB0202354377
:100CF00003329D63D5B2AD0055FA82F21F259E6B7B
:100D0000954026EA05059D639D6B07FA02F22A438A
:100D10009A639A68012522F470229A609A68C0F258
:100D20000F05AC4202D122F4401208E022439A603F
:100D30009A6822F440129A60CA699C6822439A60B9
:100D40000A7D4C7D5D68002C25F4806518BF05F593
:100D500080655D605C68002A24F48054ACF1010277
:100D60004FF0200618BF04F580545C601427032A56
:100D700038BF07EB82069A5940F6FF77BA439A517B
:100D8000CA689F5942F20431C4F201013A43A1F505
:100D90004177BB429A5105D0002180F83C100020D9
:100DA000F0BD00BFBEF1120F02D14FF4800205E08A
:100DB0002EF00102102AEFD14FF400020B681A4303
:100DC0000A60002180F83C100020F0BD70B581B0B1
:100DD0000022009290F83C20012A03D1022001B0A9
:100DE00070BD00BFD1F800E001221FFA8EFC4FEA6F
:100DF0004C0380F83C200EEB4E0213FA8EF31024C5
:100E0000BEF1090F88BFA3F11E0288BF0C2403683E
:100E100007251E59954026EA05051D518D681E5966
:100E200005FA02F232431A514968062906D801EB45
:100E300081014A1F194651F8345F0EE00C2901EB7D
:100E4000810105D8A1F12302194651F8305F04E071
:100E5000A1F14102194651F82C5F1F24944025EA64
:100E600004040C600CFA02F20C6842F2043CC4F276
:100E7000010C2243ACF54174A3420A603ED1BEF19D
:100E8000120F07D1DCF8001041F48001CCF80010FB
:100E900034E000BF2EF0010110292FD1DCF8001042
:100EA000BEF1100F41F40001CCF8001026D140F241
:100EB0004C41C2F2000109684DF68362C4F21B3254
:100EC000A1FB0212910C01EB8101490000910099F4
:100ED000A1B1009901390091009979B100990139C6
:100EE0000091009951B1009901390091009929B1FF
:100EF00000990139009100990029EAD1002180F878
:100F00003C10002001B070BD002804BF01207047D4
:100F100010B5016C00293DD0016CC90645D4016CA7
:100F200041F202129143023142F204320164C4F2EE
:100F30000102116821F440311160136890E8121029
:100F40002343D0F810E013604A68012422F4807231
:100F50004A604A68C0F6007442EA0E224A604A6853
:100F600022F040724A604A6842EA0C024A608A688B
:100F700022F400628A60C2688B681A438A60826ABF
:100F80008B68A24223F070638B608B6810D123F0D2
:100F9000405216E0044600F065F8204600216164E6
:100FA00084F83C10016CC906B9D5012153E000BF9B
:100FB0001A438A608A6822F040528A60C26A8B684B
:100FC0001A438A608A6822F002028A608A68037E75
:100FD00090F8204042EA43028A604A6884B142F4B1
:100FE00000624A604A684EF2000322F460424A609E
:100FF000426ACFF6FF734C6803EB4232224301E0B2
:1010000022F400624A60CA6A40F2000C22F47002C4
:10101000CA62C3694269CFF6F07CCC6A0CEB035319
:101020002343CB628B6823F400738B6090F83030DD
:101030008C6844EA43238B608B6823F480638B6065
:101040008B6843EA82228A6000214164026C01239A
:1010500063F301020264002280F83C20BDE81040E6
:10106000084670472DE9F04186B0006842F2001250
:10107000C4F2010200219042CDE90411CDE9021130
:1010800001912DD042F20001C4F20101884261D1E8
:10109000002043F630010090C4F202014A694FF08B
:1010A000030842F480724A614A6902F48072009235
:1010B000009A00900A6842F001020A600A6802F091
:1010C00001020092009A0090086840F00200086057
:1010D000086800F0020000900098492025E000BF59
:1010E00043F630000091C4F2020042694FF001085B
:1010F00042F400724261426902F400720092009A66
:101100000091026842F001020260026802F00102EE
:101110000092009A0091016841F0020101600068AC
:1011200000F002000090009848200024C4F202045D
:1011300001AD019003270026204629460297039619
:1011400000F082F804F580602946CDE90187039616
:1011500000F07AF806B0BDE8F08100004379012B79
:101160004FF002031FD010B50371D0F800E040F635
:10117000FE73DEF800C0D1E90014934021432CEA4D
:10118000030391401943CEF80010C021DEF800306F
:10119000914023EA0101CEF80010012100230171E2
:1011A0004371BDE81040184670470000002804BF96
:1011B00001207047017941B910B500214171044601
:1011C00000F00CF82046BDE810400221017100211A
:1011D00001220161027108467047000080B586B0A7
:1011E00047F200410068C4F20001002288420592E3
:1011F000CDE903220292019202D006B080BD00BF69
:1012000043F630000092C4F20200036943F0005339
:101210000361036903F000530093009B009203688D
:1012200043F001030360006800F0010000900098A3
:10123000302001900320CDE9020201F5C63001A95A
:1012400000F002F806B080BD2DE9F04F86B08B4665
:1012500000F1200100F13E4741F60045019107F100
:10126000FF77C4F2020508214FEAB7260290A84290
:1012700008BF0721072E38BF4FEAB7214FF0010CF6
:1012800000274FF000084FF000090091CDF80CB096
:101290000AE000BF08F1020809F10109B8F1200FC6
:1012A00007F1040700F0B880DBF800500CFA09FEE3
:1012B00015EA0E00EED0DBF804A00490BAF1120F8C
:1012C00000F2A2800CFA0AF515F0061F00F09C80CF
:1012D000029803218568DBF80C6001FA08F4A54345
:1012E00006FA08F63543856046686FEA040C4FEA53
:1012F0001A144FEA490226EA0E0604FA09F4964641
:1013000026434660C668DBF8084006EA0C0604FA85
:101310000EF426434AF01004122CC66013D16FF06D
:10132000030101EA5906019907F01C028C590F23A9
:10133000DBF81050934024EA030305FA02F21A4343
:101340008A51DBF804A002680AF0030302EA0C02E7
:1013500003FA0EF111430160DDF80CB0049C5FEA62
:10136000CA024FF0010C95D5002043F644020590C7
:10137000C4F20202116843F6004541F48041116055
:101380001168C4F2010501F480410591059929F025
:1013900003014FF6084E2944CFF6FF7E07F00C03F9
:1013A0000F2051F80E2000FA03F60098B24300FA1D
:1013B00003F31A4341F80E202968DBF8042041EAC0
:1013C0000403D60358BF21EA04032B60696896031F
:1013D00041EA040358BF21EA04036B60A968D602FE
:1013E00041EA040343F60C4658BF21EA0403AB600C
:1013F000C4F201063168920241EA040358BF21EAAF
:101400000403336046E700BF032000FA08F50298A2
:101410006FEA050CC64675E706B0BDE8F08F000020
:10142000002A08BF090481617047000040F6581087
:10143000C2F200000068704740F2000040F6581108
:10144000C2F20000C2F2000100780A68104408608D
:101450007047000080B543F60040C4F20200016806
:1014600041F400710160016841F48061016001682C
:1014700041F480710160032000F088F8042000F03E
:1014800005F800F027F8002080BD000070B540F29C
:101490000006C2F2000640F24C413278C2F200016E
:1014A0004FF47A730968B3FBF2F20446B1FBF2F130
:1014B000084600F067FB0F2C4FF0010508D838B93B
:1014C0004FF0FF3021460022002500F033F8746011
:1014D000284670BD82B0002043F640010190C4F25E
:1014E00002014A6842F480424A604A6802F480423B
:1014F0000192019A0090086840F0805008600868E6
:1015000000F0805000900098042002B000F03EB837
:10151000002848BF704700F01F01012202FA01F1C4
:101520001C2202EAD0004EF20012CEF200028150DC
:101530007047000010B54EF60C5CCEF2000CDCF8E3
:101540000030C3F3022E8EF00704042C28BF0424BD
:10155000BEF103034FF0FF3E0EFA04F438BF002340
:10156000A14399400EFA03F39A43114300F00F028E
:1015700000F160430901043A03F564436244002822
:1015800048BF02F10C03197010BD00004EF60C515B
:10159000CEF200010A684FF6FF031A4060F30A22F8
:1015A00042F0806040F0FD7008607047002804BF82
:1015B000012070472DE9F04143F60808C4F2020803
:1015C0000446D8F8F8030D4600F00F00814207D911
:1015D00088F8F853D8F8F80300F00F00A84277D144
:1015E0002068810717D5410705D5D8F8001041F4C8
:1015F000E051C8F80010010705D5D8F8001041F4F3
:101600006041C8F80010D8F80010A26821F0F0017D
:101610001143C8F80010C00740D1D8F8F80300F013
:101620000F00854207D288F8F853D8F8F80300F085
:101630000F00A8424CD12068410707D5D8F8001008
:10164000E26821F4E0511143C8F80010000708D502
:10165000D8F80000216920F4604040EAC100C8F8D1
:10166000000000F089F8D8F8001046F2AA72C1F321
:101670000311C0F60002515C40F24C4220FA01F125
:1016800040F20400C2F200000068C2F200021160E1
:10169000FFF7FCFE0020BDE8F08100BF6068811EFE
:1016A000022907D258F8081C89015CBF0120BDE857
:1016B000F08111E0012807D158F8081C89035CBFAC
:1016C0000120BDE8F08107E058F8081C890703D421
:1016D0000120BDE8F08100BFD8F8001021F003011F
:1016E0000843C8F80000FFF7A1FE064641F288371C
:1016F000D8F80000616800F00C00B0EB810F8CD0CE
:10170000FFF794FE801BB842F2D90320BDE8F081B8
:101710004C20C4F2472001210160704740F24C4048
:10172000C2F200000068704740F24C4043F60801E6
:10173000C2F20000C4F202010068096846F2BA72FF
:10174000C1F38221C0F60002515CC840704700001E
:1017500040F24C4043F60801C2F20000C4F202011C
:101760000068096846F2BA72C1F34231C0F600025D
:10177000515CC8407047000010B543F60404C4F241
:1017800002046168C1F3810142F20040C0F2F4003A
:10179000DFE801F002040A0210BD00BF41F20020A0
:1017A000C0F27A0010BD00BF216801F03F0221683D
:1017B00023684902C3F3881106D4A1FB000100236A
:1017C000FEF7FEFC07E000BF41F20020C0F27A0005
:1017D0004843B0FBF2F021680222C1F3014102EB61
:1017E0004101B0FBF1F010BD002804BF012070479B
:1017F0002DE9F04182B00446007843F60006C007A8
:10180000C4F202060CD0B06800F00C00042840F0CE
:1018100081803068800303D56068002800F05E8115
:10182000207880071BD5B06810F00C0F09D0B06885
:1018300000F00C00082840F087807068400200F13A
:1018400083803068800703D5E068012840F0468136
:101850003068216920F0F80040EAC100306020784B
:10186000000713D4207840072AD4A569002D00F082
:101870003081B06800F00C00082840F0A580012DF0
:1018800040F00C81012002B0BDE8F08160690028C1
:1018900000F082800020C4F247200121C0F8801EA1
:1018A000FFF7C4FD054600BF706F8007DAD4FFF76D
:1018B000BDFD401B0228F7D9032002B0BDE8F0812E
:1018C000306C5FEAC0080AD400200190306C40F010
:1018D00080503064306C00F080500190019847F2E5
:1018E0000007C4F200073868C00547D4386840F4E0
:1018F00080703860FFF79AFD054600BF3868C00564
:101900003CD4FFF793FD401B0228F7D9032002B017
:10191000BDE8F081B06800F00C00082803D17068C1
:1019200040023FF576AF61683068B1F5803F07D07F
:10193000B1F5A02F40F0988040F4802030603068EE
:1019400040F48030306098E0E068002840F2000009
:10195000C4F247205CD001210160FFF767FD054616
:10196000306880073FF574AFFFF760FD401B022829
:10197000F6D9032002B0BDE8F08100BFA168306F46
:10198000012905D0052955D140F004003067306F9A
:1019900040F00100306756E00020C4F247200021EB
:1019A000C0F8801EFFF742FD054600BF706F80073C
:1019B0007FF558AFFFF73AFD401B0228F6D9032008
:1019C00002B0BDE8F08100BF0027C4F24727002025
:1019D0003866FFF72BFD022D05460DD130688001DA
:1019E00040F18080FFF722FD401B02284FF00300EA
:1019F000F4D902B0BDE8F0813068800169D5FFF705
:101A000015FD401B02284FF00300F5D9F1E700BF98
:101A100000210160FFF70AFD054600BF306880071E
:101A20007FF51DAFFFF702FD401B02284FF00300BA
:101A3000F4D9DEE720F001003067306F002920F094
:101A40000400306770D0FFF7F1FC054641F288379B
:101A5000306F80077AD4FFF7E9FC401BB842F7D912
:101A6000032002B0BDE8F08120F48030306030689F
:101A7000002920F48020306072D0FFF7D7FC0546A3
:101A8000306880033FF5CCAEFFF7D0FC401B6428E4
:101A9000F6D9032002B0BDE8F08100BF7068E169AB
:101AA00000F480028A4219D1216A00F03F028A4282
:101AB00014D147F6C071626A014091420ED1A16A09
:101AC00000F440328A4209D1E16A00F07060884235
:101AD00004D1002002B0BDE8F08100BF012002B0B7
:101AE000BDE8F08104F11C052FCD084340EA8210C7
:101AF000D9034FF6FF729143A1F5803140EA0560AA
:101B00000843706001203866FFF790FC044600BF70
:101B100030688001DDD4FFF789FC001B02284FF0FC
:101B20000300F5D965E700BFFFF780FC054641F2E9
:101B3000883700BF306F800708D5FFF777FC401B60
:101B4000B8424FF00300F5D953E700BFB8F1000FDA
:101B50003FF58BAE306C20F08050306485E600BFDE
:101B6000FFF764FC054600BF306880037FF558AE80
:101B7000FFF75CFC401B64284FF00300F4D938E702
:101B800070470000411E0020B0EB116F1CBF012008
:101B900070474EF21002CEF2000251604EF6235111
:101BA000CEF20001F0230B700721906011607047A6
:101BB000FFF7E6BF90F83C20012A04BF02207047DF
:101BC000B0B501F108053CCDD1E900CE23F47C533A
:101BD00022F470521A432EF4F0431A432CF4E043DB
:101BE0001A4324F4C0431A432A43C96922F48042A9
:101BF000036811435964002180F83C100020B0BDF7
:101C000070B588B0002851D0044690F83D000D46CC
:101C100028B9002084F83C00204600F04BF8022050
:101C200084F83D002068211D03F080F820682968B1
:101C3000AB68032203F0B8F920680026816921F01F
:101C40000C0181616968826911438161416841F0D9
:101C500080014160816821F070018160816841F0FC
:101C600040018160816821F007018160816841F055
:101C70000401816070210191E968CDE90566CDE933
:101C8000021601A90796049603F0EAF82068416855
:101C900021F070014160416841F050014160012034
:101CA00084F83D00304608B070BD00BF01263046C4
:101CB00008B070BD7047000090F83C20012A4FF03A
:101CC000020254D010B580F83D200268D2F804E03A
:101CD000D2F808C00C682EF07003234341F2FF7461
:101CE000C4F20004A24253600EDC40F2FF73C4F25F
:101CF00000039A4216DCB2F1804F2BD040F2004331
:101D0000C4F2000324E000BF40F2FF33C4F2010339
:101D10009A4213DC41F60003C4F200039A4219D040
:101D2000002313E040F60003C4F200039A4211D0EE
:101D300040F60043C4F200030AE000BF44F200038F
:101D4000C4F201039A4205D040F20043C4F20103F9
:101D50009A4204D149682CF0800319439160012113
:101D6000002280F83D1080F83C20BDE8104010466D
:101D700070470000002804BF0120704710B50446DA
:101D800090F83D0028B9002084F83C00204600F07F
:101D90000DF8022084F83D002068211D02F0C6FFE6
:101DA000012084F83D00002010BD000080B586B001
:101DB000006840F60042C4F2000200219042CDE9E2
:101DC0000411CDE9021101912AD00021C4F20101D0
:101DD000884251D14FF0000C43F63000CDF800C0DE
:101DE000C4F2020041694FF4805341F001014161A6
:101DF0004169012201F0010100910099CDF800C074
:101E0000016841F0020101600068012100F0020058
:101E10000090009840F20040C4F2020023E000BFAE
:101E200043F630000091C4F2020002694FF0020C48
:101E300042F00802026102694FF4E05302F0080226
:101E40000092009A0091026842F0800202600068ED
:101E5000022200F080000090009840F20040C4F29E
:101E6000020000F5C05001930223CDE9023101A91F
:101E7000CDE904C2FFF7E8F906B080BD90F83C2038
:101E8000012A4FF0020248D080B580F83D20D0F8FA
:101E900000C04FF67772DCF8083023EA0202CCF873
:101EA00008200B683F2B1DDD5F2B39DD602B5BD0DD
:101EB000B3F5005F00F09880702B26D1D1E901E3E3
:101EC000C968DCF8082043EA0E0322F47F4243EAA3
:101ED00001211143CCF80810DCF8081041F077011B
:101EE00011E000BF1F2B03DC33B1102B04D00CE03A
:101EF000202B01D0302B08D1DCF8081021F0700124
:101F0000194341F00701CCF808100121002280F8A4
:101F10003D1080F83C20BDE880401046704700BF6F
:101F2000402B41D0502BF0D1D1F804E0C968DCF847
:101F30002030DCF8202022F00102CCF82020DCF850
:101F4000182022F0F00242EA011123F00A0242EACC
:101F50000E02CCF81810CCF82020DCF8081041F064
:101F6000570121F02001CEE7D1F804E0C968DCF880
:101F7000203023F01003CCF82030DCF81830DCF8E7
:101F8000202023F4704322F0A00243EA013142EA08
:101F90000E12CCF81810CCF82020DCF8081041F014
:101FA000670121F01001AEE7D1F804E0C968DCF860
:101FB0002030DCF8202022F00102CCF82020DCF8D0
:101FC000182022F0F00242EA011123F00A0242EA4C
:101FD0000E02CCF81810CCF82020DCF8081041F0E4
:101FE000470121F030018EE7D1E901E3C968DCF84F
:101FF000082043EA0E0322F47F4243EA0121114301
:10200000CCF80810DCF8081041F480417BE70000B0
:10201000F0B587B000250068C4F201050021A84290
:102020000691CDE904110391029101D007B0F0BDF2
:1020300043F630000191C4F20200026802AC42F0A3
:10204000010202600268022602F001020192019A76
:1020500001910168012741F00201016000682146F9
:1020600000F00200019001984FF4E060029005F545
:102070008030CDE9036605960697FFF7E5F84FF443
:102080006040CDE9020605F582302146CDE90466BF
:102090000697FFF7D9F807B0F0BD000090F83C3084
:1020A000012B4FF0020300F005814FEAB202032A30
:1020B00080F83D3000F2F8802DE9F043DFE802F0CF
:1020C00002B03E7E036840F200461A6A43F480651F
:1020D00022F001021A621C6A1A46D3F804C052F8B0
:1020E00018EF8F6824F00204C4F20106B54244EAF6
:1020F000070405D1CF6824F00C0427F004073C4303
:102100000F68B54206D1D1E905582CF440762E432C
:1021100046EA080C2EF073063743C3F804C09F61EB
:102120004F6809695F631C629F6947F008079F61F8
:102130009F6927F004079F61B1E000BF036840F288
:1021400000481A6A43F4806522F480721A621C6A9D
:102150001A46D3F804C052F81CEF8F6824F40074B8
:10216000C4F20108454544EA072408D1CF6840F28B
:10217000FF463F0224F4406427EA06063443D1F8C0
:102180000090454506D1D1E905562CF440572E4321
:1021900047EA061C2EF0730747EA0907C3F804C094
:1021A000DF614F680969DF631C62DF6947F0080778
:1021B000DF61DF6927F00407DF6170E0036840F248
:1021C00000451A6A43F4806722F480521A621A4664
:1021D000D3F820C05C6852F81C8FD1F800E08E68FC
:1021E000C4F20105AF4204D14D6924F4804444EAAD
:1021F00085142CF4005747EA063728F4E64646EAE9
:102200000E265C60DE614E6809691E641F62DF692C
:1022100047F40067DF61DF6927F48067DF613DE035
:10222000036840F200481A6A43F4806522F0100205
:102230001A621C6A1A46D3F804C052F818EF8F6865
:1022400024F02004C4F20108454544EA071407D1EC
:10225000CF686FF0400624F0C00406EA0716344346
:10226000D1F80090454506D1D1E905562CF44067D8
:102270002E4347EA860C2EF4E64747EA0927C3F8BF
:1022800004C09F614F6809699F631C629F6947F49E
:1022900000679F619F6927F480679F610902136847
:1022A00019431160BDE8F0430121002380F83D107F
:1022B00080F83C3018467047002804BF0120704762
:1022C00010B5044690F83D0028B9002084F83C0081
:1022D000204600F00DF8022084F83D002068211D02
:1022E00002F024FD012084F83D00002010BD000014
:1022F00070470000B0B5044690F83C0001284FF04C
:10230000020008BFB0BD012584F83C5084F83D00B0
:10231000204602F0D9FD00284FF0010006D0002130
:1023200084F83D5084F83C10B0BD00BF2068C168FF
:1023300021F04001C160C16821F48041C1600020EA
:10234000002184F83D5084F83C10B0BD002804BF43
:102350000120704710B5044690F8390028B90020D4
:1023600084F83800204600F021F8242084F8390051
:102370002068C16821F40051C160204602F0F0FFDE
:102380002068016921F490410161416921F02A012D
:102390004161C16841F40051C16000202021E06327
:1023A00084F8391084F83A1010BD000080B586B06A
:1023B00041F200010068C4F2010100228842059246
:1023C000CDE903220292019202D006B080BD00BF87
:1023D00043F630000092C4F20200436943F0100358
:1023E0004361436903F010030093009B009203686C
:1023F00043F002030360006800F0020000900098C0
:10240000C02001900220CDE902020720059001F5CD
:10241000744001A90492FEF717FF06B080BD0000CA
:1024200082B002F023FE40F2AC44C2F2000401E0AC
:1024300003F008FCD4F82001016809070ED52046F6
:1024400003F012F8D4F82001016801910199406865
:102450000190019803F0F6FBD4F820010168090609
:1024600004D5204603F0E6F8D4F820010168890677
:10247000E0D54068C1B2204603F004F80088022885
:10248000D6D00128D6D103F0D5FBD3E710B5D0E9DB
:10249000010402F0C3F9206110BD000000680121B1
:1024A00002F038BAE0B3017E012918BF704710B5B9
:1024B000017B01291AD0032910D002292CD1D0E99F
:1024C0000112002304460846002182F8243002F05D
:1024D000D7F96068B4F9101015E000BF81680122D7
:1024E00081F82420D0F812200A6112E0D0E901120C
:1024F000002304460846012182F8243002F0C0F986
:102500006068B4F90E10E28A02F02EF90146204606
:1025100011B1022101E000BF03210176BDE81040A6
:10252000704700000123C18140F201110373C28290
:10253000018370470223018201210373C282018358
:1025400070470000006802F0A3B9000080B5406841
:1025500002F078F9BDE8804002F08EB8407E704706
:10256000806800687047000080684068704700001D
:102570008068C0687047000080680069704700008C
:10258000017B01290CBFC089002000B27047000008
:10259000406802F049B90000006802F0B3B90000D9
:1025A0008068B0F91E0070478068D0F81A00704744
:1025B0008068D0F81600704780E80E000021017393
:1025C000C0F80E10C1820176704700000A0C032388
:1025D00041820121037382820183704780684182B6
:1025E0008182704710B504460068032102F092F919
:1025F00000281CBF0121217610BD000000680721C2
:1026000002F088B9406802F03FB9000046F6344253
:102610000114CFF6FF7251434BF21A62CFF6FF72EC
:1026200012FB0011CA1321F3CF31090480B212F555
:10263000004FDCBF0021C8F20101084470470000D0
:1026400010B50446084600F033F810FB04F12214DC
:10265000031403FB121110FB14F310FB2430C313FB
:1026600020F3CF30CA1321F3CF31000489B213F520
:10267000004FDCBF0020C8F2010012F5004FD8BFA8
:1026800048F20101084410BD10B50446084600F0A8
:102690000FF821B2021410FB14F302FB113110FBEE
:1026A00004F210FB34204900C1EAE03010BD000004
:1026B00081B2022282EA9132C0F387110FF2040044
:1026C000DFE802F0022E122046F65E00C0F600009F
:1026D00030F8112081F0FF0130F8111050424942CA
:1026E000C1EA0040704700BF46F65E02C0F6000235
:1026F00032F8110081F0FF0132F81110C1EA0040F8
:10270000704700BF46F65E0281F0FF00C0F600028F
:1027100032F8111032F810004942C1EA0040704707
:1027200046F65E0281F0FF00C0F6000232F81000AB
:1027300032F811104042C1EA00407047F0B581B054
:10274000154606460898DDE906721C46C6E93002C1
:1027500042F2897C43F2ED0242F28D733163C0F69E
:10276000000CC0F60002C0F6000308463146CDF862
:1027700000C0FDF7AFFEC6E90D543046F76301B067
:10278000BDE8F04000F0B4BC00F0B2BC2DE9F0416F
:102790008CB00F461E4615468046002178098DF8FC
:1027A0002F1010D0441E4046224603F063FA002842
:1027B00000F0B880D8F8C40007F01F0718B1002156
:1027C000224603F057FA122F00F2A882DFE817F032
:1027D000AD001400D201D400A602A602EE007A02D7
:1027E0008602B002A802B8000E01E200A602A6020C
:1027F000A602A602AD0000BF2978052088298DF821
:102800000A0000F23B83DFE811F0150339033903B6
:10281000070339038900890089008900890089003C
:1028200089008900890089008900C302C302390335
:102830003903890089008900890089003903390337
:1028400039033103270339033903390339033903C2
:102850003903390339033903390339033903390398
:102860003903390339033903390339033903390388
:102870003903390339033903390339033903390378
:10288000390339033903390339033903890039031B
:10289000390339033903C302C302C30239033903BD
:1028A00039033903390339038900390339033903FB
:1028B000890089008900890089008900890039031D
:1028C000C302390339033903390339038900390352
:1028D000390389008900390339033903390339037E
:1028E0003903390339033903390339033903390308
:1028F00039030703C302C302C302C302C30239037D
:1029000039033903C302C3023903390339033903D5
:10291000390339033903890089008900B5F801209A
:1029200038E200BF0B208DF80A00D8E90C070DF142
:102930000A02FF210123B8470CB0BDE8F08100BFB7
:1029400040F62C040C20C2F200048DF80A0003A803
:10295000214603958DF8106002F034FF00288DF8B1
:102960002F00E2D0D8E90C0722682379F021B8477C
:102970000CB0BDE8F08100BF297807208DF80A006F
:10298000404602F0A9FE00288DF82F00CDD000F0BF
:10299000A3BB00BFAA88B5F90010404602F002FFB1
:1029A00000288DF82F00C0D000F096BB0021D8F889
:1029B000C0008DF82B10CDF82710CDF82310CDF8DE
:1029C0001F10CDF81B10CDF81710CDF81310CDF84F
:1029D0000F100278092A00F06C838DF80F204178DF
:1029E000092940F0E181012100F063BBD8F8C00063
:1029F0000278002A00F0B68141788DF80C20002979
:102A000000F0DA8182788DF80D10002A00F0D6816E
:102A1000C1788DF80E20002900F0F28102798DF83E
:102A20000F10002A00F0F68141798DF8102000295E
:102A300000F0F48182798DF81110002A00F0F881FD
:102A4000C1798DF81220002900F02282027A8DF8D7
:102A50001310002A00F04482417A8DF814200029D6
:102A600000F04882827A8DF81510002A00F04C821E
:102A7000C17A8DF81620002900F04882027B8DF87B
:102A80001710002A00F04C82417B8DF81820002995
:102A900000F05082827B8DF81910002A00F04C82E1
:102AA000C17B8DF81A20002900F05082027C8DF83D
:102AB0001B10002A00F05482417C8DF81C20002954
:102AC00000F05082827C8DF81D10002A00F05482A4
:102AD000C17C8DF81E20002900F05882027D8DF8FF
:102AE0001F10002A00F05482417D8DF8202000291B
:102AF00000F05882827D8DF82110002A00F05C825F
:102B0000C17D8DF82220002900F06082027E8DF8C0
:102B10002310002A00F05C82417E8DF824200029D9
:102B200000F06082827E8DF82510002A00F0648219
:102B3000C17E8DF82620002900F06082027F8DF88A
:102B40002710002A00F06482417F8DF82820002998
:102B500000F06882827F8DF82910002A00F06482DC
:102B6000C07F8DF82A20002800F068828DF82B00A5
:102B70006BE200BF2978032088298DF80A003FF610
:102B8000D4AEDFE811F02501F10025012501F100A7
:102B90008B008B008B008B008B008B008B008B00DD
:102BA0008B008B008B008B008B008B008B008B00CD
:102BB0008B008B008B008B008B008B008B008701C0
:102BC0009701F1008B008B008B00250189008900A3
:102BD00089008900890089008900890089008900AD
:102BE000890089008900890089008900890089009D
:102BF000890089008900890089008900890089008D
:102C000089008900890089008B008900890089007A
:102C10008900F100F100F1008B008B008B008B002C
:102C20002501F1008B008B008B008B008B008B004B
:102C30008B008B008B008B008B002501F10089003D
:102C40008B008B008B008B008B00890089008B0030
:102C50008B0025012501F100F100F100F100F100E8
:102C600025018B008B00F10089008B008B00250172
:102C7000F100F100F100F100F100F100F100F100CC
:102C8000F100F100F100250189002501F100F100BA
:102C9000F1008B008B008B0047E600BF0DF12F0287
:102CA000404602F091FD9DF82F100390002900F09E
:102CB000A380D8E90C0703AAF0210223B8470CB07F
:102CC000BDE8F081AA882968404602F057FD002837
:102CD0008DF82F003FF429AEFEE100BF29780DF1F9
:102CE00006070DF10A0202AB4046009702F03EFFD4
:102CF000BDF90800BDF8061000EB40004000ADF83B
:102D00001010BDF80A100390D8E90C07ADF81210A6
:102D100003AAF0210823B84707E600BF012002E616
:102D2000B5F90010B5F90220404602F093FFD0E15A
:102D3000D5F801004AF6AB23C2F6AA2350FB03F0F4
:102D40002978B5F80720B5F9057000EBD07003B20B
:102D50004046009703F05AF800288DF82F003FF402
:102D6000E4ADB9E100216AE10DF12F02404602F025
:102D70002BFD9DF82F10039000293DD0D8E90C07BA
:102D800003AAF0210423B8470CB0BDE8F08100BFCE
:102D9000D5F80120404602F06DFF00288DF82F0085
:102DA00040F09A81C1E500BF8DF8101081780929A3
:102DB00006D102217DE100BF012140E102213EE177
:102DC0008DF81110C17809291CD1032171E100BFD0
:102DD0000DF12F02404602F0F7FC9DF82F100390F2
:102DE000002909D0D8E90C0703AAF0210123B8472C
:102DF0000CB0BDE8F08100BF3FF497AD6CE100BFBF
:102E000003211CE18DF812100179092908D1042150
:102E10004FE100BF042112E16A78BBE705210EE112
:102E20008DF81310417909292AD1052141E100BF0C
:102E3000062104E16C78D8F8C4000021224602F093
:102E400019FF40460021224602F014FF00288DF8A9
:102E50002F0040F0418168E5D8F8C4006A7801216C
:102E6000012402F001FF8DF82F4035E1D8F8C400AD
:102E70006A78002102F0F8FE2BE100BF022052E543
:102E80008DF81410817909292CD1062111E100BF98
:102E90000721D4E0D8F8C40000283FF446AD002153
:102EA00002F08AFCD8E90C178DF80C0003AA08463A
:102EB0009BE700BFD8F8C40000283FF436AD0121DD
:102EC000012402F079FCD8E90C178DF80C0003AA54
:102ED0000846F0210123B8478DF82F40FCE000BFE1
:102EE0000821ACE08DF81510C179092904D107211A
:102EF000DFE000BF0921A2E08DF81610017A092950
:102F000006D10821D5E000BF0A2198E00B2196E008
:102F10008DF81710417A092904D10921C9E000BFB1
:102F20000C218CE08DF81810817A092906D10A212C
:102F3000BFE000BF0D2182E00E2180E08DF8191066
:102F4000C17A092904D10B21B3E000BF0F2176E03B
:102F50008DF81A10017B092906D10C21A9E000BFC8
:102F600010216CE011216AE08DF81B10417B0929CA
:102F700004D10D219DE000BF122160E08DF81C10EE
:102F8000817B092906D10E2193E000BF132156E071
:102F9000142154E08DF81D10C17B092904D10F21A3
:102FA00087E000BF15214AE08DF81E10017C092939
:102FB00004D110217DE000BF162140E08DF81F10E4
:102FC000417C092906D1112173E000BF172136E0A9
:102FD000182134E08DF82010817C092904D11221B8
:102FE00067E000BF19212AE08DF82110C17C092972
:102FF00006D113215DE000BF1A2120E01B211EE055
:103000008DF82210017D092904D1142151E000BF5F
:103010001C2114E08DF82310417D092906D11521CA
:1030200047E000BF1D210AE01E2108E08DF82410B2
:10303000817D09290CD116213BE000BF1F2103A887
:103040000844C1F12001FDF7F3F8D8E90C073CE092
:103050008DF82510C17D092902D1172129E000BF73
:103060008DF82610017E092902D1182121E000BF28
:103070008DF82710417E092902D1192119E000BFDE
:103080008DF82810817E092902D11A2111E000BF94
:103090008DF82910C17E092902D11B2109E000BF4A
:1030A0008DF82A10017F09291ABF8DF82B101D21D8
:1030B0001C21084441798DF80C10C1798DF80D1050
:1030C000417AD8E90C078DF80E1003AAF0212023CD
:1030D000B84701208DF82F00D8E90C07F021002215
:1030E0000023B8470CB0BDE8F0810000AFF30080CA
:1030F00010B50446006BE16B88478021206BA26B02
:1031000084F8C810BDE810401047000040F2446049
:10311000C2F200000068FFF73FBA000040F24C60C6
:10312000C2F200000078002808BF704780B500F0A8
:1031300007F802F0ABF8BDE8804002F055BD000092
:1031400010B540F24C64C2F200042078012810D17E
:10315000608878B1608801386080A08810B1A0884C
:103160000138A080E088002808BF10BDE088013841
:10317000E08010BD01F0EAFF01206080A0880028F7
:10318000EDD1EFE740F24460C2F200000068FFF7C3
:1031900029BA000040F24460C2F200000068FFF764
:1031A0002DBA00002DE9F04F81B040F24C67C2F219
:1031B000000707F1340B05465846009101F0A4FBC7
:1031C00040F2080140F258304FF00009C2F200010D
:1031D000C2F2000087F80090C7E9021000F0ACFCD2
:1031E00003F076FA40F21824C2F20004204600F000
:1031F000B1F940F2144040F2F80AC2F20000C2F203
:10320000000AC7E904405046FDF742FAD7E9041026
:10321000524601F01FFB40F2EC14C2F200042046BB
:1032200000F098F940F2C016C2F20006304600F0F5
:1032300091F940F2EC30C2F20000C7E9064638626C
:1032400001F00CFA40F24420396A40F25046C2F2D2
:10325000000007F15804C2F200067862C0E9434159
:10326000304600F045F940F2D430C2F20000C7E920
:103270000A6001F035F90020FDF74EF978694FF04A
:10328000010887F87C8001F0C9FA7969B8660846B8
:1032900001F0C4FA000C7A69A7F86C0007F13C0051
:1032A000594623463863FFF787F978693C6B01F08C
:1032B000C1FA014620460022FFF734F9386B07F1C6
:1032C0000C0E286040F2D870C2F200009EE8064062
:1032D000D7E90646BB6A80E8540200F1100282E892
:1032E000020600F12C01D7E9085C81E82802009968
:1032F000C0E90799C0E909EBC0E90E9CC0E9109943
:10330000C0E91299C0F85090086087F8008001B0B9
:10331000BDE8F08FF0B5B0F8002184462CF812100B
:103320000846BCF800110CF1200EACF80211013176
:103330008AB27F2A88BF0021ACF8001100216FF00B
:10334000FF0300BF0EEB0302B2F9E040B2F9E25016
:10335000B2F9E4602144B2F9E67029443144B2F98B
:10336000E84039442144B2F9EA40B2F9EC50214432
:10337000B2F9EE402944B2F9F0502144B2F9F240DA
:103380002944B2F9F4502144B2F9F6402944B2F983
:10339000F8502144B2F9FA402944B2F9FC502144D2
:1033A000B2F9FE402944B2F900512144B2F9024178
:1033B0002944B2F904512144B2F906412944B2F931
:1033C00008512144B2F90A412944B2F90C5121446F
:1033D000B2F90E412944B2F910512144B2F9124117
:1033E0002944B2F914512144B2F916412944B2F9E1
:1033F00018512144B2F91A412944B2F91C5121440F
:10340000B2F91E212944403311449BD1CA1701EB64
:103410005261C909ACF80411F0BD000080B54FF449
:103420008271FCF705FF80BDB0F904017047000010
:10343000B0B582B0FEF772F944F6D351C1F2620121
:10344000A0FB0101C809FEF79DFB40F24464C2F2F3
:103450000004251D20462946FFF7A4FE03F08CF842
:1034600046F65E2C40F2E850C0F6000CC2F20000B6
:10347000012122462B46CDF800C002F0E3FC02B049
:10348000B0BD000010B50446007818B10020E082FD
:1034900010BD00BF94F8260000F010FF4FF6FF713A
:1034A000884207D0218B228A4B1E03FB0200B0FB0F
:1034B000F1F02082204600F031F8E08210BD0000DB
:1034C0000021018270470000017819B1808A00B2A2
:1034D000704700BF018A026AB0F91E30891A594349
:1034E000CA17808C01EB124100EB114000B270470B
:1034F000017829B1428A0021C1820282704700BF4F
:1035000010B5011D0446084600F040FF0146204664
:1035100084F82610BDE81040FFF7D2BF018A428B25
:10352000914284BF08207047828B914234BF0020B3
:10353000C08A7047B0F9220070470000B0F9060059
:1035400070470000408B7047B0F9040070470000DE
:10355000008B7047018C026841840021C0E9012181
:10356000816270478160704741847047C1807047B5
:103570008180704770B50246B0F90430B0F906009A
:10358000B2F914C0B2F9164001FB03FEC0B1D2E992
:10359000025301FB00F601FB005035400121C8F247
:1035A0000001B5F1FF3FC8BF0146002848BF0146F2
:1035B000994206DC13699942C8BF0B4601E000BF7F
:1035C0000023908BD18B4EFA00F043FA01F10844AE
:1035D000844507DA1FFA8CF4ACEB0001194420B2E1
:1035E000916070BD211AD8BF0021A042C8BF044617
:1035F000194420B2916070BD70B5D0E942510023EA
:10360000CA68D1F81610044621FB0231D0F8100127
:10361000CA1701EB12410E1402F0DCFC48F2B5119E
:103620006843C1F64E3150FB01F0811101EBD070BF
:10363000704300EB400046F267614000C6F26661ED
:1036400050FB01F0811401EBD0712046BDE87040C1
:10365000FFF760BEC169084710B501290ED0A9B9AE
:10366000044600F0E7F8B4F8521020460029A4F808
:1036700044101CBF002010BD0AE000BFB0F8441089
:1036800041B101390A04A0F8441001D0002010BD56
:1036900001698847012010BD42681047F0B5B0F8B5
:1036A0005060038E0AB209147143002502FB03F433
:1036B000A5EB4105A4EB410402FB135304EBD471C9
:1036C0004FEA610E03EBD3714FEA610C14F1020F64
:1036D0004FEA960118DC13F1020F2BDC042280F86C
:1036E0003A20AEEB0C02D61702EB963201EBA24168
:1036F0005A42A1EB924C624201EB92438387C1870D
:10370000A0F840C041E000BFB3F1FF3F2ADB012237
:1037100080F83A20AEEB0C02D31702EB933201EBA8
:10372000A24101EB5C4CA1EB5E43A0F83CC0C18719
:1037300029E000BF002D55DD022280F83A20AEEBD3
:103740000502D31702EB933201EBA241624201EB77
:10375000924303EB554CA0F83CC0C387A0F840103F
:1037600013E000BF002D53DD002280F83A20A5EBC6
:103770000C0201EB92415A42A1EB924CACEB554347
:103780008187A0F83EC0A0F84030B0F84E6021EA32
:10379000E1742CEAEC7123EAE372012E44868186FF
:1037A000C2861BD1B0F85430B0F948505F42B0F92E
:1037B0004AC0002D3D46B0F94CE0C8BF1D462C4420
:1037C0003E464486BCF1000FC8BF1E463144818688
:1037D000BEF1000FC8BF1F46B918C1868169BDE898
:1037E000F0400847032280F83A20A5EB0C02D317DB
:1037F00002EB933201EBA24101EB5C4C6A420CEB11
:1038000052438387A0F83EC0A0F84010BDE700BF38
:10381000052280F83A20AEEB050201EB9241A1EBC4
:103820005E436A42A3EB524C8187C387A0F840C035
:10383000ABE70000816808470146806F90F88F2051
:10384000022A11D180B5836900F10C0E9EE8045064
:103850001B049361C2691204CCF81820006A0004AA
:10386000CEF81800BDE88040012201F1460081F841
:10387000742070472DE9F0470546806F0027846863
:103880002E46C5E917776F6606F8737F206A40F207
:10389000555820EA0800206243F6B520C0F6000023
:1038A000686043F6A970C0F60000A8614FF00309F4
:1038B000284685F8729085F83A9000F005FCA86FCC
:1038C00005F1380A90F88E2020465146334602F022
:1038D0002FFF284600F0C2FB43F6FD20C0F6000093
:1038E00037706860284685F8727085F83A7000F085
:1038F000EBFBA86F514690F88E202046334602F02D
:1039000017FF284600F0AAFB05F15C0207CA05F183
:103910005C03C008C908D20807C343F67910C0F693
:103920000000686043F6E570C0F60000A861A06979
:1039300020F00800A061A06920F40060A061E069A7
:1039400020F00800E061B5F870006063A063E063F8
:10395000A06940F00800A061A06940F40060A06187
:10396000E06940F00800E06185F83A90206A40EA9A
:1039700008002062BDE8F087B0B5D0F878C0DCF868
:1039800008301A6A22F480521A6290F83A300CEB2E
:103990008302D2F824C0D26BDCF800E0D2F800C079
:1039A000052B73D801229A404FEA4E0E12F0060FF3
:1039B0004FEA4C0C22D112F0180F3BD0D0E917245B
:1039C0001FFA8EF3D31A47F6FF7248F2010E9342A4
:1039D000B8BF1A46CFF6FF7E1FFA8CF37245A4EBF0
:1039E0000303D8BF724613F5004F0A8041DDB3F5DB
:1039F000004FA8BF47F6FF734B8052E0C36D1FFA1C
:103A00008EF2446E9A1A47F6FF7348F2010E9A42FC
:103A1000A8BF1A46CFF6FF7E7245D8BF72461FFA7E
:103A20008CF51444A5EB040CBCF5004F0A801DDB9B
:103A30004B8036E0D0E918251FFA8EF3D31A47F6EB
:103A4000FF7248F2010E9342A8BF1346CFF6FF7EE5
:103A50007345D8BF73461FFA8CF41D44A4EB050CC4
:103A6000BCF5004F4B8009DB0A801AE01CF5004FC3
:103A700010DC48F20103A1F802E012E01CF5004F4F
:103A80000CDC48F20102A1F800E00AE00A884B8849
:103A900007E000BF6346A1F802C002E0A1F800C041
:103AA0006246D1184942A0F84820A0F84A30A0F850
:103AB0004C10B0BDD0F878C0DCF808301A6A22F497
:103AC00080521A6290F873200F2A14D890F872204E
:103AD0000CEB8202536AD2F83CC01B68C26D1A44D8
:103AE000C265DCF80020036E1A44026690F8732069
:103AF000013280F87320002008607047D0F878C049
:103B0000DCF808301A6A22F480521A6290F87320A6
:103B10000F2A0DD890F872200CEB8202D26B12683B
:103B2000436E1A44426690F87320013280F8732085
:103B3000002008607047000010B5826F9368D2E9DA
:103B400000EC196821F00101196092F8901031B170
:103B50006FF080011961D96841F08001D96059691D
:103B600041F00101596192F88C10022910D192F8AC
:103B70008D1001290FD192F88E1003290BD101214C
:103B80001963596941F0010159610321196302E088
:103B900090F8461019B9B0F8701001395962196AD5
:103BA00040F25552114319620021C4F201018B42C7
:103BB00042F20C034FF00202CEF2040308BF0122CE
:103BC0001C684FF4F01142EA040208BF4FF4801160
:103BD0001A608166DEF8081041F00101CEF8081085
:103BE000DCF8081041F00101CCF808106FF0040176
:103BF000CEF80010DEF8041041F08001CEF8041079
:103C0000DEF82C1021F47001CEF82C10DEF83810FC
:103C100021F44011CEF83810DCF8381021F44011AE
:103C2000CCF838104FF48011C1660021A0F84E1076
:103C300010BD000090F8741001294FF0000104BF7E
:103C400080F87410402108467047000090F8471033
:103C5000012918BF7047826F91688B6943F0600338
:103C600023F013038B610B6A43F001030B6292F89C
:103C70008F20022A26D0012A4AD10A6A42F0040281
:103C80000A62B0F8702052084A638B6923F4E64355
:103C900003F5C0438B610B6A43F010030B620B6AA0
:103CA00043F040030B628A63CB6943F0600323F067
:103CB0001303CB610B6A43F480730B620B6A43F40A
:103CC00080633DE00A6A22F004020A62B0F87020C4
:103CD00052084A638B6923F4E64303F5C0438B61C2
:103CE0000B6A43F010030B620B6A23F040030B6274
:103CF0008A63CB6943F0600323F01303CB610B6A43
:103D000043F480730B620B6A23F4806318E000BFF6
:103D1000B0F8702052084A638B6923F4E64303F538
:103D2000C0438B610B6A43F010030B628A63CB695B
:103D300043F0600323F01303CB610B6A43F48073F9
:103D40000B62CA6344F25D2243F67911C0F60002A9
:103D500044F25D03C0F60001426144F2C902C0F6BC
:103D60000003C0F60002C0E901130021C26080F820
:103D70004710704790F84710002941D1826F916831
:103D80008B6943F0600323F013038B610B6A43F0EC
:103D900001030B620B6A23F004030B6200234B63E5
:103DA00092F88F20022A0FD0012A1BD18A6922F4AF
:103DB000E64202F580528A610A6A22F010020A6223
:103DC0000A6A42F040020CE08A6922F4E64202F5F7
:103DD00000528A610A6A42F010020A620A6A22F0FC
:103DE00040020A62CA6942F0700222F00302CA610C
:103DF0000A6A22F480720A620A6A22F480620A6203
:103E000043F64D7243F65D61C0F6000244F25D0375
:103E1000C0F60001426143F69D62C0F60003C0F6A1
:103E20000002C0E901130121C26080F84710704709
:103E3000826FB0F8703092685943090C4186516323
:103E4000032180F83A10116A028F012A11BFC1F3D1
:103E5000003000210187012070470000D0F878C0B1
:103E6000DCF808301A6A22F480521A6290F83A207C
:103E7000006E0CEB8202D26B1268A0EB420047F698
:103E8000FF729042B8BF024648F20100CFF6FF70C1
:103E90008242D8BF02460A804A80704710B5826FBE
:103EA0006FF0010391680B610B69DB0709D10B69A6
:103EB000DB0704BF0B695FEAC37302D10B69DB0741
:103EC000F2D06FF001030B6101234B63B0F8700077
:103ED000053808640869C00709D10869C00704BF2C
:103EE00008695FEAC07002D10869C007F2D06FF0BC
:103EF000010CC1F810C0486C40F480604864486C04
:103F000040F40040486492F88F00022817D10B6AF1
:103F1000D2F80CE0906940F25554234204D0CEF818
:103F20001800D36905E000BF0004CEF81800D0697E
:103F30000304D2E90404126A83611004A061C1F889
:103F400010C0C86840F00100C86010BD806F00223A
:103F500081684A636FF001020A610A69D20709D1D8
:103F60000A69D20704BF0A695FEAC27202D10A690C
:103F7000D207F2D06FF001020A614A6C42F40042AB
:103F80004A6490F88F10022918BF704700F10C0C9A
:103F900083699CE806108B61C16909049161006A1C
:103FA0000004CCF8180070474FF48011C16690F8F7
:103FB0007210826F80F83A109168428EB0F87030BB
:103FC0004A63828E013B8A63C28ECA639AB20A64D4
:103FD000096A028F012A11BFC1F300300021018755
:103FE0000120704710B5838FB0F870E0D0F878C02A
:103FF000AEEB0302BCF8861092B28A4206D90321C6
:1040000080F83A10AEF1010314E000BFC48F1C1B0E
:10401000A4B2B4EB420F03D9BCF888105B1A09E0D4
:104020000B4499B2714505D34FF40011C166D943D1
:1040300001EB4E03DCF80810428E4A63828E8A63DD
:10404000C28ECA639AB20A64096A028F012A11BF3A
:10405000C1F3003000210187012010BD80B5826FBF
:104060009168CB6823F00103CB60002380F84230D5
:10407000486C20F40040486492F88F0002280ED16A
:10408000936902F10C0E9EE801501B048361D06914
:104090000004CCF81800106A0004CEF818006FF085
:1040A000010008610869C00709D10869C00704BF99
:1040B00008695FEAC07002D10869C007F2D06FF0EA
:1040C0000100086180BD000010B5816F002280F8FA
:1040D0004220B0F8702088685308053A4363836330
:1040E000C36302646FF0010202610269D20709D161
:1040F0000269D20704BF02695FEAC27202D1026993
:10410000D207F2D06FF0010CC0F810C0426C42F43C
:1041100080624264426C42F40042426491F88F2013
:10412000022A19D1026A40F2555E02EA0E04CB68F7
:104130008A69744506D19A610A69D1E90743946195
:1041400008E000BF12049A61D1E907230C69120448
:104150001B04A26149698B61C0F810C0C16841F0BD
:104160000101C16010BD000010B5D0F878C08646CE
:10417000DCE90020DCF80830116811F00C0117D0E0
:1041800008293DD1116801F00C010C2938D01168C3
:1041900001F00C010C2933D0116801F00C010C293D
:1041A0002ED0116801F00C010C29EBD128E000BFE2
:1041B000BCF884105C6A8C4208D25C6A8C4205D2DE
:1041C0005C6A8C4202D25C6A8C42F3D3116801F0C3
:1041D0000C01082914D100BF116801F00C010C2951
:1041E0000ED0116801F00C010C2909D0116801F002
:1041F0000C010C2904D0116801F00C010C29EBD141
:10420000916821F440119160816821F4401181602E
:104210009EF83A100CEB81014C6D9463C96E81637A
:10422000DEF868109468090C61F3134494608468A4
:1042300061F313448460196A41F480511962DEF815
:104240006C1093680B4393608268114381604FF454
:1042500080110EF14600CEF86C1010BD816F012365
:104260008A6880F842306FF00100106100205063CE
:104270009063D0631069C00709D11069C00704BFFB
:1042800010695FEAC07002D11069C007F2D06FF008
:1042900001001061506C40F40040506491F88F00B0
:1042A000022818BF7047D1E9030CD1E905238361C7
:1042B000C869CCF81800086A9061704740F2CC6178
:1042C000C2F2000101EB800041680123086809790E
:1042D000426B61F304024263C16C40F27812410107
:1042E000C4F2002253500168890709D40168890784
:1042F0005CBF01685FEA817102D401688907F2D569
:10430000C06C80B27047000080B540F2CC6CC2F245
:10431000000C9CF80000012818BF80BD9CF801002B
:1043200040F2781E0CEB80014A68C4F2002E11683E
:1043300012794B6B62F304034B63CA6C4A0101238D
:104340004EF802300A68920709D40A6892075CBFE7
:104350000A685FEA827202D40A689207F2D50CEB0F
:10436000C002C96C52F8143F4FF0020EACF80210B4
:104370008CF800E043B14FF0000E526889B28CF81F
:1043800000E0BDE88040184780BD0000B0B540F2B5
:10439000CC6CC2F2000CDCF80430002B194618BFBC
:1043A0004FF0FF3109D093F804E00279964504D12B
:1043B000D3F800E00268964544D0DCF80850002BA2
:1043C000B5FA85F41A464FEA541418BF012214EACC
:1043D000020E18BF01213DB12A790479A24203D10E
:1043E0002A680468A24233D0002B18BF0123DCF8EE
:1043F0000C209EEA030F0B4618BF0223002A18BFA9
:104400000B4607D011790579A94203D111680268DA
:1044100091425FD0DCF81020D9B20429194688BF38
:104420000321002A18BF194613D013790579AB422E
:104430000FD1126803689A4208BF0321C9B2032949
:104440000AD944E00021C9B2032905D93FE000BFE1
:104450000121C9B203293AD80CEB810250600CEB60
:10446000C103002502685D619368DB0711D15368C1
:1044700023F0200353606FF002031360536823F0AE
:10448000800353606FF004031360936843F00103EB
:104490009360D36A012523F47003D3620379C0F2D9
:1044A0003005092B05FB03F38CBFA3F1F07343F038
:1044B0000073C3F3406502EB85028068D568C3F3DF
:1044C000045307249C40A54398402843D0600846E5
:1044D000B0BD00BF0221C9B20329BDD9F7E7000072
:1044E00000210122C0E90111C0E9031142617047B6
:1044F00090F848007047000001EB410100EB81009B
:104500008089704701EB410100EB8100B0F90E009A
:104510007047000001EB410100EB8100B0F9100091
:104520007047000001EB410100EB81008281704780
:1045300001EB410100EB8100C281704701EB4101B9
:1045400000EB810002827047F0B581B0044690F81C
:104550002600FFF7B3FE4FF6FF71884238D0226A7B
:1045600094F825C04FF0000E22F81C00238B1BB3DB
:1045700000260025002100BF32F8167045F0010624
:10458000F6B29E42394418D232F8167045F002064F
:10459000F6B29E42394410D232F8167045F0030646
:1045A000F6B29E42394408D232F816700435EEB2A3
:1045B0009E423944E0D300E00021B1FBF3F1A0803A
:1045C000581EE1806045C8BF0CF1010E84F825E05B
:1045D000204600F003F8208101B0F0BDC188428B75
:1045E000914284BF02207047808B0022814238BFF5
:1045F0000122900070470000418B828B038B114495
:104600004FEA510C13B380B5026A0323043200BF92
:1046100022F804CCB0F818E0991E714514D222F8A3
:1046200002CCB0F818E0591E71450DD2A2F800C0B6
:10463000018B8B4208D2A2F802C0B0F818E0591CD6
:10464000043308327145E3D3BDE880400021A0F86F
:1046500004C0A0F806C080F82510704710B50446C5
:104660000C30FFF793FE0146204684F82610BDE883
:104670001040FFF7C1BF0000B0F90C007047000008
:10468000B0F9040070470000B0F910007047000056
:10469000B0F90C10B0F91400C1EBC13191FBF0F08E
:1046A00000B2704770B50B88024619B283EAE13355
:1046B000548A0078A3EBE131938A92F803C025B2C3
:1046C0001FFA83FED38A84EAE534064689B2A4EB56
:1046D000E534158B60453CBF002601309BB2714527
:1046E00088BF0646A4B2994238BF0646AC4288BF8E
:1046F0000646F0B2B0EB0C0018BF0120167070BD7A
:1047000070B5044600780422002808BF0822E1683A
:10471000A558022904D3A2690139154405E000BF58
:10472000012903D161880D040021E160E91705EB3F
:10473000114101284FEA21400BD161690646084624
:10474000FFF79AFF311A206909B2FEF713FF65607F
:104750000504A56070BD00000178012918BF7047ED
:1047600000690021FEF7FEBE70B5044600780D46D4
:1047700040B1E08B854203DCB4F92400854211DAB4
:10478000002070BD2046164600F05EF8B4F92810EF
:104790008D424FF0000103DBE28C9542324610DD82
:1047A000084670BD6068238CC11700EB11409D4224
:1047B0004FEA204005DAB4F922108D42C4BF002030
:1047C00070BDAAB1A18B281A514344F6D352C1F24D
:1047D0006202A1FB0212012101EB9211000490FB85
:1047E000F1F06580E1600121A061084670BD00BF65
:1047F00020782904082201284FF0000008BF042275
:10480000A150E0600121A061084670BD10B50446CA
:104810004069FFF731FF0004606010BDD0F82E0042
:1048200070470000C08B70474068C11700EB114013
:1048300000147047B0F92C0070470000B0F9240054
:1048400070470000406970478068C11700EB114055
:104850000014704780B590F82A30B0F82CC003706F
:10486000C38D4FEA0C4C1B044FF0000EA0F802E081
:10487000C0E901C3C0E903E1C0E9052E80BD000025
:1048800001700021C16070470021C16081617047E3
:1048900001780B2903D10922027000228280A1F144
:1048A0000B00B0FA80F040097047000080B58646E2
:1048B000B0F802C04FF6FF7300785A40BEF80430DB
:1048C0004CEA010C02EA0C0219430A28AEF8022055
:1048D000AEF8041008D1002A1CBF0A2080BD0B20AE
:1048E0008EF8000080BD00BF002A08BF80BD0A20EE
:1048F0008EF8000080BD00008188408841EA0040B9
:10490000704700000078704700210170C0F8021065
:104910007047000010B50278142A00F2C680DFE864
:1049200012F0AF009F0015005B007100BF00150082
:10493000D1000B01FD00C400C4004B0087006B00D8
:104940003B00DF00ED00270119011F0001294FF096
:10495000000418BF032940F01781204610BD00BF96
:104960004A1E112A00F216810024DFE812F013001B
:10497000130113001301130113010F01130113019C
:104980001301130113011301130113011301130187
:104990000F0100BFE1E700BF4A1E062A00F2FA80BD
:1049A0000024DFE812F00700F3000700F700F7002B
:1049B000F700F300D1E700BF072900F2EB800024E5
:1049C000DFE811F0E4000800E8000800E800E80073
:1049D000E8000800C1E700BF112900F2DB800122D6
:1049E00092238A40C0F203031A4240F0CF80032989
:1049F00004BF002010BDCDE001F0F702072A54D11A
:104A0000C4E000BF4A1ED3B2D20142EA5302D2B27E
:104A1000092A00F2BF80012303FA02F212F4037F95
:104A200040F0B48091071CBF002010BDB2E000BF71
:104A30004A1E0D2A00F2AE800024DFE812F00F00BB
:104A4000AB000F00AB00AB00AB00A700AB00AB00AE
:104A5000AB00AB00AB00AB00A70000BF7DE700BF21
:104A60000E2900F2978001228A4012F4C14F40F0D3
:104A70008D8012F00A0F1CBF002010BD8AE000BF1D
:104A80004A1E0B2A00F286800024DFE802F07F83B2
:104A90007F83838307838383837F00BF5DE700BFBA
:104AA00001F0FE02062A00F07180072900F27280F0
:104AB000012202FA01F111F08A0F1CBF002010BD83
:104AC00068E000BF4A1E072A00F264800024DFE885
:104AD00002F0056105616161055D00BF3DE700BF52
:104AE0004A1ED3B2D20142EA5302D2B2022A59D3A9
:104AF000032A4BD0082A49D04CE000BF142949D8DA
:104B0000012280238A40C0F214031A423ED112F0DF
:104B10000A0F1CBF002010BD3CE000BF0C2939D893
:104B200001228A4012F08A0F1CBF002010BD41F202
:104B300001031A422AD12DE04A1E082A2AD800244D
:104B4000DFE802F00628062828280628240000BFEF
:104B500003E700BF07291DD801228A4012F0B00FD9
:104B600014D112F00A0F1CBF002010BD12E000BFCC
:104B70004A1E062A0ED80024DFE802F0040C0408BE
:104B80000C0C0800E9E600BF072903D101700120E1
:104B900010BD00BF802100220024FFF787FE2046C1
:104BA00010BD00BF002010BD10B540F24844C2F255
:104BB00000042078022804D1FCF73EFCFCF7F8FF43
:104BC000002001302070BDE81040FEF7A7BA0000B9
:104BD00070B592B006AC20463021FBF729FB0025CA
:104BE00043F640000595CDE90355CDE90155009503
:104BF000C4F202000168022641F0805101600068A1
:104C000000F080500090009847F200000095C4F238
:104C10000000016841F4804101600068A82100F4AF
:104C2000804000900098012006904FF4803007905B
:104C30004FF480000D9004200E90119020460C96A9
:104C4000CDE90F16FCF7D0FD20B1EFF3108072B65E
:104C5000FEE700BF0F20CDE901064FF4A0500490FD
:104C60004FF48050059001A805210395FCF79EFCA8
:104C700020B1EFF3108072B6FEE700BFFCF748FDED
:104C800012B070BD4EF68850CEF20000016841F4BB
:104C9000700101604FF0006140F8801C7047000017
:104CA00040F25830C2F20000806F80680169090646
:104CB00058BFFEF745BA80B56FF08001016140F240
:104CC0005830C2F20000FEF7B7FDBDE88040FEF7A5
:104CD00037BA000040F25830C2F20000816F6FF026
:104CE000010289680A61FFF73FBA000010B540F27F
:104CF000F804C2F20004E16A0869C00706D06FF048
:104D0000010008612046FBF753FFE16A086980074C
:104D100058BF10BD6FF0020240F2F800C2F200006E
:104D20000A61BDE81040FBF7E5BD000010B540F694
:104D3000FF3E0368C4F2000E40F2004C7045C4F21E
:104D4000010C25DCB0F1804F2FD040F20042C4F2BC
:104D50000002904229D040F60002C4F200029042C4
:104D600023D041F6FF72C4F20002904227DC704566
:104D70003ADCB0F1804F5BD040F20042C4F2000256
:104D8000904255D040F60002C4F200024EE000BF4F
:104D900040F60042C4F20002904206D0604504D0C2
:104DA0000022C4F201029042DBD14A6823F0700372
:104DB000134341F6FF72C4F200029042D7DD43F67E
:104DC000FF72C4F20102904220DC42F20002C4F2FF
:104DD000000290422CD00022C4F20102904227D05F
:104DE000604525D028E000BF40F60042C4F2000232
:104DF00090421DD041F60002C4F20002904217D04A
:104E000041F60042C4F2000210E000BF44F200028A
:104E1000C4F2010290420BD044F60002C4F2010237
:104E2000904205D044F20042C4F20102904203D104
:104E3000CA6823F44073134323F080024B69D1F80E
:104E400000E08C681A430260C46240F48062C0F8DB
:104E500028E0624504BF096901630121416110BD79
:104E600070B5026A40F2004422F010020262026A47
:104E7000D0F804E0D0F818C08B6822F0200540F488
:104E80008062C4F20104A24245EA031307D1CD684F
:104E90006FF0400623F0C00306EA05152B430D68AA
:104EA000A24206D1D1E905242EF44066224346EA07
:104EB000820E2CF4E64242EA0522C0F804E0826148
:104EC00049688163036270BD80B5D0F800E0DEF808
:104ED0000830D1E900C223F0770322F0070018431D
:104EE0006FF0030303EB321340EA0C00032BCEF800
:104EF000080056D8DFE803F0023E182EBCF1050F7B
:104F000004BF012080BDDEF82000DEF8202022F062
:104F10000102CEF82020DEF81820096922F0F00204
:104F200042EA011139E000BF88680969DEF82020F3
:104F300022F01002CEF82020DEF81820DEF8203013
:104F400022F4704242EA013123F0A00242EA00104A
:104F500023E000BFD1E902020969DEF808301043FE
:104F600023F47F4340EA01201843CEF808000020D4
:104F700080BD00BF88680969DEF82020DEF8203097
:104F800022F00A0223F00103CEF82030DEF81830B8
:104F9000104323F0F00343EA0111CEF81810CEF8C5
:104FA0002000002080BD000010B5D0F820C041F2E4
:104FB000FF742CF0010CC0F820C0D0F818E0D0F835
:104FC00020C0C4F20004A0420EDC40F2FF74C4F220
:104FD0000004A04216DCB0F1804F2BD040F2004418
:104FE000C4F2000424E000BF40F2FF34C4F2010424
:104FF000A04213DC41F60004C4F20004A04219D020
:10500000002413E040F60004C4F20004A04211D0D2
:1050100040F60044C4F200040AE000BF44F2000479
:10502000C4F20104A04205D040F20044C4F20104DD
:10503000A0420DD12EF00304224363F307122CF09B
:105040000A0301F00A0119448261016210BD00BF28
:105050004EF00102F1E7000040F24C60C2F20000A5
:105060008088B0FA80F040097047000010B540F227
:105070004C64C2F20004E068FEF7F0FF04F1340073
:1050800080210022BDE81040FFF710BC2DE9F04759
:1050900082B040F2F800C2F20000FBF7B3FA40F22F
:1050A0004C64C2F200046069FFF7CCFB0646FFF7D0
:1050B000E7FAE268814601A91046FEF7EDFA019889
:1050C000FDF7A4FA49468046FDF7BAFA0746B4F957
:1050D00068104FEA104AA0693AB2891AFEF74AFAF4
:1050E000B4F96A100546E069A1EB2741FEF742FAE0
:1050F000A268C5EA00411046FBF71CF90546304698
:10510000FFF7C2FA28464946FDF7BEFAE1680646AF
:1051100008463146FEF7C2FA01990128C4F86E50DC
:10512000C4E91618A4F86470A4F866A0C4F8726004
:10513000A4F8789005D104F1340001210022FFF792
:10514000B5FB002002B0BDE8F087000070B582B06A
:105150000020ADF8060040F2F800C2F200000DF1A8
:105160000601FBF701FA40F24C66C2F20006716AD2
:1051700005460846FEF740FA06F134042046FFF7DC
:10518000C1FB03380F2800F27E80DFE800F0092D14
:1051900013414F25317C7C7C7C7C7C35735F00BF68
:1051A000F068FFF75BF8142000F0C4F820461021E7
:1051B00067E000BF0020FBF7D5F90020FBF792F96C
:1051C00020460621FFF7A6FB7069FFF71FFB306B37
:1051D000FDF768F902B070BD00F0B8F8002852D0B1
:1051E000204609214DE000BF2046052149E000BFCF
:1051F0002046002145E000BFFFF72EFF002842D0E7
:10520000F0680021FEF728FA2046112139E000BF9E
:10521000306BFDF747F90020FBF764F99DBB204692
:1052200020210022FFF742FB02B070BDF068FEF7BC
:1052300015FF0020FBF770F9706AFEF7EFF84FF4E6
:10524000487000F07DF8204608211AE040F2F8008E
:10525000C2F20000FBF7F2F920460421FFF75AFBE7
:1052600088B10020FBF758F9F068FEF72DFF02B077
:1052700070BD00BFF0680121FEF7EEF918B12046BD
:105280001221FFF747FB02B070BD000040F24C60F6
:10529000C2F200000078012818BF704780B50020D6
:1052A00000F004F8BDE88040FFF72EB8F0B581B0FB
:1052B00040F24C66C2F2000606EB80070446B86A6C
:1052C000FEF7E0F8F96800F00E050846FEF7C2F9AF
:1052D00045EA00052CB9306AFFF736F900F00E00F8
:1052E000054304EB440006EB400000F134064FF6A2
:1052F000FF7085EA000230462946FFF7D7FA3046AC
:10530000FFF700FB0B280DD00A2811D1F868FEF733
:1053100091FA2046FBF700F9786A01B0BDE8F04049
:10532000FEF77CB8F86801B0BDE8F040FEF782BA3D
:1053300001B0F0BD40F24C61C2F2000188807047BC
:1053400040F24C61C2F20001C880704740F24C60EC
:10535000C2F20000C088B0FA80F040097047000037
:1053600070B50446006804F108030ECB05691943C3
:1053700025F440552A430261626949F20C651143E4
:10538000E269C3684FF69C76AB4319431143C16091
:105390004169A36921F440711943416141F200411F
:1053A000C0F6FF76B2F5004F40F48060C4F2010110
:1053B00004D1884208D1FCF7CBF907E0884229D113
:1053C000FCF7C6F928E000BFFCF7AEF963681921C5
:1053D000A0FB01015A00DB0FFAF7F2FE48F21F5161
:1053E000C5F2EB11A0FB01235A0906F1805302FB21
:1053F0000300322303EBC000A0FB01014FF4F8705F
:1054000000EA111000EB0210C1F3421108442168B8
:10541000886070BDFCF788F963681921A0FB010161
:105420009A009B0FFAF7CCFE48F21F51C5F2EB1120
:10543000A0FB01235A0902FB0600322303EB0010F4
:10544000A0FB0101F02000EA511000EB0210C1F3B3
:10545000431108442168886070BD0000002180F875
:105460001C117047FBF72AB880B582B008218DF86F
:1054700007100DF10702FF21012300F07DF802B0B3
:1054800080BD000090F81C211AB390F81D21012A5C
:105490000CD08AB9028A80F899100121428280F8E2
:1054A0001D1146F65A00C0F600007047022280F82F
:1054B0009A1022EA91110AE090F89A30023393424E
:1054C0000CD9024482F8991090F81D11013180F82E
:1054D0001D1146F65800C0F60000704710B582B0A6
:1054E0004FF0000CD0F8203180F81B11A0F812C04A
:1054F000DA6800F1990122F02002DA6080F81CC11C
:1055000004460846FAF794FF94F81B21214690427E
:105510000ED10A4608688C6891F8991092F89A3072
:105520009B32A04746F65C00C0F6000002B010BDFA
:105530000A208DF807000DF107020846FF2101231C
:1055400000F01AF846F65C00C0F6000002B010BD8C
:1055500090F81C1100294FF0010101D00846704756
:10556000D0F82021A0F81C11D068022140F02000C2
:10557000D06008467047000070B5064690F8970066
:1055800000281CBF012070BD304600F8141F002BFE
:10559000437040D013F003010ED096461EF801CBA5
:1055A000012986F816C00DD1591E06F1170C724656
:1055B000042B1FD22FE000BF06F1160C1946042B56
:1055C00018D228E092F801C0022986F817C007D146
:1055D000991E023206F1180C042B0BD21BE000BFFF
:1055E00092F802E0D91E033206F1190C86F818E091
:1055F000042B10D3ACF10403043A00BF12F8044F9B
:10560000043903F8044F54780D065C7094789C704C
:10561000D478DC70F2D1FAF70BFF86F896000120FF
:10562000D6F82011A6F89700C86840F08000C8603E
:10563000022070BD90F89710002908BF704790F8BD
:105640009810012904D039B900F114020CE000BF10
:1056500000F1150208E000BF427D02328A4292BF8B
:1056600000F196020A1814321378D0F82021536002
:10567000437D02338B4203D9013180F89810704783
:10568000D1684FF0000C21F08001D160D0E9001208
:105690000346084683F897C0104700008169002937
:1056A00008BF7047084700004169002908BF7047DC
:1056B00008470000B0B540F20075C2F20005696805
:1056C0000446084600F076FAA04218BFB0BD6868EC
:1056D000BDE8B040FFF7E2BF10B54A1E0D2A39D829
:1056E000016A90F82C0051F820100120DFE802F048
:1056F0001C080E3333222C3A34323232320800BFC7
:105700000846FCF77BFF012010BD00BF08460C4691
:10571000FCF742FF06281CBF012010BD2046FCF705
:1057200071FF012010BD00BF0846FCF75BFF0120A0
:1057300010BD00BF08460C46FCF72EFFC0B1204646
:10574000FCF75CFF012010BD0846FCF7FBFE0120C2
:1057500010BD00BF002010BD0846FCF797FE0120D9
:1057600010BD00BF0846FCF799FE012010BD00BF28
:105770002046FCF737FF012010BD000080B5036A0A
:1057800090F82C0053F820004AF6AB23C2F6AA2367
:1057900051FB03F101EBD17109B2FCF7C3FE01200B
:1057A00080BD000080B5036A90F82C0053F82000FB
:1057B000FCF7C0FE012080BD8268002A04BF89205A
:1057C000704710470020704770B50346D0E90805C0
:1057D00093F82C40002A55F824C050F824601CBFD0
:1057E00001201070812900F2A98148F27A40C3F2A9
:1057F000A640DFE811F05701290179017F014F012F
:105800005B016701890195002F012301DD00830001
:105810008301D1001D01A301A301A301A301A301E1
:10582000A301A301A301A3019D01D7001701F1006A
:105830003D01E3008F008900A30161011101AF0167
:10584000EB008F018F00890095008300A901C30040
:105850007301BD00A300F700A301A301A301A301ED
:10586000A301A301A301A301A301A301A301A30118
:10587000350195019B00C9008300A301A301A30189
:10588000A301A301A301A301A301A301A301A301F8
:10589000A301A301A301A301A301A301A301A301E8
:1058A000A301A301A301A301A301A3014301A30138
:1058B000A301A301A301A301A301A301A301A301C8
:1058C000A301A301A301A301A301A301A301A301B8
:1058D000A3016D01B501A701A3019B019B01A301D8
:1058E000A301A301A301A301A301A301A301A30198
:1058F000A301A301A301A3019B0100BF3046FCF754
:105900003BFE001470BD00BF3046FCF731FE0014B2
:1059100070BD00BF3046FCF72BFE00B270BD00BF6B
:105920003046FCF729FE00B270BD00BFDCF8240051
:10593000FEF778FF00EB4000400070BD986A50F819
:1059400024104FF0FF3000EB1170C1F30361012808
:10595000A1F1010194BFDCF818000020012998BFD3
:10596000DCF81C00002800F0E180FEF789FE70BD25
:105970003046FCF719FE001470BD00BF3046FCF73E
:1059800017FE001470BD00BFDCF82400FEF756FFC0
:1059900000EB4000400070BDDCF80800FDF7CEFDD4
:1059A00070BD00BFDCF82C00FDF78EFD70BD00BFA0
:1059B000DCF80400FDF7BEFD70BD00BF3046FCF70B
:1059C000C5FD00EB4000400070BD00BF3046FCF755
:1059D000CBFD00B270BD00BF18460021FFF7ECFE02
:1059E00070BD00BF986A50F824104FF0FF3000EBF4
:1059F0001170C1F303610128A1F1010194BFDCF82A
:105A000018000020012998BFDCF81C00002800F0D5
:105A10008D80FEF73DFE70BD3046FCF7A1FD00B263
:105A200070BD00BFDCF83C00FDF7FEFC70BD00BFA0
:105A3000DCF80800FDF77EFD70BD00BFDCF8040057
:105A4000FDF77CFD70BD00BFDCF82800BDE87040AC
:105A5000FEF752BFDCF80400FDF776FD70BD00BF15
:105A60001A69002A62D018460021904770BD00BF15
:105A700018460121FFF7A0FE70BD00BF3046FCF7BD
:105A80006DFD012806D13046FCF77AFD00EB4000A1
:105A9000400070BD3046FCF77BFD00EB400040004D
:105AA00070BD00BF184600F085F870BDDCF800003E
:105AB000FDF74AFD70BD00BFDCF81400B0B3FEF77F
:105AC00017FD70BDDCF80000FDF738FD70BD00BFAC
:105AD000DCF80000FDF73CFD70BD00BF3046FCF770
